:020000041004E6
:1000000000600020210F04109712041099120410B0
:10001000AA5555AA45554C420000000000000000BA
:100020000000000000000000000000009B1204100F
:100030000000000000000000750D04109D12041067
:10004000A5120410770D041000000000000000004D
:10005000F9120410790D041001130410850D041019
:100060000000000000000000000000000000000090
:1000700000000000870D0410890D04108B0D041082
:10008000000000007B0D04107D0D04107F0D041096
:10009000810D0410830D0410730D04108D0D0410D8
:1000A0000000000000000000000000000000000050
:1000B0000000000000000000000000000000000040
:1000C000EFF31482EFF309811C4880F31488BFF327
:1000D0006F8FF0B543464C4655465E466746F8B4CA
:1000E000174CEFF30883236006B4164C2068164CB7
:1000F0002060164C2068164C2060164C2068164C68
:100100002060164C276800202060BFF34F8F30BF5F
:1001100027600B4C246884F3088882B003BCF8BCC9
:100120009846A146AA46B346BC46F0BC04BC80F340
:10013000098881F31488BFF36F8F10470000000017
:100140000800002004ED00E07417002024ED00E01A
:100150007017002000E200E078170020080020401F
:1001600003B47146490840004900095E49008E44C5
:1001700003BC7047002243088B4274D303098B42AF
:100180005FD3030A8B4244D3030B8B4228D3030C67
:100190008B420DD3FF22090212BA030C8B4202D309
:1001A0001212090265D0030B8B4219D300E0090A31
:1001B000C30B8B4201D3CB03C01A5241830B8B423A
:1001C00001D38B03C01A5241430B8B4201D34B0323
:1001D000C01A5241030B8B4201D30B03C01A524188
:1001E000C30A8B4201D3CB02C01A5241830A8B420D
:1001F00001D38B02C01A5241430A8B4201D34B02F6
:10020000C01A5241030A8B4201D30B02C01A524159
:10021000CDD2C3098B4201D3CB01C01A524183090D
:100220008B4201D38B01C01A524143098B4201D347
:100230004B01C01A524103098B4201D30B01C01A72
:100240005241C3088B4201D3CB00C01A52418308EC
:100250008B4201D38B00C01A524143088B4201D319
:100260004B00C01A5241411A00D201465241104679
:100270007047FFE701B5002000F006F802BDC04658
:100280000029F7D076E770477047C0464378027878
:100290001B021A438378C0781B04134300061843DB
:1002A0007047C046030A4B7003021B0E8B70030E8F
:1002B0000870CB707047C04603005A78007812026D
:1002C00002439878197900040243D8780006104355
:1002D0005A7912020A43997909040A43D97909061D
:1002E00011437047030A5370030C9370030ED370CD
:1002F0000B0A53710B021B0E93710B0E10701171D0
:10030000D3717047024A1368013313607047C046C7
:1003100010030020C021074A074B08485360036AB6
:1003200009061B021B0A0B43036200239360073379
:100330001360704710E000E0FE7C000000ED00E07C
:10034000014B18687047C04610030020034A11682B
:1003500013685B1A8342FBD37047C046100300202A
:1003600010B541600400FFF7EBFF206010BD10B531
:100370000400FFF7E5FF2368C31A60680133984261
:100380008041404210BD0000124AD3691B061B0F7A
:100390004370D9B2D369104A1B071B0F83700F4BF0
:1003A0001B684360934212D10D4B1A680D4B9A4261
:1003B0000BD104230370002901D1012343700A4BA0
:1003C0009B8A01339B00836070470223F2E701237D
:1003D000F0E7C0460000904041A000022800904095
:1003E0001C00001044A000F200001040F0B507000F
:1003F00085B001AC0E0020001500FFF7C5FF237883
:100400003B7063783370A3782B7005B0F0BD10B5E6
:1004100001F024FA10BD10B501F03CFA10BD10B582
:1004200001F00EFA10BD0000024A138ADB07FCD56A
:100430007047C04600001040084B10B51A68084BC2
:100440009A4209D13F22074B40061A81000C2E3AEE
:1004500098611A80FFF7E8FF10BDC0461400002025
:10046000CCBCECFC00001040084B10B51A68084BDF
:100470009A4209D13F22074B80081A810C3A9861B1
:1004800019641A80FFF7D0FF10BDC0461400002089
:10049000CCBCECFC00001040F7B503790168019377
:1004A000002B2BD18022D20553688B4353608022CE
:1004B00000240F27D2050B000125E3402B420BD06F
:1004C000E6B2A300072C24D83D009D40D66AAE4377
:1004D000019D9D402E43D66201341A2CEBD180231E
:1004E0004279DB05012A3DD1DA680A43DA60827974
:1004F000012A3AD19A6811439960F7BD019B062BF6
:10050000D5D18022D20553680B4353600023019359
:10051000CDE708256D42AC46B4446546072D09D8A1
:100520003D00203B9D40166BAE43019D9D402E43F8
:100530001663D1E7103E072E09D83D00403B9D4091
:10054000566BAE43019D9D402E435663C4E73D006C
:10055000603B9D40168FAE43019D9D402E43B6B239
:100560001687B9E7DA688A43C0E79A688A439A60CF
:10057000C3E78023DB051B681840431E9841C0B2C7
:1005800070478023DB05986270478023DB055B6A38
:100590001840431E9841C0B270470200202330B576
:1005A000013BD55CCC5C281BA54201D1002BF7D1C7
:1005B00030BDC02380211B061A680A431A601A68DE
:1005C0008A431A607047C02301211B061A680A4338
:1005D0001A601A688A431A607047C0231B0618689D
:1005E0008007C00F70470000054B01201B78002BCF
:1005F00004D1044B1868431E9841C0B27047C046EE
:1006000014030020000400C070B5294E90B004000F
:1006100020220D006846310001F020F9310020222F
:10062000203108A801F01AF9012C1AD108A92800D4
:10063000FFF7B3FF1F4904220B78002804DB1343A4
:100640000B70200010B070BD93430B701A4B1A0052
:10065000ED1A2032E95802C39A42FBD100241460FB
:10066000EFE7022C0FD169462800FFF796FF114AE9
:10067000013C1378002802DB23431370E1E7A34316
:1006800013700E4BE3E7032C10D169462800FFF7E7
:1006900084FF084902220B78002803DB13430B7008
:1006A000023CCEE793430B70054BD0E70124C8E72B
:1006B000346E0510140300206C0400C0900400C0C8
:1006C000B40400C0030001280DD002280DD0012081
:1006D000032B07D1064A0023D05CC8540133202BDA
:1006E000FAD100207047034AF5E7034AF3E7C04612
:1006F000B40400C06C0400C0900400C0044B1A6A2B
:10070000012902D110431862704782431A62FBE745
:1007100000009040274B284A197A1289CBB292B236
:1007200000293CD109201040093843425841112387
:1007300040011340112B01D12F33184321231340C3
:10074000212B01D18023184341231340412B02D197
:1007500080235B00184381231340812B02D1802327
:100760009B00184302231100FF331940994202D124
:100770008023DB0018431100104B1940994202D12D
:1007800080231B01184305231340052B01D110239F
:100790001843D243930701D108231843704701201F
:1007A000022BFBD00220042BF8D0083B58425841C2
:1007B0008000F3E7000090400000104801040000B2
:1007C000054B0122196B002802D00A431A637047B7
:1007D00091431963FBE7C04600003040F8B54A4C2E
:1007E0000500236B01681B0700D56DE00901474830
:1007F000FFF7C0FCC3099AB2A284454ADB0101306D
:100800001340C31A5B089BB23F2B02D93F223F3BE8
:100810001340032760263F4ADBB213703E4B2A7910
:1008200018783A405201B04310431870012069799A
:10083000227F39404901B2430A432277AA791978C5
:100840000240BA400730814311431970217F814330
:100850000A432277EA79002A38D102211A788A439A
:100860001A70227F8A43012022772A7A216B160090
:10087000C2402A4F06407602394031432163216B42
:10088000274E0240314012020A432263697A226BEA
:100890000E00C140234F06403A40B6033243226364
:1008A000226B214E01403240C90311432163AA7AD1
:1008B000197802400F301201814311431970237FD0
:1008C00083431A432277F8BDC90090E7022A0CD16E
:1008D0000420197811431970197881431970217F08
:1008E0000A432277227F8243BDE702211A780A4316
:1008F0001A700422187810431870207F0143217762
:10090000217F0A43AFE7C046000030400000127A62
:1009100080FF7F00280030402C003040FFFDFFFFAB
:10092000FFFEFFFFFFBFFFFFFF7FFFFF024BC00582
:10093000C00D18807047C04600003040014B188839
:10094000C0B2704700003040054B002805DA5B68F4
:100950001840431E9841C0B270471B8BF8E7C04651
:1009600000003040034B9B8F1840431E9841C0B29B
:100970007047C046000030400721044A0840137801
:100980003131C0008B430343137070473400304053
:1009900010B5094C002801D0012805D000F0F4F86A
:1009A0000138C000205805E000F0EEF80138C00022
:1009B0002018406810BDC046D06E051010B5040068
:1009C0002020FFF7C1FF0128FAD0A0B2FFF7AEFF49
:1009D00010BD000070B5012186B006000920FFF7A8
:1009E0008DFE00F0D1F81B4B01388000C358002564
:1009F000019300F0C9F8184B0138800001ACC358CE
:100A000020002371A5716571FFF746FD00F0BCF869
:100A1000124B01388000C358019300F0B5F8104A1A
:100A2000431E9B009B5820002371FFF735FD0D4BA3
:100A30006A46049303230124938203A894750396C2
:100A4000FFF7CCFE2800FFF797FF2000FFF7B8FE66
:100A500006B070BDCC6E0510C86E0510C46E0510D2
:100A6000C06E051003030000034B10B51B68002B7C
:100A700000D0984710BDC0461803002007B51020CD
:100A8000FFF770FF002809D107BDFFF757FF6B463E
:100A9000D871073301211800FFF7E6FF1020FFF798
:100AA00053FF0028F1D0EFE701000A4A0A4810B5C9
:100AB0001368046801209C4209D00848C05C0133D7
:100AC000087080210020C9008B4201D0136010BD46
:100AD0001060FCE7200700201C0700201C030020FA
:100AE000094A03001168002901D108491160106802
:100AF0000749C3188B4205D90C220120054B4042FF
:100B00001A6070471360FCE72417002024070020B8
:100B100024170020DC17002001204042704780236A
:100B20009B0100204B6070470120704700207047F8
:100B300070B50E0014000025A54201DB200070BD39
:100B4000705DFFF73BFF0135F6E770B50E0015004D
:100B50000024AC4208D23019FFF7A6FF002801D1CB
:100B60000134F6E7002CF4D0200070BD10B500F081
:100B700075FE10BD10B500F071FE10BD0122014BD5
:100B80001A70704728170020014B1878C0B27047C0
:100B90002817002010B509F01DFA10BD10B508F097
:100BA000D1FD10BD10B509F0D7F810BD7FB50BAE63
:100BB000368808AC09AD2D88248803960A9E0195D5
:100BC0000296009409F0F8FA7FBD7FB508AC20CCFE
:100BD0000AAE2478367801940296009509F02CFA32
:100BE00004B070BD10B502F063FB10BD10B50AF083
:100BF00077FF10BD01207047F0B58DB012AC24789E
:100C000009930A9413AC248818AB1B880B9415AD78
:100C100014AC16AE17AF24882D8836883F8806930B
:100C20000B9B059701930A9B049600930395099BE0
:100C3000029401F051FE0DB0F0BD10B502F044F980
:100C400010BD10B50DF03EF910BD10B50AF00CFE48
:100C500010BD10B50EF0D2F810BD10B502F0FEFABE
:100C600010BD10B502F002FB10BD10B506F0D8FCA7
:100C700010BD10B50FF0E6FF10BD10B50FF006FD6A
:100C800010BD10B510F066F810BD10B50FF025FDC1
:100C900010BD10B508F05EFA10BD10B508F06AFA84
:100CA00010BD10B508F072FA10BD10B509F0DCFBEC
:100CB00010BD10B506F08AFA10BD10B509F014FE8B
:100CC00010BD10B509F020FC10BD10B509F04EFDA7
:100CD00010BD0120704710B505F04CFB10BD10B5DC
:100CE00012F0A0F810BD10B512F070F810BD10B5DC
:100CF00012F054F810BD10B512F02EFA10BD0120FC
:100D0000704710B512F0AEFA10BD10B512F070FABF
:100D100010BD10B510F0D6FC10BD10B510F0ECFCF5
:100D200010BD10B510F066FD10BD10B510F05CFCE4
:100D300010BD10B510F070FC10BD10B510F08EFC99
:100D400010BD10B510F0EEFC10BD10B510F004FD94
:100D500010BD10B50FF0F6FC10BD10B50FF0C6FCBD
:100D600010BD10B510F0B6F810BD10B50FF0AEFF05
:100D700010BD7047704770477047704770477047A5
:100D80007047704770477047704770477047000062
:100D9000002210B5104B995CC8B2002917D11C2A4B
:100DA00014D8212402319954511C5C54911C193CD3
:100DB0005C54D11C58549B18802290219BB2520243
:100DC0001343C905CB60CB681342FCD110BD995CBD
:100DD00001315218D2B2DEE729170020002330B5C6
:100DE0000E4AD15CCCB2002913D11C2B08D8352572
:100DF0000231D154591C5554991C03335054D454C6
:100E00000222074B1A7033325A7000229870DA703F
:100E100030BDD15C01315B18DBB2E2E7291700205D
:100E20001C00002080220E4B520230B59CB21100F3
:100E30001443002806D09023DB05DC60DA680A4200
:100E4000FCD130BD042598789978C0B2A943997037
:100E50009021C905CC60CC681442FCD19870F0E7B1
:100E60001C0000200123274A30B5117A03240B43CC
:100E700013720022244B85B01A60FFF74BFC6B46BF
:100E800058805A880233002A03D1013CE4B2002C76
:100E9000F3D11A881F2A32D91B885B0510D401A808
:100EA000FFF772FA6B465A799B7912011A43174B76
:100EB0001B681B0711D4112A02DD0120FFF7B2FFC6
:100EC0000122134B1A70FFF724F9BFF34F8F114B18
:100ED000114ADA60BFF34F8FFEE790250F4CED0506
:100EE00028692368283B1B1A1B02002BE8DD112A06
:100EF00002DD0120FFF796FF23686B60E0E7012029
:100F000005B030BD0000204014000020C0000020CB
:100F10000C00002000ED00E00400FA05180000209D
:100F200010B5FFF79FFF012813D1124A124B134946
:100F30008B4214D3124A134B13498B4212D3002114
:100F4000124B134A934210D30021124B124A934280
:100F50000DD3124B83F3088800F04EF910BD01CA7F
:100F600001C3E5E701CA01C3E7E702C3EAE702C339
:100F7000EDE7C046F0770510EC170020AC18002014
:100F8000C47705100800002034000020C0000020B5
:100F9000CC020020CC020020EC17002000600020D2
:100FA00070B58AB003AC05000E0019222000434939
:100FB00000F054FC6846FFF7E7F9002D60D04423A9
:100FC0003F4AA373117A433B0B4313724C23E372E2
:100FD0002C3B237292336374573B2375394B3A4A47
:100FE0001B68190C914208D17020E17D1B018143DF
:100FF000E175E17D03400B43E375344B1B68190C2D
:10100000914208D1302061791B018143617161797E
:1010100003400B4363712E4B1B68190C914207D19F
:101020000321E27D0B408A43E275E27D1343E375C1
:101030000422E37A69469343E3726B465B788978CE
:1010400093400B43112B06DDE37D1A43E275E07DEF
:10105000C0B2FFF7C3FE802390222404240C5B025D
:101060001C43D205D460D1681942FCD16B466A4654
:101070005B7892781B011343112B01DDFFF788FE8B
:10108000144B1A8B002AFCD001221A8316329A8143
:1010900000221A61964207D090231021DB051869BF
:1010A0001A6942400A42FBD0002D02D015220A4B99
:1010B0001A700A4B0A4A1A600AB070BD746E0510A5
:1010C00000002040E807001055AA0000E4070010C7
:1010D000B0070010000010480000C04014000020BD
:1010E000CCBCECFC0822F8B5C027C0213B4B3C4DE2
:1010F0009A803C4A3F04136A09062B403B43136223
:10110000136AFF271B021B0A0B431362C0229200C3
:101110009446C020344B64469A58344EBA43024336
:10112000C0201A511A590002324002431A51C122FA
:1011300092009C58BC433F3F3C439C509C58C02766
:10114000344004439C509C583F042C409C509C5875
:101150002402240A0C439C500832944664469A5850
:10116000324002431A511A592A403A431A511A5925
:101170001202120A0A431A51C4229200944664468B
:101180009A58324002431A511A592A403A431A5186
:101190001A591202120A0A431A51C52292009C5887
:1011A0002700FF24A7433F3C2743C0249F509F585C
:1011B00024043E4030439850985805402C439C509E
:1011C00098580002000A0143995001210800FFF7D6
:1011D000E7FE074B074A1A6262B6F8BD00001040EE
:1011E000FFFF00FF00ED00E000E100E0FF00FFFF77
:1011F0000000904066000E0007B5FFF773FFFFF791
:10120000BDFCFFF787F8E1200003FFF7E3FB104880
:1012100001F036FC011E03D00E4800F043FBFEE750
:1012200010230D49172200930C480C3B00F03AFBA9
:1012300000F08CF8011E03D0094800F033FBFEE7F4
:10124000084800F0BBFB01F0D9FB00F00DF9FAE70C
:10125000986F0510D86E0510096F05100F6F0510F7
:10126000566F0510816F0510BFF34F8F024B034A75
:10127000DA60BFF34F8FFEE700ED00E00400FA05EF
:1012800010B5032806D8537810781B021321184391
:1012900001F067FB10BD7047FEE7704710B5FFF720
:1012A00031F810BD10B50020FFF772FBFFF76DF9A4
:1012B0000400012812D10020FFF76AFBFFF761F953
:1012C0000020FFF765FBFFF754F9084B002806D113
:1012D0001C7019780648C9B200F0E4FA10BD00226B
:1012E0001A7019780348C9B2F6E7C04649170020BA
:1012F000CC6F0510FE6F051010B5FFF7BFFB10BDDA
:1013000010B505F0F9FF10BD0C4B01001B8810B59E
:10131000013398420CD00A4B1B880233984208D103
:101320001378012B04D1074A033311680B43136070
:1013300010BD054800F0B6FAFAE7C0469017002045
:101340008C1700204418002031700510F0B50825D6
:101350008BB008AF2A002749380000F07FFA062238
:10136000254906A800F07AFA0621002006AA01F015
:1013700040FB041E06D00100204800F093FA200034
:101380000BB0F0BD0421012001F02FFB01F014FB94
:10139000041E02D001001A48EFE71A4800F00EFBC5
:1013A000162312266B4401936E4405AB2100009373
:1013B0002A003300042001F0BCFA041E02D0010010
:1013C0001148DAE7114800F0F9FA6B4631889A8A39
:1013D00020002300019403970295009501F0F0FA94
:1013E000041E02D001000A48C7E70A4800F0E6FAE6
:1013F000C5E7C0464C7105108D6E05104D70051087
:101400006E70051091700510AE700510CF7005104C
:10141000EB7005101E710510062200B510498BB047
:10142000891808A800F01AFAFA23DB00069305933E
:1014300080213C230022C9010493143B080002933D
:1014400001930392009208ABFFF7D6FB011E05D073
:10145000044800F027FA6420FEF778FF0BB000BDC7
:101460008D6E05105571051070B50225484C8AB077
:1014700023682B4204D0FFF7CFFF2368AB432360E0
:10148000012523682B4257D023689B0554D4236839
:10149000DB051ED43F4910220C3106A800F0DEF90E
:1014A0003D4E102206A93000FEF7B1FF3B4B29004C
:1014B00018883B4A022380B2009601F069FA011EA7
:1014C00036D0384800F0EEF9802322685B001343E1
:1014D0002360012322681A4228D02268920525D56C
:1014E0002268120522D5226852071FD40A2105ADB1
:1014F0002B802D4B06A81B6859430393FEF730FF42
:10150000264B02221888294B80B219882B00023101
:1015100089B201F066FA462804D106A8FEF727FF33
:101520000028EDD004232268134323600AB070BD65
:101530001F4800F043FAC7E7012523682B42C8D0B3
:1015400023681B05C5D423685B05C2D4114910224A
:101550001C3106A800F082F9164E102206A93000B0
:10156000FEF755FF0D4B290018880D4A022380B263
:10157000009601F00DFA011E06D00F4800F092F916
:1015800080232268DB00A2E70C4800F017FAF7E797
:10159000441800208D6E0510B81700204A1700204F
:1015A000FFFF00007F710510BC6E0510A217002020
:1015B000C5710510CA170020057205104B72051081
:1015C000034B044A1980012311680B4313607047D1
:1015D0004A170020441800200121104B1A688A4342
:1015E0001A60022219680A4304211A601A688A43A1
:1015F0001A601A681C318A431A601A6808490A403E
:101600001A601A6807490A401A601A6806490A40AF
:101610001A601A6805490A401A6070474418002089
:10162000FFFEFFFFFFFDFFFFFFFBFFFFFFF7FFFFD9
:1016300010B50800029AD9B2FFF766FE10BD00008F
:10164000F8B51E00404B1B880133994200D079E069
:101650003378302B03D03D4800F0B0F9F8BD3C4D55
:101660003C4C2B68002B12D13B4800F0A7F9FEF749
:1016700067FE3A4B727C1860337C12021A43B37CCB
:101680001B041A43F37C1B061343013B2360727C4B
:10169000337C12021A43B37C21681B041A43F37C87
:1016A0002F4E1B06134333608B4204D119002D4883
:1016B00000F0F8F8D2E74A1C2B4F934206D08B4239
:1016C00033D20A002948396800F0ECF823683B60FF
:1016D000336823602B685A1C2A60002ABED0244B32
:1016E00053430222D341234A9342B7D8FEF728FE40
:1016F0001A4D2B68C41A21001F48FEF73BFDFA2142
:101700000300220049001D4800F0CCF81C4C216861
:10171000002904D01B4B1C481A6800F0C3F8FEF7E0
:101720000FFE00232860236098E715480268013AFD
:10173000521AD2180260134A144813601A0000F0BB
:10174000B1F8C3E71248B3E7A21700208B72051067
:1017500060170020581700209C72051064170020A5
:101760005C170020AA72051054170020BC720510E7
:10177000D578E9266E12830080380100D0720510FA
:10178000501700204C1700200E730510C972051069
:101790003170051010B50C0001000E4800F082F801
:1017A0000D4B1A68D20509D51A68920506D4210096
:1017B0000A4B0B481C8000F075F810BD1A685205E2
:1017C000FBD51B681B05F8D4064B210006481C807E
:1017D000F1E7C0462673051044180020A217002028
:1017E0006D730510C81700208473051070B50C4C7C
:1017F0002368DB050BD580252368AD002B4206D17D
:10180000084800F0DBF823681D43256007E02368E3
:101810005B0504D5802523682D012B42F0D070BDD7
:10182000441800209B7305102021024A13688B4343
:10183000136070474418002010B500F018F810BD70
:1018400030B500240139A24201D1002005E0035D3A
:1018500001340D5DAB42F6D0581B30BD002310B5EE
:101860009A4200D110BDCC5CC4540133F8E710B5E6
:10187000884202D98B18984203D3002307E08B5C7F
:101880008354013AFBD210BDCC5CC45401339A425C
:10189000FAD1F8E703008218934200D1704719701B
:1018A0000133F9E70FB40B4B13B51C68002C05D0BE
:1018B000A369002B02D1200000F086FA05AB2000BE
:1018C000049AA168019300F05FFC16BC08BC04B048
:1018D0001847C0464818002070B505000E000028C3
:1018E00004D08369002B01D100F06EFAAB69AC68BB
:1018F000002B02D1280000F067FA2D4B9C4222D128
:101900006C68636EDB0705D4A3899B0502D4A06DC8
:1019100000F0FBFAA3891B0702D52369002B29D10C
:101920002100280000F0AAF8002823D001256D42EC
:10193000636EDB0705D4A3899B0502D4A06D00F07C
:10194000E5FA280070BD1B4B9C4201D1AC68D8E77A
:10195000194B9C42D5D1EC68D3E70136A360002B2C
:1019600004DAA2699A4216DC0A2914D023685A1CA8
:1019700022601970A3683178013B0029EDD1A36082
:10198000002B0FDA280022000A3100F021F80A2586
:10199000431CCDD1CAE72200280000F019F8431CEF
:1019A000E8D1C3E70A2523685A1C22601D70BFE7EF
:1019B0000474051024740510E473051010B5034B6E
:1019C00001001868FFF788FF10BDC04648180020C6
:1019D000F8B505000E001400002804D08369002B20
:1019E00001D100F0F1F9224B9C422ED16C68A36921
:1019F000A360A3891B0732D52369002B2FD023684E
:101A00002269F7B2981A6369F6B2834205DC2100B5
:101A1000280000F037F9002827D1A3680130013BE6
:101A2000A36023685A1C22601F706369834204D03C
:101A3000A389DB0707D50A2E05D12100280000F075
:101A400021F9002811D13000F8BD0A4B9C4201D188
:101A5000AC68CCE7084B9C42C9D1EC68C7E72100D1
:101A6000280000F00BF80028C9D001267642EAE7EA
:101A70000474051024740510E4730510374B70B519
:101A80001D6806000C00002D05D0AB69002B02D1AB
:101A9000280000F099F9324B9C420FD16C680C235E
:101AA000E25E93B211072DD4D90611D40923012087
:101AB000336037331343A381404270BD294B9C42AE
:101AC00001D1AC68EBE7284B9C42E8D1EC68E6E733
:101AD0005B0713D5616B002908D02300443399427A
:101AE00002D0300000F080FA002363632422A3892F
:101AF0009343A38100236360236923600823A289A1
:101B00001343A3812369002B0BD1A0218022A38939
:101B1000890092000B40934203D02100300000F076
:101B20001FFA0C22A35E01201A0099B20240034260
:101B30000FD00022A26062695242A2610020226995
:101B40008242BAD10A06B8D540221343A381013894
:101B5000B3E7880700D46269A260EFE74818002065
:101B60000474051024740510E4730510F7B58B890F
:101B700005000C001A075FD44A68002A04DC0A6CCE
:101B8000002A01DC0020FEBDE76A002FFAD0002207
:101B900080212E682A601A0049010A400B4234D085
:101BA000606DA3895B0706D56368C01A636B002B61
:101BB00001D0236CC01A0200216A00232800E76AC2
:101BC000B847A189431C06D12B681D2B31D82C4A5C
:101BD000DA40D3072DD50023636023692360CB044B
:101BE00005D5431C02D12B68002B00D16065616BC9
:101BF0002E600029C6D023004433994202D0280029
:101C000000F0F2F900206063BDE701232800216A9B
:101C1000B847431CC5D12B68002BC2D01D2B01D067
:101C2000162B01D12E60ADE74023A2891343A38177
:101C3000A9E740230B43FAE70F69002FA2D00A68F7
:101C40000F60D21B019200229B0700D14A69A2605B
:101C5000019B002B00DC95E73A002800019B216ADC
:101C6000A66AB047002806DC40230120A289404232
:101C70001343A38187E7019B3F181B1A0193E7E7F2
:101C8000010040200B6970B505000C00002B02D14B
:101C90000025280070BD002804D08369002B01D1E5
:101CA00000F092F8144B9C421BD16C680C22A35E8E
:101CB000002BEDD0626ED20704D49B0502D4A06D38
:101CC00000F023F928002100FFF750FF636E0500A4
:101CD000DB07DED4A3899B05DBD4A06D00F016F9E9
:101CE000D7E7064B9C4201D1AC68DFE7044B9C422E
:101CF000DCD1EC68DAE7C0460474051024740510E2
:101D0000E4730510002310B5040003604360836092
:101D1000818143661900C2810361436183610822A6
:101D20005C30FFF7B7FD054B6362054B2462A3628D
:101D3000044BE362044B236310BDC0462527041007
:101D40004D27041085270410B127041010B502494F
:101D500000F0BAF810BDC046851C041070B56825A7
:101D60004A1E55430E002900743100F087F9041E05
:101D700008D000212A00016046600C30A060683263
:101D8000FFF788FD200070BD10B5024800F0BDF8D7
:101D900010BDC046E817002010B5024800F0B6F8A4
:101DA00010BDC046E817002010B5024800F0ADF89D
:101DB00010BDC046E317002010B5024800F0A6F899
:101DC00010BDC046E317002013B50400FFF7ECFF79
:101DD000A369002B02D0FFF7EFFF13BDA364E364F8
:101DE0002365134B134A1B68A2620193A34201D1DE
:101DF0000123A361200000F01FF86060200000F0C4
:101E00001BF8A060200000F017F800220421E06019
:101E10006068FFF777FF01220921A068FFF772FFD2
:101E200002221221E068FFF76DFF0123A361D2E7D0
:101E3000E07305104D1D0410F8B50700FFF7A4FF6F
:101E40001F4B1E68B369002B02D13000FFF7BCFFA7
:101E50004836B4687368013B04D53368002B22D040
:101E60003668F6E70C22A55E002D1AD12000154B2E
:101E70005830E360656600F047F8FFF78DFF2000FB
:101E8000082229002560A560656025616561A5615E
:101E90005C30FFF7FFFC6563A563A564E564200083
:101EA000F8BD6834D7E704213800FFF757FF041E58
:101EB0003060D5D1FFF770FF0C233B60EFE7C046E1
:101EC000E07305100100FFFFF7B5040006000027CE
:101ED000019148346368A5680093009B013B00931F
:101EE00004D52468002CF5D13800FEBDAB89012B48
:101EF00008D90E22AB5E013304D029003000019BCB
:101F0000984707436835E8E7704770477047000017
:101F100070B50E001D000E23C95E140096B0002996
:101F200007DA00232B60B3891B0611D48023DB0062
:101F30000FE06A4600F068FC0028F2DBF02301990C
:101F40001B021940054BC9184B4259412960EDE766
:101F500040230020236016B070BDC04600E0FFFFA4
:101F6000F7B502268B8905000C00334206D023000A
:101F700047332360236101236361F7BD6A4601ABE8
:101F8000FFF7C6FF00990700280000F077F8002847
:101F900008D10C22A35E9A05EFD4032293431E437B
:101FA000A681E4E70F4BAB628023A2892060134334
:101FB000A381009B20616361019B002B0DD0280051
:101FC0000E23E15E00F032FC002806D00322A38934
:101FD00093431A0001231343A381A0890743A781D8
:101FE000CBE7C0464D1D041070B50500002910D088
:101FF0000C1F2368002B00DAE418280000F048FCCE
:102000001D4A1368002B05D163601460280000F09E
:1020100047FC70BDA34208D9216860188342F3D100
:1020200018685B6841182160EEE71A005B68002BB6
:1020300001D0A342F9D911685018A0420BD12068F1
:102040000918501811608342E0D118685B68411884
:1020500011605360DAE7A04202D90C232B60D5E768
:1020600021686018834203D118685B6841182160B9
:1020700063605460CAE7C04668170020F8B50323C0
:10208000CD1C9D43083506000C2D1FD20C25A942FE
:102090001ED8300000F0FCFB25490A681400002C13
:1020A0001AD1244F3B68002B04D12100300000F0EE
:1020B00027FB38602900300000F022FB431C2BD1A5
:1020C0000C233000336000F0EBFB03E0002DDEDA80
:1020D0000C2333600020F8BD23685B1B19D40B2B45
:1020E00003D92360E418256003E06368A2420ED19F
:1020F0000B60300000F0D4FB200007220B30231DC2
:102100009043C21A9842E6D01B1AA350E3E75360EB
:10211000EFE722006468C2E70323C41C9C43A0428B
:10212000E1D0211A300000F0EBFA431CDBD1C7E705
:10213000681700206C170020936810B5013B93606E
:10214000002B04DA9469A34207DB0A2905D013683F
:10215000581C10601970080010BDFFF739FC010011
:10216000F9E7F8B506000F001400D518AC4201D10C
:10217000002007E021783A003000FFF7DDFF01344E
:10218000431CF3D1F8BD0000F0B5A1B006000C006F
:102190001F000392002804D08369002B01D1FFF7B0
:1021A00013FE8E4B9C421CD17468636EDB0705D412
:1021B000A3899B0502D4A06DFFF7A7FEA3891B0787
:1021C00002D52369002B1DD121003000FFF756FCFA
:1021D000002817D0636EDB070DD50120404221B0E7
:1021E000F0BD7F4B9C4201D1B468DEE77D4B9C4241
:1021F000DBD1F468D9E7A3899B05EED4A06DFFF786
:1022000085FEEAE7002308AD6B6120336B7610335F
:10221000AB760797039F3B78002B01D0252B4ED13F
:10222000039BFB1A0593039B9F420DD0059B210046
:102230003000039AFFF795FF431C00D1B5E06A69AF
:10224000059B944663446B613B78002B00D1ACE066
:1022500001227B1C0393002352426A6004A954327A
:1022600052182B60EB60AB601370AB65039B0522CB
:1022700019785D4800F000FB039B5F1C002820D10B
:102280002A68D30604D5532304A95B1820211970AA
:10229000130704D5532304A95B182B211970039B42
:1022A0001B782A2B16D00021EB68039F3A78781C04
:1022B000303A8446092A4FD9002911D117E0013755
:1022C000A9E7494B2A68C01A0123834013432B60B6
:1022D0000397CBE7079B191D1B680791002B01DBB8
:1022E0000B9304E05B42EB60022313432B603B78CB
:1022F0002E2B0AD17B782A2B37D1079B02371A1D48
:102300001B680792002B2DDB09930322397837488D
:1023100000F0B2FA002807D0344B2A68C01A4023D4
:102320008340134301372B6039787B1C06223048E9
:102330000393297600F0A0FA002845D02D4B002BFE
:1023400027D10722079B07339343083307936B6911
:10235000049A9B186B615DE70A214B4367469B1803
:102360000939A3E701235B42CEE700231A000137B6
:102370006B603978781C30398446092903D9002BE1
:10238000C3D00992C1E70A235A4367465218093B52
:10239000EFE707AB0093220029003000164B00E066
:1023A00000BF0490049B0133D1D1636EDB0705D4D9
:1023B000A3899B0502D4A06DFFF7A8FDA3895B0646
:1023C00000D50AE70D980AE707AB00932200290021
:1023D0003000094B00F082F8E3E7C04604740510B2
:1023E00024740510E4730510447405104A74051034
:1023F0004E7405100000000063210410F7B51500AD
:1024000001938A680B690C000090934200DA130074
:1024100022002B6043321278002A01D001332B6056
:1024200023689B0602D52B6802332B6022680623A3
:1024300017001F401A4227D0230043331B785A1E2F
:1024400093412268920630D4220001990098089E98
:102450004332B047431C25D0062320682A68E16830
:1024600000250340042B03D18D1AEB43DB171D40DD
:10247000A3682269934201DD9B1AED180027BD4233
:1024800020D1002010E00137E3682A689B1ABB4284
:10249000D2DD2200012301990098089E1932B0472D
:1024A000431CF0D101204042FEBD3020E1184331F1
:1024B000087021005A1C45310978A21843320233B2
:1024C0001170C1E72200012301990098089E1A3279
:1024D000B047431CE6D00137D1E70000F0B58BB020
:1024E00006920A0043320793059004920A7E0C007C
:1024F000109B782A06D8622A08D8002A00D1C0E0AA
:10250000582A52D026004236327022E0100063383A
:102510001528F7D8FDF724FE16001F00F6FFF6FF7A
:10252000F6FFF6FF1F00F6FFF6FFF6FFF6FFA80026
:1025300036009A00F6FFF6FFB900F6FF3600F6FF08
:10254000F6FF9E0026001A684236111D19601368B6
:1025500033700123A7E0086819680A1D05060BD52A
:102560000D681A60002D03DA2D23049A6D42137052
:10257000614B0A27039332E00D681A604106F1D5DA
:102580002DB2EFE70D681968081D18602E0601D5F9
:102590000D6803E06D06FBD50D68ADB2564B0A27FA
:1025A00003936F2A17D1082715E045310A70524A64
:1025B00003921A68216820CA1A60080650D5CB0712
:1025C00002D52023194321601027002D03D1202399
:1025D00022689A4322602300002243331A70636802
:1025E000A360002B03DB0422216891432160002DAE
:1025F00002D1049E002B0CD0049E28003900FDF768
:102600003FFE039B013E5B5C33702B0005009F4245
:10261000F3D9082F09D12368DB0706D5636822693F
:10262000934202DC3023013E3370049B9B1B2361E9
:10263000079B210000930598069B09AAFFF7DEFE81
:10264000431C35D1012040420BB0F0BD2022096867
:102650000A4322602200782145321170274AA7E7F9
:102660004806ACD5ADB2AAE71A680D68101D4969D5
:10267000186013682E0601D5196002E06D06FBD5BF
:1026800019800023049E2361D2E71A68111D196086
:10269000166800213000626800F0EEF8002801D0D2
:1026A000801B6060636823610023049A1370BFE796
:1026B0002369320006990598079DA847431CC1D09D
:1026C00023689B0715D4099BE0689842BCDA180080
:1026D000BAE72200012306990598079E1932B047F0
:1026E000431CAFD00135E368099A9B1AAB42F0DC7A
:1026F000E9E70025F7E7C046557405106674051034
:10270000002370B5064D040008002B60FEF7E8F9C1
:10271000431C03D12B68002B00D0236070BDC04642
:10272000DC17002070B50C000E25495F00F0C0F8E2
:10273000002803DB636D1B18636570BDA389024A23
:102740001340A381F9E7C046FFEFFFFFF8B51F0074
:102750008B8905000C001600DB0505D50E23C95E2C
:102760000022022300F074F8A389054A28001340D0
:10277000A38132000E23E15E3B0000F01FF8F8BD9C
:10278000FFEFFFFF70B50C000E25495F00F060F809
:10279000A389421C03D1054A1340A38170BD802246
:1027A00052011343A3816065F8E7C046FFEFFFFFC6
:1027B00010B50E23C95E00F015F810BD70B5040009
:1027C000080011001A000023054D2B60FEF7B0F938
:1027D000431C03D12B68002B00D0236070BDC04682
:1027E000DC170020002370B5064D040008002B60A4
:1027F000FEF792F9431C03D12B68002B00D0236015
:1028000070BDC046DC170020002370B5064D0400E3
:10281000080011002B60FEF782F9431C03D12B68DE
:10282000002B00D0236070BDDC170020002370B5A2
:10283000064D040008002B60FEF776F9431C03D117
:102840002B68002B00D0236070BDC046DC17002031
:1028500070B50400080011001A000023054D2B601C
:10286000FEF764F9431C03D12B68002B00D02360D2
:1028700070BDC046DC170020C9B28218904201D159
:102880000020704703788B42FBD00130F6E7000050
:1028900010B50248FFF739FB10BDC046E417002011
:1028A00010B50248FFF732FB10BDC046E417002008
:1028B00070B50400080011001A000023054D2B60BC
:1028C000FEF743F9431C03D12B68002B00D0236093
:1028D00070BDC046DC170020FFB58DB0144618AAA5
:1028E000ECCA04976F466CC70A46014605A8179BB9
:1028F00003F082FE00280AD108A84471012C08D0F8
:10290000002C06D0022C04D0032C02D0422011B09F
:10291000F0BD09A8062202301099FDF778FD08A93C
:1029200016980873C0B20328F0D805A800F09AFAE8
:10293000EDE77CB5069D079C002805D0860705D1EC
:10294000460703D4060701D442207CBD002903D0EA
:10295000012901D00229F7D10095019400F0D8FA9D
:102960007CBD10B50BF00EF910BD70B51C461346BA
:102970000D46012C03D0022C03D0422070BD022250
:1029800000E010221946FDF742FD2C70002070BDBA
:1029900070B586B00D46144606466946881C0A9AEC
:1029A000FFF7E3FF002805D16B4622462946304653
:1029B00000F090FD06B070BD10B502F007FB10BD31
:1029C000F0B585B084460AA8F0C868468581C681FE
:1029D00003A8019002970094604602F0E1FD05B063
:1029E000F0BD10B501F09FF810BD10B503F026FB47
:1029F00010BD10B503F044FB10BD000010B503F08E
:102A00002BFF1D4C4121206849014118097F0029F5
:102A10000DD1A0300079C00705D100F0E9FB02F02C
:102A20006DF90DF0D7FB03F05FFC10F05FFC00F0D8
:102A300001F92068014640310A78C9798A4319D1E1
:102A40003E21095C002915D10C490A88120711D5CD
:102A50000922D2061269497A836AC90059181123DA
:102A6000DB01C018806A801A00020012814201DA7C
:102A70000CF0CAFB10BD000038180020C000002078
:102A800010B5837F0122002492024168082B03D9EC
:102A90004224914202D310E0914201D242240CE040
:102AA000014634220648FDF7B2FC00F083F8002806
:102AB00001DA482401E000F02DF9204610BD0000A5
:102AC000DC0200203EB5174D15482968827F084674
:102AD000A0310A7300246030047644768476E122C3
:102AE000C2768022027702224277302008704C7032
:102AF00002AA01A96846FDF779FC68460078A2227F
:102B000001016846007A891C000201436846007989
:102B10000003014328681152A03004713EBD00003B
:102B2000DC0200203818002070B503F07BFE0BF0AB
:102B3000C5FE0AF00BFC11F0EFF904F057F81A4C3F
:102B40001A4920681A4D4018811013202A68C001C4
:102B50001018C162616889080163A168890841632E
:102B60000FF016F929681F208001228B0818828037
:102B7000628B0F23C280DB01A28BCB18DA87628CB9
:102B8000028022462032127882703D2252010020BB
:102B90008918087300F0BAFA03F0B6FB03F03CFBA7
:102BA00010F02AFC70BD0000DC0200200000FCEFE9
:102BB0003818002070B50025ED43FEF78AF801288B
:102BC0002ED0002318490322888BFF24401E104377
:102BD0008A7F593462438218088B28246043121874
:102BE000488B3024604312180846203040782C244B
:102BF000604310180D4A181884184869A0420DD176
:102C00000B4884420AD90D69FEF763F8C1B2284621
:102C100008F0F8FF09F032F9401B251A284670BD6C
:102C2000FF23B533CEE70000DC0200208919000045
:102C3000B8090000F8B52C4F3C68206E5C34401C8D
:102C4000002814D0002529480023C07B00283ED04E
:102C50000926F6062648002D1CD000210A460B4600
:102C60004169521C994204D1002902D004E0012597
:102C7000E9E7204B9A42F2D3216000696060306935
:102C8000A1680002090E000A09060143A16000F0D4
:102C900033F81DE03169A2680902090A150E08D04F
:102CA000018BC90712D04169216000696060E3723D
:102CB00010E0881A00027D2300121B03984205DDF4
:102CC000100E00060843A06000F016F8F8BD63601F
:102CD000002DFBD003CC0CF0BDF9FA200CF0AAF9C2
:102CE00039688862F8BD000038180020FC02002016
:102CF00000001048881300000449002008610448BF
:102D0000012100686030C171704700000000104868
:102D100038180020F8B506263248402505603248AC
:102D200000270780A9050920C00641602F4A91604D
:102D3000016801602E48032104694269601E08434E
:102D40003946401CFDF767FBFDF7C3FFC1B22046C3
:102D500008F058FF09F092F809F09CF8FDF785FF9C
:102D6000244917208881244C206842190146577055
:102D7000FA20886228201070FDF73CFF012805D159
:102D8000206810224030017811430170FDF7B7FF31
:102D9000012805D12068802240300178114301705C
:102DA0002068014640300278324302700020C04360
:102DB0000866FDF7FEFBFFF785FEFFF7B5FE20680E
:102DC00001212030017707214177012003F036F9F6
:102DD00006F0F2FBFFF72EFF024880380560022163
:102DE0000160F8BD80E100E0C00000204000004824
:102DF000DC020020000010483818002038B5184ABE
:102E000014682246BA32AE34A378DD0701D0012916
:102E10000AD05B070CD501290AD0217949070BD5C7
:102E2000E17A002905D007E0E07880210843E070CE
:102E300038BD0121E172508020794106090FF7D099
:102E40007821084069460870002048706A460221CF
:102E5000422000F0ADFA207987210840207138BD6A
:102E600038180020F8B50546002768460770154851
:102E700046260468AE3420798006800F03D00021F6
:102E8000084607F0F9FEA078400718D520794C21B4
:102E9000084214D10023287E6A4619460AF0D8FC5D
:102EA00000280DD16846007828762F74284607F050
:102EB00095FD060003D1207940210843207130465A
:102EC000F8BD00003818002038B51048002104680B
:102ED0000846AE3407F0D0FE694648702079C10735
:102EE00004D001216A46117088432071C0B2810765
:102EF00005D502216A461170FD210840207102218A
:102F00006A46084600F054FA38BD00003818002020
:102F1000FFB50C4678A103C995B00191009000213E
:102F200008A801730321C90268464186012108A847
:102F3000734E017435681746AE3513F079F80028E2
:102F400008D17049306840180AF028FEA878002897
:102F500002D0462019B0F0BD0BA81599FDF77DFEF3
:102F60000028F7D1072010A90871012C05D0022CE8
:102F70000AD0002C0ED04220ECE708A8017B1020DC
:102F8000014308A8017305E011A90BA8FDF72AFE6B
:102F90000028DFD110A8027901230CA9284601F0EE
:102FA0008DFD00287ED1022229461898FDF72FFAC0
:102FB00029886846818115214902018207840126FA
:102FC00086734E2108A881700024C4700671072101
:102FD0004171867103A902A801F026FB002861D186
:102FE000022202A91E98FDF712FA082F02D26846A3
:102FF000478502E008206946488569460C850B46EE
:1030000028880AAA098902F097FA00286DD13E495A
:10301000684601820227078408A8847103A902A8D0
:1030200001F002FB002860D1022202A91F98FDF7DF
:10303000EEF968460470694644704F850B4628884F
:103040000AAA098902F078FA00284ED108A8007B64
:10305000C00723D02C496846C91C0182082101847D
:1030600008A88770047103A902A801F0DDFA0028FE
:103070003BD1FF216846C1718171C170817041707F
:103080000170447104716946082048850B46288800
:103090000AAA098902F050FA002826D108A8007B64
:1030A000800600E021E022D5298868468181164902
:1030B000A53101820684867308A88770C4700471E4
:1030C00007214171847103A902A801F0ADFA00281B
:1030D0000BD169460E700C854E850B4628880AAACE
:1030E000098902F029FA002801D0472032E708A810
:1030F000007BA87000202DE7626C75656E726721F9
:103100003818002033070000012A0000034800217E
:103110000068AE30C1708170704700003818002020
:1031200070B50D4B1C68AE342379DD0612D45B07F5
:1031300010D533280ED1E07A02280BD1042010706C
:1031400000205070C9B2022000F032F92079FB2132
:103150000840207170BD00003818002038B50246C4
:10316000174801240068AE30022A1FD0052A03D078
:10317000072A07D00B2A20D1084609794088FFF793
:103180003DFE1AE000790024020600D501248207E2
:1031900003D1C20601D480060FD5084600216A4635
:1031A0001170694600F0A6F8044606E081784907E8
:1031B00003D50179FB2211400171204638BD000082
:1031C0003818002010B509480468AE34E07880074C
:1031D0000BD500200BF008FA022000F0C1F8E078CF
:1031E00001210843FD210840E07010BD381800207F
:1031F0001FB50E480468AE34E078010612D5A178F8
:10320000C9070CD0800708D50420694608736846B2
:1032100003F0FCFB022000F0A3F80020E070400661
:10322000400EE070FDF71DFD1FBD000038180020A6
:103230000949B22209681423525CBA311A4208D0F3
:10324000498800050905090D000D814201D10120C1
:1032500070470020704700003818002002780907E6
:10326000090F0A43027000207047000030B50E4875
:1032700085B005682C46AE352879BA34400711D59B
:10328000E87A01280ED115214902684641800121C2
:10329000017060886B46054A00F072F9002801D180
:1032A0000220E87205B030BD38180020FFFF000092
:1032B0007CB50446E1200D46800005F039FF0BA1E6
:1032C00003C900900191684603F076F901200BF0E4
:1032D00097FF002801D047207CBD2078202108439B
:1032E00020700920287000207CBD00001F02000013
:1032F0000000000030B5194B047A1B68C268AE3379
:103300001B799D06AD0F04D10078042801D0002060
:103310000EE0012030BD155C002D0BD0401C80B2AA
:10332000155C012D08D01518203DED7F281880B2BE
:10333000A042F0D3087830BD401CDD07012480B2E4
:10334000002D02D0105CC00703E09B07F2D5105C93
:1033500080070028EED00C70ECE700003818002041
:1033600010B50446C1061148006803D51522BF21D7
:103370000C4006E0392149014118897BC90710D06A
:1033800012222107890E08180121C9024018C06CB9
:103390000023214610F07AF8010004D0204610F0F6
:1033A00061F8002010BD072010BD00003818002073
:1033B000F8B5891ECDB20646A81C03210843401C5F
:1033C0008308174817460068F10603D51C22BF2161
:1033D0000E4008E0392149014118897B090601D4D2
:1033E0000020F8BD19223107890E08180121C902F1
:1033F0004018C06C314610F049F804000ED03978FE
:10340000217179786171A5712A46B91CE01DFCF71C
:10341000FEFF2146304610F025F8E1E70720F8BD11
:103420003818002000B500F009F8002805D08522E2
:1034300001699201114200D0002000BD10B50D4974
:1034400000050B68092109025918CA6E0021000DF8
:10345000A0331B7B0AE04C01145B2405240D84423D
:1034600002D14801801810BD491CC9B28B42F2D864
:10347000002010BD38180020FEB58C68CD88267B52
:10348000012E01D00020FEBD4126052D01D01E7069
:1034900019E0247C0A2C00D01E70002A0DD0896807
:1034A000052268460C31FCF7B2FF6D1E00AAA9B2D6
:1034B00032200132FFF734FE05E000880A4601465B
:1034C000022000F01DFD4120FEBD10B5102100F0CE
:1034D0009DF810BDFFB589B0074646261D7810221D
:1034E000991C05A8FDF742FB012D04D0022D02D046
:1034F00042200DB0F0BD3846FFF794FF040037D0EE
:1035000020223946002009F0FFFE07002FD019487D
:103510006946088001200490394620460B9B0A9A90
:103520000AF021F9060004D00021384609F048FFCE
:103530001EE00B98A081A068012D0FD0102205A9D4
:10354000FCF765FF257101212069490308432061CB
:103550000948A061384600F087FF09E010220749BA
:10356000FCF755FFA068022205A90C30E8E76426A5
:103570003046BEE703280000CB3404108C760510DB
:10358000FFB589B0074646251E781022991C05A86C
:10359000FDF7ECFA012E04D0022E02D042200DB02D
:1035A000F0BD3846FFF73EFF040024D02022394604
:1035B000002009F0A9FE07001CD005AD04960FCD30
:1035C0006D460FC5394620460B9B0A9A0AF0CBF888
:1035D000050004D00021384609F0F2FE0BE001217D
:1035E00020694903084320610448A061384600F07F
:1035F0003BFF00E064252846D1E7000001360410B7
:1036000010B5502100F096F910BD0000F0B593B050
:103610000E4604460020694608760190E06907904E
:10362000002827D0C788002F7DD0B006800F03D098
:103630002088FFF7FDFD019006AB2046019A07990F
:10364000FFF71AFF412861D0B81E80B2009007989A
:103650008068457B002D56D0F006F10703900029C5
:103660000FD0022F0DD329460098FCF709FE002940
:1036700003D006E0412013B0F0BD062D17D0142D65
:1036800015D0B00708D5052F06D30321B807890741
:10369000C84201D1022048E070070ED5022F0CD39A
:1036A00029460098FCF7ECFD002902D005E0012036
:1036B0003BE0082D0DD0062D0BD00398800F0ED0C7
:1036C000022F0CD329460098FCF7DAFD002902D01E
:1036D00005E0042029E0072D08D0152D06D0B006FE
:1036E00011D5012D04D0022D04D00CE008201CE0DF
:1036F000042500E01225022F05D929460098FCF781
:10370000BFFD002910D041206946087601212069BB
:10371000490388432061019800287DD006AA012131
:103720003120FFF7FDFCF6E01020810706D57D492A
:10373000B8034018070CB800C01C0EE0C006009883
:10374000294604D5401CFCF79BFD87B202E0FCF73C
:1037500097FD0746781E6843801D81B205AB0222A3
:10376000079809F091FDF0064ED56946A089898A2F
:10377000884202D9206941065BD4002041E0072D30
:103780000AD068430B3082B21023A168079809F071
:1037900011FE002815D031E01022634908A8FCF77B
:1037A00036FE02980BABC100081A0B3081B2022220
:1037B000079809F069FD102208A8A168FCF72FFE00
:1037C000E7E7019800280ED002980CAB6843801DF3
:1037D00081B22A46079809F057FD0CAA29463320E2
:1037E000FFF79EFC0AE00798009002982B4668437A
:1037F000801CC2B22188022000F040FB0298401CCD
:1038000080B20290B842BAD33820484F064207D05F
:103810006946A089898A00E077E0884204D86EE092
:103820006846808AB8426AD02069410606D5F1060A
:1038300004D401218902084320616CE02188202200
:10384000002009F061FD050011D00521F2070120DB
:10385000C902002A0DD06A4611800490908A3B4626
:10386000401C82B22946204609F042FF37E045203D
:1038700001E7B20713D5207901280ED01020A268E5
:103880000290019200916846808A3B46401C82B2B9
:103890002946204609F09DFE21E00220EFE771074E
:1038A00001D5234A04E00399890F0DD0204A521C08
:1038B00069460A800490888AA389401C82B22946FE
:1038C000204609F050FF0AE0B0060AD56846808A13
:1038D000A389401C82B22946204609F0BDFE642817
:1038E00008D0284600F0C0FD22883046079900F035
:1038F00078FB10E00021284609F062FDB7E7228836
:103900003046079900F06DFB00E76846027E21888B
:10391000022000F031FB0121E06909F051FD002097
:10392000E061A8E600C0FFFF8C760510FFFF0000F5
:1039300002280000F0B58BB00D4604460020694611
:1039400008710490E669002E16D0A806800F03D0F7
:103950002088FFF76DFC049001AB31462046049AA5
:10396000FFF78AFD412865D0E80708D02188324654
:10397000022000F049FA5DE041200BB0F0BD68077D
:1039800005D521883246022000F004FA52E0A8074B
:1039900039D5F0886188814205D9218832460220D4
:1039A00000F042F946E02069410604D50121890270
:1039B0000843206180E021882022002009F0A4FC37
:1039C00005001ED021883246022000F02DF9A068A3
:1039D000801C00F001FB6188401E401886B2A06880
:1039E00000F0FAFA024633462946204609F05CFE0A
:1039F000284600F039FDA0683146801C00F0E8FA46
:103A000054E04520B9E7E80614D5F088412702289C
:103A10000ED9B168801E4D7B80B2854201D901204C
:103A200016E0002D04D02946FCF72AFC00290FD00F
:103A30006846077101202169400381432161049890
:103A400000282DD001AA01213120FFF769FB2DE0CC
:103A500002900220002703901EE0049800280DD059
:103A6000039805AB001D81B22A46304609F00CFCD4
:103A700005AA29463320FFF753FB07E00398009679
:103A8000C2B22B462188022000F0F8F903984019B1
:103A900080B27F1CBFB2039002988742DDD3C9E792
:103AA000684602792188022000F066FA0121E06967
:103AB00009F086FC0020E06100205EE7FFB581B0E0
:103AC0001F4606464625FFF7ADFC040020D0202205
:103AD0003146002009F018FC060018D00146009776
:103AE0002046039B029A09F079FE050004D00021CC
:103AF000304609F065FC0BE00121206949030843C9
:103B000020610548A061304600F0AEFC00E064256D
:103B1000284605B0F0BD00001D3B041010B5602123
:103B2000FFF708FF10BD10B51C4613462246FFF7ED
:103B3000C5FF10BDF7B5064690790321401EC5B2FA
:103B4000E81C0843401C8308174817460068F10624
:103B500003D52922BF210E4008E03921490141182F
:103B6000097CC90601D40020FEBD26223107890E3A
:103B700008180121C9024018C06C31460FF086FCBC
:103B800004000FD00198A080A808A07123462A46FF
:103B900005213846083309F077FB214630460FF0FF
:103BA00061FCE0E70720FEBD38180020F7B50646A7
:103BB00090790321801EC5B2E81C0843401C83088D
:103BC000184817460068F10603D52822BF210E4089
:103BD00008E0392149014118097C090701D4002076
:103BE000FEBD25223107890E08180121C90240189F
:103BF000C06C31460FF04AFC040011D00198A0803F
:103C0000B8682346407BA071E5712A4606213846F4
:103C1000083309F039FB214630460FF023FCDEE77C
:103C20000720FEBD38180020F7B50646907903211D
:103C3000401EC5B2E81C0843401C830816481746BE
:103C40000068F10603D52C22BF210E4008E039217F
:103C500049014118097C090601D40020FEBD292232
:103C60003107890E08180121C9024018C06C31467D
:103C70000FF00CFC04000DD00198A080A5712A461D
:103C800005213846E31D09F0FFFA214630460FF0C2
:103C9000E9FBE2E70720FEBD38180020F7B506462D
:103CA00090790321801EC5B2E81C0843401C83089C
:103CB000184817460068F10603D52E22BF210E4092
:103CC00008E0392149014118497C890701D40020C5
:103CD000FEBD2B223107890E08180121C9024018A8
:103CE000C06C31460FF0D2FB040011D00198A080C7
:103CF000B8682346407BA071E5712A460621384604
:103D0000083309F0C1FA214630460FF0ABFBDEE77D
:103D10000720FEBD38180020F7B50646907903212C
:103D2000801EC5B2281D0843401C8308184817464A
:103D30000068F10603D52A22BF210E4008E0392190
:103D400049014118097C890601D40020FEBD2722C3
:103D50003107890E08180121C9024018C06C31468C
:103D60000FF094FB040011D00198A080B86823469E
:103D7000407BA071E5712A4606213846083309F0D8
:103D800083FA214630460FF06DFBDEE70720FEBDCB
:103D900038180020F7B5064690790321401EC5B2B9
:103DA000E81C0843401C8308164817460068F106C3
:103DB00003D52D22BF210E4006E0392149014118CB
:103DC000497CC90719D02A223107890E0818012118
:103DD000C9024018C06C31460FF058FB04000ED0E9
:103DE0000198A080A5712A4605213846E31D09F0F7
:103DF0004BFA214630460FF035FB0020FEBD072070
:103E0000FEBD000038180020F7B506469079032162
:103E1000401EC5B2E81C0843401C830816481746DC
:103E20000068F10603D52B22BF210E4008E039219E
:103E300049014118097C490601D40020FEBD282211
:103E40003107890E08180121C9024018C06C31469B
:103E50000FF01CFB04000DD00198A080A5712A462C
:103E600005213846E31D09F00FFA214630460FF0D0
:103E7000F9FAE2E70720FEBD38180020FFB59B1EC7
:103E80000646DDB2681D03210843401C83081B4819
:103E900081B000681746F10603D53622BF210E40D7
:103EA00009E0392149014118897C890702D40020A1
:103EB00005B0F0BD33223107890E08180121C9026F
:103EC0004018C06C31460FF0E1FA040014D002989B
:103ED000A0800A98234680682A460830C0190079D5
:103EE000E0802572B91D09330A9809F0CDF9214601
:103EF00030460FF0B7FADAE70720D9E73818002084
:103F0000F8B5044690680F4601461546467B0E31CB
:103F100002226846FCF77BFAA8680223057C154854
:103F2000E10603D53522BF210C4009E039220168A2
:103F300052018918497C090601D40020F8BD3222BB
:103F400021070068890E08180121C9024018C06CB9
:103F500021460FF09BFA010009D08F808E716A46CE
:103F600012880A818D7220460FF07CFAE5E707205F
:103F7000F8BD00003818002070B50E460123044635
:103F8000C10612481546006803D53422BF210C40F3
:103F900006E0392149014118897CC90711D0312235
:103FA0002107890E08180121C9024018C06C21465A
:103FB0000FF06CFA010006D08E808D7120460FF054
:103FC00051FA002070BD072070BD00003818002095
:103FD0000170090A41707047017840780002084377
:103FE0007047134610B50207920F05D00A461946CE
:103FF0000220FFF791FE10BD820605D50A4619463C
:104000000220FFF7D3FD10BD820705D50A461946E9
:104010000220FFF78FFD10BDC007FCD00A461946ED
:104020000220FFF73BFE10BDF8B5069C1F46154663
:104030000646002C13D0A06802220D30FCF7E7F9E9
:10404000E81E82B23B460721204609F00DFAE580C2
:10405000A068012E05D01D2101730020F8BD472066
:10406000F8BD1B21F8E70000F1B5FFB001248BB0CB
:10407000600205900027CC4807970168CB48C94DDE
:10408000081803908A980AAA0005000D05A90BF0EC
:1040900057FD0690002872D104260AA805994218F7
:1040A000203AD27F0B2A23D00026002004900AA8B1
:1040B0008119022201A80291FCF7A9F968468188BA
:1040C00009AB08AA039801F033FC012817D0022895
:1040D0007ED068468088854200D30546844200D958
:1040E0002046044602988078012872D013363CE1BD
:1040F000491E761E36040591360CCFD1D5E70898B7
:104100000090002F66D10099022228310298FCF716
:1041100086F900281ED100982030017B0298807813
:10412000814217D1012808D1009802990222083053
:10413000C91CFCF774F9002815D002988078022871
:1041400008D10098029910220830C91CFCF767F9C1
:10415000002808D00098008DA84200D80546A0424B
:1041600000D22046044602990AA88978012907D07E
:1041700013360599B6B28E4204D3012707E006E153
:10418000761DF6E78119022201A8FCF740F9039990
:10419000009808318E462FE084466946026A8B8873
:1041A00020300DE0918B994203D3012F7ED19942AB
:1041B0007CD9A94200D80D46A14200D30C46126812
:1041C0008242EFD10498002804D16046006802E0E2
:1041D00015E0BFE08AE070450ED0018D994203D30F
:1041E000012F09D1994207D98D4200D30D468C4247
:1041F00000D80C46012F59D17045CDD1BAE00898AE
:104200000090002F72D1009902221C310298FCF715
:1042100006F900281ED100982030C17802988078D5
:10422000814217D1012808D1009802990222083052
:10423000C91CFCF7F4F800281AD0029880780228EC
:1042400008D10098029910220830C91CFCF7E7F841
:1042500000280DD00098808BA84200D80546A042C7
:1042600000D22046044602988078012826D003E038
:1042700002988078012805D013360798B6B2012835
:104280001ED021E000984A490089884216D18A98B8
:10429000FFF7D4F80146009800F08CF80099098CDB
:1042A0004843009989694018022200E038E00299E9
:1042B000491DFCF7ACF801200790D4E7761DDCE738
:1042C000B61C0020B6B207900598864201D301279C
:1042D00005E00AA88119022201A8FCF798F8039AC0
:1042E0000099083209980968944630E01AE0864639
:1042F0006A46938820300DE08A8B9A4203D3012FBF
:104300000ED19A420CD9AA4200D81546A24200D337
:10431000144609688142EFD1049800282AD102E0AE
:104320000120049026E07046006860450FD0028DA1
:10433000016A9A4203D3012F09D19A4207D99542C3
:1043400000D31546944200D81446012FE8D16045A9
:10435000CDD10FE00298C078022805D102980079EB
:10436000292801D1B61CB6B2761D0598B6B2864290
:1043700000D301270598811B042902D3864200D26D
:1043800093E604980028FBD1A54203D906987FB094
:104390000CB0F0BD224629468A9801F00FFB06902A
:1043A000F5E70000FFFF0000381800206407000058
:1043B0000229000030B5024623239B5C0020012B1C
:1043C0001AD112890D4B9A4216D10D4A092312684F
:1043D0001B02D318A032DB6E127B0AE045010C8869
:1043E0005D5B24052D05240D2D0DAC4204D0401C31
:1043F000C0B28242F2D8002030BD00000229000085
:104400003818002006490922096812028918800814
:10441000C96E400108180188002900D100207047AA
:104420003818002010B50446022000F033F80D487B
:1044300000210268092000021018A032C36E107B10
:1044400005E04A019A5A002A04D0491CC9B28842A0
:10445000F7D810BD48011C52C018026904210A4354
:10446000026110BD3818002010B504460146042032
:1044700002F0F2FC002808D0044805490068401802
:1044800021463C300FF064FE432010BD3818002058
:104490006407000004490A683D21490151180A7B5C
:1044A00002430A73704700003818002000B5113825
:1044B000C0B2FFF7A7FF002804D00122016952050E
:1044C0001143016100BD0000F3B597B00D88488825
:1044D0000590081D1DC80DAE1DC68C8ACE8A087EAB
:1044E0001390C869203101900878009048780490B2
:1044F00088780390C87802900F7900F04BFD00286F
:1045000017D10120400284425FD8B4425DD8002F09
:1045100001D1B44259D114A9284601F037FA002834
:1045200006D115AA1499059801F020FA002802D0A6
:10453000602019B0F0BD149D11A92846183009F06B
:1045400081FB10A88088002810D0284612A92030AE
:1045500009F078FB10A8838800892A8D1818696AE9
:1045600010188A8B904203D16120E2E74820E0E7EF
:1045700015982C4B02899A4227D12322125C012ADA
:1045800023D1006800681690139801281FD168464F
:10459000808E29221202801A030001F008FD060411
:1045A000180404070A18022C0FD110E0072C0CD1B4
:1045B0000DE0042C09D3E00707D1012F07D1A64253
:1045C00003D3042E01D3F00701D04220B1E70298B3
:1045D0000B90039B049A0A9309920098019A0C97F6
:1045E00008900696059407920DA81DC8019002A890
:1045F0001CC013980B4600902A461699179800F095
:10460000B1F9002895D168460649808EFF3188426D
:1046100005D01798018800200A4601F0CFF9002044
:1046200087E7000003280000F3B5A5B008881A90BA
:1046300088780C4611901022091D13A8FCF796FAF1
:10464000A08A1090A17D68460172E07D0F90207EC7
:104650002090677EA07E1F900020064601461290A3
:1046600020A801810F20BB4C2390BB492068401833
:10467000199000F08FFC00280BD1012110984902FD
:1046800088425FD821A91A9801F080F9002802D049
:10469000602027B0F0BD2198179009F077FA1A9999
:1046A00088420CD102A801901698009013AD0ECD4F
:1046B000119809F02FFA002801D06320E9E7684635
:1046C000017A8806800F05D0012012902068A03062
:1046D000007B4600C80703D01298401CB61C1290FD
:1046E000080603D51298401CB61C129017980DA905
:1046F00018301D9009F0A6FA6846129C808EA41C02
:10470000A04237D317980EA92030019009F09AFAE9
:104710006846018F00290DD01798179A6B46406A9A
:104720009B8E128D5918808B5118081AA04201D205
:104730006120AEE71798846911982568012803D095
:10474000022803D04220A4E7052000E01320E083E4
:104750002A4639460F9809F02BFA422899D0199F1A
:10476000E28B4037788B398B411A109810188019DA
:10477000814201DA48208CE70EA9019809F062FA1B
:104780006846008F0028179802D0406A808B00E0AE
:10479000008D2599401C0880259801210088A08360
:1047A000259802220088401CA8836C48208120465E
:1047B00020301790C1700021817081711998398B58
:1047C000406D40186946A061097A0170A0692946C8
:1047D0001C31401CFBF71BFE11980128A0697DD0FD
:1047E000102213A9C01CFBF712FE2846102213A9A1
:1047F0000830FBF70CFE388B133038832E462036FA
:104800001198F0701098E8831F98B0701098208469
:10481000109828841998398B406D4018A8610021A0
:10482000109AFBF7F8FD398B109808183883179900
:104830000120087117990020487130716846007A8C
:10484000810701D50121317101070227002902DA10
:10485000317939433171410703D53179042211434C
:104860003171400603D530790821084330710F9823
:1048700070712098B07121461D9809F00CFA2146FC
:10488000019809F0E9F929461D9809F004FA29462A
:10489000019809F0E1F91298002841D068461A9968
:1048A0008181A18BC18107844784012408A80471F8
:1048B00022A80A9008A88473239941730F9938207D
:1048C000014008A801730721C173002505746846DB
:1048D000007AC00708D02248694600E02BE0088231
:1048E00003A924A8FFF7F0FD6846007A8006800F30
:1048F00007D01B486946401E088203A924A8FFF779
:10490000E3FD6846007A00060AD5292109026846B7
:10491000018208A84473057303A924A8FFF7D4FDF6
:10492000259801881298401C081882B2002001F0D6
:1049300045F80020ADE6022213A9C01CFBF767FD75
:104940002846022213A90830FBF761FD388B401D71
:1049500053E7000038180020640700000328000017
:1049600003290000FFB55248524A006887B08218F8
:10497000069210AA109B0126169F9288012B04D143
:104980004D4B9A4201D1A030067B069D34464035FE
:10499000688B2B8B7C43C31A099820300390A34269
:1049A00022DA48200BB0F0BD2320405C012819D149
:1049B00008896C46208098420CD03F4C641EA0426F
:1049C00008D0641CA04205D0641CA04202D0A41CE4
:1049D000A04207D1384CFF3CA04201D0904201D107
:1049E0006220DFE7096801E029231B020398814266
:1049F000DAD109981B9984691898224609F0D8F8E9
:104A00004228CFD01C98012804D11598874201D2A2
:104A10004220C7E71598E083204620301C99059076
:104A2000817027840A98808B401CA08310980128ED
:104A300014D02046102211A90830FBF7E8FC059994
:104A40001098C8700698298B406D4018A061298B7A
:104A5000384670430818288300250FE011A80FC8B6
:104A600008340FC4183CEAE72846A16978430818BF
:104A7000159A1799FBF7CBFC6D1CEDB2B542F3D339
:104A800005991898487105991998087105991A9807
:104A9000887109982146183009F0FDF821460398DD
:104AA00009F0DAF80798A18B018000207AE700006E
:104AB000381800206407000002290000FFB58FB0FD
:104AC00014460E78102205A8891CFCF74FF84F48B1
:104AD0004F490068451800F05DFA00281ED1002CEF
:104AE00057D0012E09D16846808A4A49884204D1AC
:104AF0002846A968083081424BD1284610302969E0
:104B00000390814209D00AA9284609F09BF868461B
:104B1000018D601E0D90814202D2482013B0F0BD7D
:104B2000284608300CA9049009F08CF86846008EDD
:104B3000002814D0EF680AA93846183009F082F826
:104B4000384620300CA909F07DF86846398D008D73
:104B500009186846008E401C081887B200E001273B
:104B600001200004C01BA04201D26120D6E72C69BD
:104B7000286801901298012802D0022803D008E08A
:104B80000520C00200E024486085012E03D0022EDB
:104B900005D04220C2E720460830022202E020462B
:104BA0000830102205A9FBF732FC204631462030A0
:104BB000064601730F98214607802785039809F060
:104BC0006AF82146049809F047F827461837E76144
:104BD0006662A76126620D9884B20BE028460199AF
:104BE00009F059F83846019909F036F82868641E2A
:104BF000A4B20190002CF1D10F9801880D980818EB
:104C000082B2002000F0DAFE002087E7381800208A
:104C1000640700000118000001280000024608484F
:104C20000849006841188868083103E0038D934201
:104C300002D200688842F9D1884200D10020704732
:104C40003818002064070000034610B50E480F49CD
:104C5000006841188868083103E0148D9C4203D82D
:104C6000104602688A42F8D18A420CD1018D9942DD
:104C700009D20146026A20318A4203D0416A898BF7
:104C8000994200D2002010BD3818002064070000AF
:104C9000024610B50B4812050168092000020818E9
:104CA000C36E0020120DA031097B07E044011C5B9C
:104CB0002405240D944203D0401CC0B28142F5D893
:104CC00010BD000038180020F7B5054617460198BA
:104CD0000FF00EFA2E050446360D0CE0A08825686C
:104CE000B04207D1214601980FF04FFA39462046CD
:104CF00008F066FB2C46002CF0D1FEBDF0B58BB061
:104D000000206349029063480A68141872B610467E
:104D10004030C57902231D43C57162B62546403532
:104D2000287AC0077DD00920000210180026C76E1F
:104D300049E071017A5A002A43D0C91906910969DC
:104D40004A021ED48A0226D5022104910699012323
:104D500009880905090D0391392149014118097C88
:104D600089070ED5D902083040182322C06C0221D1
:104D70000EF08CFB010004D0039A8A8004980EF098
:104D800071FB069800880090069800F085F800985E
:104D90000DF03CF915E0480713D50698008800058A
:104DA000000D0DF0C5F8002805D106980088000513
:104DB000000DFFF759F90699042009698143069807
:104DC0000161761CF6B23248AC210068095CB14240
:104DD000AFD800F01BFF2046243006460FF0CEF976
:104DE000012802D0012000F015FE204618300FF0F7
:104DF000C5F9012802D0002000F00CFE3C3420460A
:104E00000FF0BCF901280FD002A920460FF0DFF9FE
:104E10000420029902F020F80028F0D020460299E0
:104E200000E032E00FF081F9287A00062DD53046F7
:104E30000FF0A4F9012828D1002008F041FAA98B2D
:104E400023314909491CC9B2FBF71AFA00281CD0C2
:104E50000F4D044628680123D90208304018422625
:104E60003822C06C31460EF011FB01000DD000223B
:104E70008A80CC8030460EF0F5FA3D212A6849013F
:104E800051180A7B802082430A730BB0F0BD0000EA
:104E90003818002064070000F0B504463B483C4940
:104EA000006885B04518218A890419D5022104912A
:104EB000392149014118897C412627880123C907E6
:104EC0000ED0D902083040183122C06C02210EF0F9
:104ED000DDFA010004D08F808E7104980EF0C2FAC2
:104EE0002946208801221831FFF7EEFE2946208846
:104EF00001223031FFF7E8FE2946208801222431C3
:104F0000FFF7E2FE2946208800223C31FFF7DCFE55
:104F100020880005000DFFF7BBFE850029461131F2
:104F20006846017301F072FD29461231684601732B
:104F300001F06CFD294613316846017301F066FDEE
:104F400068461435057301F061FD208800F03CFAD5
:104F5000208801050D48090D02681320C0011018B2
:104F6000028A914201D100210182E069002802D029
:104F7000012108F025FA202200212046A568FBF730
:104F80004AFA1720A560608005B0F0BD38180020EF
:104F90006407000010B50B480B4900684418403402
:104FA000207AC00709D0002008F08AF9217A890701
:104FB00001D5002803D0002010BD472010BD64207B
:104FC00010BD00003818002064070000F0B55FA095
:104FD00099B000685E4915905E4A086884180922F5
:104FE00012028218D26E2546403514922A7AD207D0
:104FF00002D0622019B0F0BDAA8B01235B029A4255
:1050000001D9AB8303E0172A01D21722AA83149A8D
:10501000A0301392067B0DE0761EF6B21398710154
:105020000F18B8680F90384620220021FBF7F3F9DB
:105030000F98B860002EEFD120460830E060646021
:10504000A06024600830139060612061FF2200217D
:1050500008300FF062F82046FF22002124300FF0C4
:105060005CF82046AA7F002130300FF056F8204629
:10507000FF2200213C300FF050F800222A72104627
:105080001721334B05E0149E4701BE19401C718067
:10509000C0B21E68A036367B8642F4D80020288332
:1050A0002F8C688C0026149008E02820E16C704357
:1050B0000918204608F0D0FD761CB6B2BE42F4D3E3
:1050C000002608E03020216D70430918139808F07D
:1050D000C3FD761CB6B214988642F3D30120FFF7C5
:1050E000D9F90124684604701B49418023460422F3
:1050F00069460CA8FFF7E2FC002822D16846018E21
:10510000818216490183042606858475202108A81A
:1051100081720024C472047307214173847305A94A
:105120000DA8FFF781FA00280BD16846048746874F
:10513000818E15AB0EAA008E00F0FEF9002800D17A
:1051400058E700202872472054E700000000FFFFC6
:10515000381800206407000001180000052A00002C
:10516000F8B5044683480E4600688349471848202E
:10517000C05DC0076FD0B088FEF760F90546012C0E
:1051800002D0002C68D0F3E0002D04D0286941073C
:1051900003D54520F8BD0121C7E0B268F188147B32
:1051A0000029F0D062060AD568888842F3D3D22C51
:1051B00001D0522CEFD138463146183048E0A106D4
:1051C000890E1E2949D81E2C20D101071ED5082181
:1051D000884328612988012008F026FD01213046F6
:1051E00008F0EEF8634801230068D902083040183F
:1051F00042242D883922C06C21460EF047F9010067
:1052000003D08D8020460EF02DF9B1E0E1070BD0E0
:105210001D2C1AD01B2C18D0410533D40121890232
:105220000843EE612861A3E0C00606D52B460222A2
:105230000321422000F07EFEADE72988002008F01F
:10524000E1FC2969102001432961384631462430A8
:105250000EF07EFF8CE015E016E029882022002069
:1052600008F052F805000DD00121304608F0A8F8EA
:105270002B460022214606200FF05AFB2846FFF756
:10528000F3F875E04120F8BDB068047B1D2C3CD0DC
:105290001B2C43D00021304608F092F8002D67D037
:1052A000032C46D0052C44D0072C42D0092C40D0EA
:1052B0000B2C3ED00D2C3CD00F2C3AD0112C38D0DA
:1052C000132C36D0172C34D0192C32D0012C30D0DE
:1052D000022C35D0042C33D0062C31D0082C2FD002
:1052E0000A2C2DD00C2C2BD00E2C29D0102C27D0F2
:1052F000122C25D0162C23D0182C21D0522C1FD0A4
:10530000D22C1DD01E2C2FD032E0002D03D02988A6
:10531000012008F077FC3146022001E031460120EF
:1053200000F052FD002823D00021304608F048F854
:105330001EE029691020814329612988002015E099
:105340002869402188432861010511D5FF210131D9
:10535000084328612988022008F054FC01202969AB
:10536000C0028143296103E02988032008F05CFC26
:105370000020F8BD381800206407000010B5104A5E
:10538000104B1268D2184032127AD20706D0022887
:105390000AD0052804D00B2810D101E0412010BD0F
:1053A0004888FFF73FF809E04888FEF747F80028EB
:1053B00004D001220169920511430161002010BD52
:1053C0003818002064070000F1B5FFB085B0472011
:1053D00001900020694608805348544900684718E6
:1053E0008498FEF72BF80290002874D0B96808372B
:1053F0004FE0684600880D4604AC20186B46022238
:10540000283100F0C5FD68460088294620186B4603
:1054100001222C3100F0BCFD2E462036307B69463F
:105420000128098804A809D040186B461022294693
:10543000083100F0ADFD01902C6A27E040186B4662
:105440000222F4E76946098804A8401821466B4601
:1054500002221C3100F09CFD6946098804A840180E
:1054600021466B460122233100F092FD2320005D8E
:1054700069460128098804A830D0401821466B46A7
:105480001022083100F084FD01902468B442D9D183
:105490002968B942ADD1019800281CD1684600881E
:1054A00081070AD0224A011D11406A4611800A1A5A
:1054B00004A908180B21FAF7AEFF029800880CF037
:1054C00037FD002807D1849869460005000D04AA1D
:1054D00009880AF06DFA7FB006B0F0BD4018214689
:1054E0006B460222083100F053FD019020891149DA
:1054F0008842CAD120460299FEF75CFF4000A169AC
:1055000003906A460918128804A880186B46022284
:1055100000F03EFD0190A1690398022208180021C5
:10552000FAF779FFB1E7000038180020640700009F
:10553000FCFF000002290000F0B5074617480E46A0
:1055400000683D2149014018007B85B01D46144686
:10555000C00706D003A9384600F018FA00280AD17F
:1055600002E0472005B0F0BD04AA3046039900F0E0
:10557000FDF9002801D06020F4E7049922886088B2
:105580000968002A00D0088C32466E4631C60323D3
:105590003946002000F004F8E4E700003818002045
:1055A000FFB5002099B0239A0B90129005461490F5
:1055B000064615901C46DB480B460068DA49229FD8
:1055C0004118039100210891099151880691118891
:1055D0000A913D2149014018007BC00706D00FA960
:1055E000184600F0D3F900280AD102E047201DB088
:1055F000F0BD10AA0F991B9800F0B8F9002801D04F
:105600006020F4E71998002803D0600701D5012035
:1056100000E000201390A007800F1C9010981790B6
:105620002030C078012840D11798C04B0189994299
:10563000F9D11798069904680A98228C411891426A
:1056400033D82046203016908078012816D0E08B81
:1056500004901798806900788006800F7ED00398A8
:1056600040301890007A800778D51C980028F5D033
:10567000AE4F0F99FF372031206814E0BA4214D39F
:10568000B942DDD80497E4E70389A84A934203D1DD
:105690002322125C012A08D0BB4203D12322125CD0
:1056A000012A03D000688842EED134E10590002839
:1056B000FBD09C480921026809025118C96E0027D5
:1056C000009162E0780100990390085A01055AD0D0
:1056D0001999002901D0884255D105997A008B6922
:1056E000511C595C9A5C0902891889B20D9189078D
:1056F00049D0022205990FF099F9002804D0199891
:10570000002840D0652072E7002008A9C8551C98E1
:10571000C00718D0179880690078C00613D50D9877
:10572000C00710D00120C8550543009A039880187F
:105730004088159A904206D91590009A0398105AFD
:105740000005000D14901C9880071CD517988069DF
:105750000078800617D50D98800700E083E012D509
:105760000220CA5D05430243CA55009903984018B8
:1057700040881599884206D9159000990398085ACF
:105780000005000D14907F1CFFB266480068A03031
:10579000037BBB4296D8002D65D01898007A00068E
:1057A0005FD460480168092000020818C16E00201B
:1057B0001BE042018E5A360515D0AE070BD55618A0
:1057C0003669B7070DD408AF3F5CBF0703D536076E
:1057D00001D546200BE7EE0705D05218127CD20700
:1057E00001D0432003E7401CC0B28342E1D81598A2
:1057F000C01E86B20498864200D90646A8070FD577
:1058000020220020149907F07FFD129000287DD0FF
:10581000F01C82B20021129800F0F4F8002811D197
:10582000E80720D020220020149907F06DFD0B908E
:10583000002807D0F01C82B200210B9800F0E2F89B
:10584000002810D08020FEF725FE1298002802D0F4
:10585000002107F0B5FD0B98002802D0002107F0C9
:10586000AFFD6420C3E6A1690A98069A0818249936
:10587000FAF7CDFD16988078012801D10498E083CD
:10588000002D46D0274B0920196800020818C16E68
:10589000002008AA0CE04301CF5A3F0506D05F184C
:1058A000BC463B69175C3B4367463B61401CC0B24A
:1058B0001C4B1B68A0331B7B8342ECD8A8070DD57B
:1058C00012980090F01C82B221461C310220A3697C
:1058D000FEF7AAFB0220129900F076FAE80718D02A
:1058E0000B980090F61C2146B2B21C310120A3692E
:1058F000FEF79AFB1398002805D00B988021C07CF6
:1059000008430B99C87401200B9900E005E000F0F2
:105910005BFA00206BE6422069E68020FEF7BAFDC4
:105920009FE70000381800206407000003280000EB
:10593000F0B58468083015E0258D8D4203D11460E0
:1059400018600120F0BD26461C602036256A06E05E
:10595000AF8B8F4202D102201560F0BD2D68B54299
:10596000F6D124688442E7D10020F0BD10B50B6A5F
:10597000203106E09C8B844202D10020136010BDD0
:105980001B688B42F6D1412010BD000010B5094ABA
:10599000094B1268D2189368083206E01C8D8442C5
:1059A00002D100200B6010BD1B689342F6D141204C
:1059B00010BD0000381800206407000030B50F4B00
:1059C0000F4D1B6804465B1940331B7A412085B09C
:1059D0009B0710D56B469981DA810020188204203C
:1059E000588203AA04A96D4607C502231A4601215D
:1059F0002046FFF7D5FD05B030BD00003818002067
:105A00006407000010B5121D806892B207F0F6FC22
:105A100010BD0000F0B57B497B4A096885B08E183F
:105A2000012806D03046183000900EF061FB044685
:105A3000E5E03046243003900EF05AFB0546BAE00C
:105A4000A8682F68007B0290A888FDF7F7FC040087
:105A500073D021882022002007F056FC01900028F6
:105A60006CD0E8886188884204D900220420019B18
:105A7000029920E04620009002980E284ED00ADCC1
:105A8000801E030000F093FA0B1C13221329132F1E
:105A900013381341130016285AD004DC102846D0BE
:105AA000122804D14BE018285BD01D2872D00022A8
:105AB0000620019B02990EF03BFF002000905CE065
:105AC00029462046019A0FF03FF84FE02A4621462A
:105AD0003046019B0FF06AFA48E029462046019AB9
