:020000041004E6
:1000000000600020210F04109712041099120410B0
:10001000AA5555AA45554C420000000000000000BA
:100020000000000000000000000000009B1204100F
:100030000000000000000000750D04109D12041067
:10004000A5120410770D041000000000000000004D
:10005000F9120410790D041001130410850D041019
:100060000000000000000000000000000000000090
:1000700000000000870D0410890D04108B0D041082
:10008000000000007B0D04107D0D04107F0D041096
:10009000810D0410830D0410730D04108D0D0410D8
:1000A0000000000000000000000000000000000050
:1000B0000000000000000000000000000000000040
:1000C000EFF31482EFF309811C4880F31488BFF327
:1000D0006F8FF0B543464C4655465E466746F8B4CA
:1000E000174CEFF30883236006B4164C2068164CB7
:1000F0002060164C2068164C2060164C2068164C68
:100100002060164C276800202060BFF34F8F30BF5F
:1001100027600B4C246884F3088882B003BCF8BCC9
:100120009846A146AA46B346BC46F0BC04BC80F340
:10013000098881F31488BFF36F8F10470000000017
:100140000800002004ED00E07817002024ED00E016
:100150007417002000E200E07C1700200800204017
:1001600003B47146490840004900095E49008E44C5
:1001700003BC7047002243088B4274D303098B42AF
:100180005FD3030A8B4244D3030B8B4228D3030C67
:100190008B420DD3FF22090212BA030C8B4202D309
:1001A0001212090265D0030B8B4219D300E0090A31
:1001B000C30B8B4201D3CB03C01A5241830B8B423A
:1001C00001D38B03C01A5241430B8B4201D34B0323
:1001D000C01A5241030B8B4201D30B03C01A524188
:1001E000C30A8B4201D3CB02C01A5241830A8B420D
:1001F00001D38B02C01A5241430A8B4201D34B02F6
:10020000C01A5241030A8B4201D30B02C01A524159
:10021000CDD2C3098B4201D3CB01C01A524183090D
:100220008B4201D38B01C01A524143098B4201D347
:100230004B01C01A524103098B4201D30B01C01A72
:100240005241C3088B4201D3CB00C01A52418308EC
:100250008B4201D38B00C01A524143088B4201D319
:100260004B00C01A5241411A00D201465241104679
:100270007047FFE701B5002000F006F802BDC04658
:100280000029F7D076E770477047C0464378027878
:100290001B021A438378C0781B04134300061843DB
:1002A0007047C046030A4B7003021B0E8B70030E8F
:1002B0000870CB707047C04603005A78007812026D
:1002C00002439878197900040243D8780006104355
:1002D0005A7912020A43997909040A43D97909061D
:1002E00011437047030A5370030C9370030ED370CD
:1002F0000B0A53710B021B0E93710B0E10701171D0
:10030000D3717047024A1368013313607047C046C7
:1003100010030020C021074A074B08485360036AB6
:1003200009061B021B0A0B43036200239360073379
:100330001360704710E000E0FE7C000000ED00E07C
:10034000014B18687047C04610030020034A11682B
:1003500013685B1A8342FBD37047C046100300202A
:1003600010B541600400FFF7EBFF206010BD10B531
:100370000400FFF7E5FF2368C31A60680133984261
:100380008041404210BD0000124AD3691B061B0F7A
:100390004370D9B2D369104A1B071B0F83700F4BF0
:1003A0001B684360934212D10D4B1A680D4B9A4261
:1003B0000BD104230370002901D1012343700A4BA0
:1003C0009B8A01339B00836070470223F2E701237D
:1003D000F0E7C0460000904041A000022800904095
:1003E0001C00001044A000F200001040F0B507000F
:1003F00085B001AC0E0020001500FFF7C5FF237883
:100400003B7063783370A3782B7005B0F0BD10B5E6
:1004100001F058FA10BD10B501F070FA10BD10B51A
:1004200001F042FA10BD0000024A138ADB07FCD536
:100430007047C04600001040084B10B51A68084BC2
:100440009A4209D13F22074B40061A81000C2E3AEE
:1004500098611A80FFF7E8FF10BDC0461400002025
:10046000CCBCECFC00001040084B10B51A68084BDF
:100470009A4209D13F22074B80081A810C3A9861B1
:1004800019641A80FFF7D0FF10BDC0461400002089
:10049000CCBCECFC00001040F7B503790168019377
:1004A000002B2BD18022D20553688B4353608022CE
:1004B00000240F27D2050B000125E3402B420BD06F
:1004C000E6B2A300072C24D83D009D40D66AAE4377
:1004D000019D9D402E43D66201341A2CEBD180231E
:1004E0004279DB05012A3DD1DA680A43DA60827974
:1004F000012A3AD19A6811439960F7BD019B062BF6
:10050000D5D18022D20553680B4353600023019359
:10051000CDE708256D42AC46B4446546072D09D8A1
:100520003D00203B9D40166BAE43019D9D402E43F8
:100530001663D1E7103E072E09D83D00403B9D4091
:10054000566BAE43019D9D402E435663C4E73D006C
:10055000603B9D40168FAE43019D9D402E43B6B239
:100560001687B9E7DA688A43C0E79A688A439A60CF
:10057000C3E78023DB051B681840431E9841C0B2C7
:1005800070478023DB05986270478023DB055B6A38
:100590001840431E9841C0B270470200202330B576
:1005A000013BD55CCC5C281BA54201D1002BF7D1C7
:1005B00030BDC02380211B061A680A431A601A68DE
:1005C0008A431A607047C02301211B061A680A4338
:1005D0001A601A688A431A607047C0231B0618689D
:1005E0008007C00F70470000054B01201B78002BCF
:1005F00004D1044B1868431E9841C0B27047C046EE
:1006000014030020000400C070B5294E90B004000F
:1006100020220D006846310001F054F931002022FB
:10062000203108A801F04EF9012C1AD108A92800A0
:10063000FFF7B3FF1F4904220B78002804DB1343A4
:100640000B70200010B070BD93430B701A4B1A0052
:10065000ED1A2032E95802C39A42FBD100241460FB
:10066000EFE7022C0FD169462800FFF796FF114AE9
:10067000013C1378002802DB23431370E1E7A34316
:1006800013700E4BE3E7032C10D169462800FFF7E7
:1006900084FF084902220B78002803DB13430B7008
:1006A000023CCEE793430B70054BD0E70124C8E72B
:1006B000706F0510140300206C0400C0900400C08B
:1006C000B40400C0030001280DD002280DD0012081
:1006D000032B07D1064A0023D05CC8540133202BDA
:1006E000FAD100207047034AF5E7034AF3E7C04612
:1006F000B40400C06C0400C0900400C0044B1A6A2B
:10070000012902D110431862704782431A62FBE745
:1007100000009040274B284A197A1289CBB292B236
:1007200000293CD109201040093843425841112387
:1007300040011340112B01D12F33184321231340C3
:10074000212B01D18023184341231340412B02D197
:1007500080235B00184381231340812B02D1802327
:100760009B00184302231100FF331940994202D124
:100770008023DB0018431100104B1940994202D12D
:1007800080231B01184305231340052B01D110239F
:100790001843D243930701D108231843704701201F
:1007A000022BFBD00220042BF8D0083B58425841C2
:1007B0008000F3E7000090400000104801040000B2
:1007C000054B0122196B002802D00A431A637047B7
:1007D00091431963FBE7C04600003040F8B54A4C2E
:1007E0000500236B01681B0700D56DE00901474830
:1007F000FFF7C0FCC3099AB2A284454ADB0101306D
:100800001340C31A5B089BB23F2B02D93F223F3BE8
:100810001340032760263F4ADBB213703E4B2A7910
:1008200018783A405201B04310431870012069799A
:10083000227F39404901B2430A432277AA791978C5
:100840000240BA400730814311431970217F814330
:100850000A432277EA79002A38D102211A788A439A
:100860001A70227F8A43012022772A7A216B160090
:10087000C2402A4F06407602394031432163216B42
:10088000274E0240314012020A432263697A226BEA
:100890000E00C140234F06403A40B6033243226364
:1008A000226B214E01403240C90311432163AA7AD1
:1008B000197802400F301201814311431970237FD0
:1008C00083431A432277F8BDC90090E7022A0CD16E
:1008D0000420197811431970197881431970217F08
:1008E0000A432277227F8243BDE702211A780A4316
:1008F0001A700422187810431870207F0143217762
:10090000217F0A43AFE7C046000030400000127A62
:1009100080FF7F00280030402C003040FFFDFFFFAB
:10092000FFFEFFFFFFBFFFFFFF7FFFFF024BC00582
:10093000C00D18807047C04600003040014B188839
:10094000C0B2704700003040054B002805DA5B68F4
:100950001840431E9841C0B270471B8BF8E7C04651
:1009600000003040034B9B8F1840431E9841C0B29B
:100970007047C046000030400721044A0840137801
:100980003131C0008B430343137070473400304053
:1009900010B5094C002801D0012805D000F0F4F86A
:1009A0000138C000205805E000F0EEF80138C00022
:1009B0002018406810BDC0462070051010B5040016
:1009C0002020FFF7C1FF0128FAD0A0B2FFF7AEFF49
:1009D00010BD000070B5012186B006000920FFF7A8
:1009E0008DFE00F0D1F81B4B01388000C358002564
:1009F000019300F0C9F8184B0138800001ACC358CE
:100A000020002371A5716571FFF746FD00F0BCF869
:100A1000124B01388000C358019300F0B5F8104A1A
:100A2000431E9B009B5820002371FFF735FD0D4BA3
:100A30006A46049303230124938203A894750396C2
:100A4000FFF7CCFE2800FFF797FF2000FFF7B8FE66
:100A500006B070BD1C7005101870051014700510DC
:100A60001070051003030000034B10B51B68002B2A
:100A700000D0984710BDC0461803002007B51020CD
:100A8000FFF770FF002809D107BDFFF757FF6B463E
:100A9000D871073301211800FFF7E6FF1020FFF798
:100AA00053FF0028F1D0EFE701000A4A0A4810B5C9
:100AB0001368046801209C4209D00848C05C0133D7
:100AC000087080210020C9008B4201D0136010BD46
:100AD0001060FCE7200700201C0700201C030020FA
:100AE000094A03001168002901D108491160106802
:100AF0000749C3188B4205D90C220120054B4042FF
:100B00001A6070471360FCE72417002024070020B8
:100B100024170020E0170020012040427047802366
:100B20009B0100204B6070470120704700207047F8
:100B300070B50E0014000025A54201DB200070BD39
:100B4000705DFFF73BFF0135F6E770B50E0015004D
:100B50000024AC4208D23019FFF7A6FF002801D1CB
:100B60000134F6E7002CF4D0200070BD10B500F081
:100B7000A9FE10BD10B500F0A5FE10BD0122014B6D
:100B80001A70704728170020014B1878C0B27047C0
:100B90002817002010B509F0A1FA10BD10B508F013
:100BA00055FE10BD10B509F05BF910BD7FB50BAE59
:100BB000368808AC09AD2D88248803960A9E0195D5
:100BC0000296009409F07CFB7FBD7FB508AC20CC79
:100BD0000AAE2478367801940296009509F0B0FAAE
:100BE00004B070BD10B502F09BFB10BD10B50AF04B
:100BF000FBFF10BD01207047F0B58DB012AC24781A
:100C000009930A9413AC248818AB1B880B9415AD78
:100C100014AC16AE17AF24882D8836883F8806930B
:100C20000B9B059701930A9B049600930395099BE0
:100C3000029401F085FE0DB0F0BD10B502F07CF914
:100C400010BD10B50DF0DCF910BD10B50AF090FE26
:100C500010BD10B50EF070F910BD10B502F036FBE6
:100C600010BD10B502F03AFB10BD10B506F05CFDEA
:100C700010BD10B510F084F810BD10B50FF0A4FD34
:100C800010BD10B510F004F910BD10B50FF0C3FD84
:100C900010BD10B508F0E2FA10BD10B508F0EEFA7C
:100CA00010BD10B508F0F6FA10BD10B509F060FCE3
:100CB00010BD10B506F00EFB10BD10B509F098FE82
:100CC00010BD10B509F0A4FC10BD10B509F0D2FD9F
:100CD00010BD0120704710B505F0D0FB10BD10B558
:100CE00012F03EF910BD10B512F00EF910BD10B59E
:100CF00012F0F2F810BD10B512F0CCFA10BD0120C0
:100D0000704710B512F04CFB10BD10B512F00EFB81
:100D100010BD10B510F074FD10BD10B510F08AFDB7
:100D200010BD10B510F004FE10BD10B510F0FAFCA7
:100D300010BD10B510F00EFD10BD10B510F02CFD5B
:100D400010BD10B510F08CFD10BD10B510F0A2FD57
:100D500010BD10B50FF094FD10BD10B50FF064FD7F
:100D600010BD10B510F054F910BD10B510F04CF8CE
:100D700010BD7047704770477047704770477047A5
:100D80007047704770477047704770477047000062
:100D9000002210B5104B995CC8B2002917D11C2A4B
:100DA00014D8212402319954511C5C54911C193CD3
:100DB0005C54D11C58549B18802290219BB2520243
:100DC0001343C905CB60CB681342FCD110BD995CBD
:100DD00001315218D2B2DEE729170020002330B5C6
:100DE0000E4AD15CCCB2002913D11C2B08D8352572
:100DF0000231D154591C5554991C03335054D454C6
:100E00000222074B1A7033325A7000229870DA703F
:100E100030BDD15C01315B18DBB2E2E7291700205D
:100E20001C00002080220E4B520230B59CB21100F3
:100E30001443002806D09023DB05DC60DA680A4200
:100E4000FCD130BD042598789978C0B2A943997037
:100E50009021C905CC60CC681442FCD19870F0E7B1
:100E60001C0000200123274A30B5117A03240B43CC
:100E700013720022244B85B01A60FFF74BFC6B46BF
:100E800058805A880233002A03D1013CE4B2002C76
:100E9000F3D11A881F2A32D91B885B0510D401A808
:100EA000FFF772FA6B465A799B7912011A43174B76
:100EB0001B681B0711D4112A02DD0120FFF7B2FFC6
:100EC0000122134B1A70FFF724F9BFF34F8F114B18
:100ED000114ADA60BFF34F8FFEE790250F4CED0506
:100EE00028692368283B1B1A1B02002BE8DD112A06
:100EF00002DD0120FFF796FF23686B60E0E7012029
:100F000005B030BD0000204014000020C0000020CB
:100F10000C00002000ED00E00400FA05180000209D
:100F200010B5FFF79FFF012813D1124A124B134946
:100F30008B4214D3124A134B13498B4212D3002114
:100F4000124B134A934210D30021124B124A934280
:100F50000DD3124B83F3088800F04EF910BD01CA7F
:100F600001C3E5E701CA01C3E7E702C3EAE702C339
:100F7000EDE7C0464C790510F0170020B0180020AE
:100F8000207905100800002034000020C000002057
:100F9000CC020020CC020020F017002000600020CE
:100FA00070B58AB003AC05000E0019222000434939
:100FB00000F088FC6846FFF7E7F9002D60D0442375
:100FC0003F4AA373117A433B0B4313724C23E372E2
:100FD0002C3B237292336374573B2375394B3A4A47
:100FE0001B68190C914208D17020E17D1B018143DF
:100FF000E175E17D03400B43E375344B1B68190C2D
:10100000914208D1302061791B018143617161797E
:1010100003400B4363712E4B1B68190C914207D19F
:101020000321E27D0B408A43E275E27D1343E375C1
:101030000422E37A69469343E3726B465B788978CE
:1010400093400B43112B06DDE37D1A43E275E07DEF
:10105000C0B2FFF7C3FE802390222404240C5B025D
:101060001C43D205D460D1681942FCD16B466A4654
:101070005B7892781B011343112B01DDFFF788FE8B
:10108000144B1A8B002AFCD001221A8316329A8143
:1010900000221A61964207D090231021DB051869BF
:1010A0001A6942400A42FBD0002D02D015220A4B99
:1010B0001A700A4B0A4A1A600AB070BDB06F051068
:1010C00000002040E807001055AA0000E4070010C7
:1010D000B0070010000010480000C04014000020BD
:1010E000CCBCECFC0822F8B5C027C0213B4B3C4DE2
:1010F0009A803C4A3F04136A09062B403B43136223
:10110000136AFF271B021B0A0B431362C0229200C3
:101110009446C020344B64469A58344EBA43024336
:10112000C0201A511A590002324002431A51C122FA
:1011300092009C58BC433F3F3C439C509C58C02766
:10114000344004439C509C583F042C409C509C5875
:101150002402240A0C439C500832944664469A5850
:10116000324002431A511A592A403A431A511A5925
:101170001202120A0A431A51C4229200944664468B
:101180009A58324002431A511A592A403A431A5186
:101190001A591202120A0A431A51C52292009C5887
:1011A0002700FF24A7433F3C2743C0249F509F585C
:1011B00024043E4030439850985805402C439C509E
:1011C00098580002000A0143995001210800FFF7D6
:1011D000E7FE074B074A1A6262B6F8BD00001040EE
:1011E000FFFF00FF00ED00E000E100E0FF00FFFF77
:1011F0000000904066000E0007B5FFF773FFFFF791
:10120000BDFCFFF787F8E1200003FFF7E3FB104880
:1012100001F06EFC011E03D00E4800F077FBFEE7E4
:1012200010230D49172200930C480C3B00F06EFB75
:1012300000F08CF8011E03D0094800F067FBFEE7C0
:10124000084800F0EFFB01F011FC00F00DF9FAE79F
:10125000E870051028700510597005105F700510B2
:10126000A6700510D1700510BFF34F8F024B034AD3
:10127000DA60BFF34F8FFEE700ED00E00400FA05EF
:1012800010B5032806D8537810781B021321184391
:1012900001F09BFB10BD7047FEE7704710B5FFF7EC
:1012A00031F810BD10B50020FFF772FBFFF76DF9A4
:1012B0000400012812D10020FFF76AFBFFF761F953
:1012C0000020FFF765FBFFF754F9084B002806D113
:1012D0001C7019780648C9B200F018FB10BD002236
:1012E0001A7019780348C9B2F6E7C04649170020BA
:1012F0001C7105104E71051010B5FFF7BFFB10BD36
:1013000010B506F07DF810BD0C4B01001B8810B520
:10131000013398420CD00A4B1B880233984208D103
:101320001378012B04D1074A033311680B43136070
:1013300010BD054800F0EAFAFAE7C046941700200D
:10134000901700204818002081710510F0B508257D
:101350008BB008AF2A002749380000F0B3FA062204
:10136000254906A800F0AEFA0621002006AA01F0E1
:1013700078FB041E06D00100204800F0C7FA2000C8
:101380000BB0F0BD0421012001F067FB01F048FB28
:10139000041E02D001001A48EFE71A4800F042FB91
:1013A000162312266B4401936E4405AB2100009373
:1013B0002A003300042001F0F0FA041E02D00100DC
:1013C0001148DAE7114800F02DFB6B4631889A8A04
:1013D00020002300019403970295009501F024FB5F
:1013E000041E02D001000A48C7E70A4800F01AFBB1
:1013F000C5E7C0469C720510C96F05109D710510A8
:10140000BE710510E1710510FE7105101F72051007
:101410003B7205106E720510062200B510498BB0A4
:10142000891808A800F04EFAFA23DB00069305930A
:1014300080213C230022C9010493143B080002933D
:1014400001930392009208ABFFF7D6FB011E05D073
:10145000044800F05BFA6420FEF778FF0BB000BD93
:10146000C96F0510A572051070B502255F4C8AB0D2
:1014700023682B4204D0FFF7CFFF2368AB432360E0
:10148000012523682B4200D180E023689B0500D50D
:101490007CE02368DB051ED4554910220C3105A8D9
:1014A00000F010FA534E102205A93000FEF7AFFFEE
:1014B000514B29001888514A022380B2009601F04E
:1014C0009BFA011E5ED04E4800F020FA802322686D
:1014D0005B0013432360012322681A4228D022684C
:1014E000920525D52268120522D5226852071FD4FD
:1014F0000A2104AD2B80434B05A81B685943039375
:10150000FEF72EFF3C4B022218883F4B80B2198811
:101510002B00023189B201F098FA462804D105A8BF
:10152000FEF725FF0028EDD0042322681343236033
:101530002368DB0724D523685B0721D523689B0636
:101540001ED42B4914222C3105A800F0BBF92F4DD5
:101550002B680993002B02D12D4800F063FA264B2B
:10156000142218882B4B80B2198805AB013189B23F
:1015700001F06FFA642835D12023226813432360D9
:101580000AB070BD244800F04DFA9FE7012523689A
:101590002B42A0D023681B059DD423685B059AD4F9
:1015A000134910221C3105A800F08CF91B4E1022A3
:1015B00005A93000FEF72BFF0F4B290018880F4AB2
:1015C000022380B2009601F017FA011E06D01448DB
:1015D00000F09CF980232268DB007AE7114800F0D4
:1015E00021FAF7E72B6801332B60C9E74818002080
:1015F000C96F0510BC1700204A170020FFFF00002C
:10160000CF7205100C700510A6170020601700207F
:10161000DB730510CC17002015730510CE170020C2
:10162000557305109B730510034B044A1980012361
:1016300011680B43136070474A17002048180020B8
:101640000121104B1A688A431A60022219680A4362
:1016500004211A601A688A431A601A681C318A4386
:101660001A601A6808490A401A601A6807490A404D
:101670001A601A6806490A401A601A6805490A4041
:101680001A60704748180020FFFEFFFFFFFDFFFFB4
:10169000FFFBFFFFFFF7FFFF10B50800029AD9B26A
:1016A000FFF732FE10BD0000F8B51E00404B1B884E
:1016B0000133994200D079E03378302B03D03D4894
:1016C00000F0B0F9F8BD3C4D3C4C2B68002B12D11A
:1016D0003B4800F0A7F9FEF733FE3A4B727C1860E6
:1016E000337C12021A43B37C1B041A43F37C1B069F
:1016F0001343013B2360727C337C12021A43B37C98
:1017000021681B041A43F37C2F4E1B0613433360DE
:101710008B4204D119002D4800F0F8F8D2E74A1C9A
:101720002B4F934206D08B4233D20A0029483968A6
:1017300000F0ECF823683B60336823602B685A1C88
:101740002A60002ABED0244B53430222D341234AAD
:101750009342B7D8FEF7F4FD1A4D2B68C41A210046
:101760001F48FEF707FDFA210300220049001D482B
:1017700000F0CCF81C4C2168002904D01B4B1C48FD
:101780001A6800F0C3F8FEF7DBFD00232860236031
:1017900098E715480268013A521AD2180260134AB3
:1017A000144813601A0000F0B1F8C3E71248B3E719
:1017B000A6170020E97305106417002058170020B1
:1017C000FA730510681700205C17002008740510D4
:1017D000541700201A740510D578E9266E1283007C
:1017E000803801002E740510501700204C1700207F
:1017F0006C740510277405108171051010B50C006C
:1018000001000E4800F082F80D4B1A68D20509D588
:101810001A68920506D421000A4B0B481C8000F080
:1018200075F810BD1A685205FBD51B681B05F8D466
:10183000064B210006481C80F1E7C0468474051061
:1018400048180020A6170020CB740510CC170020E4
:10185000E274051070B50C4C2368DB050BD58025B0
:101860002368AD002B4206D1084800F0DBF823685E
:101870001D43256007E023685B0504D580252368A8
:101880002D012B42F0D070BD48180020F9740510CE
:101890002021024A13688B431360704748180020C8
:1018A00010B500F018F810BD30B500240139A2427F
:1018B00001D1002005E0035D01340D5DAB42F6D09F
:1018C000581B30BD002310B59A4200D110BDCC5C2E
:1018D000C4540133F8E710B5884202D98B189842F6
:1018E00003D3002307E08B5C8354013AFBD210BD85
:1018F000CC5CC45401339A42FAD1F8E70300821851
:10190000934200D1704719700133F9E70FB40B4BC4
:1019100013B51C68002C05D0A369002B02D1200050
:1019200000F086FA05AB2000049AA168019300F04C
:101930005FFC16BC08BC04B01847C0464C18002019
:1019400070B505000E00002804D08369002B01D17A
:1019500000F06EFAAB69AC68002B02D1280000F0F1
:1019600067FA2D4B9C4222D16C68636EDB0705D46D
:10197000A3899B0502D4A06D00F0FBFAA3891B0785
:1019800002D52369002B29D12100280000F0AAF8F4
:10199000002823D001256D42636EDB0705D4A3899F
:1019A0009B0502D4A06D00F0E5FA280070BD1B4B2A
:1019B0009C4201D1AC68D8E7194B9C42D5D1EC6868
:1019C000D3E70136A360002B04DAA2699A4216DC41
:1019D0000A2914D023685A1C22601970A368317830
:1019E000013B0029EDD1A360002B0FDA2800220073
:1019F0000A3100F021F80A25431CCDD1CAE72200A4
:101A0000280000F019F8431CE8D1C3E70A25236831
:101A10005A1C22601D70BFE76075051080750510A7
:101A20004075051010B5034B01001868FFF788FFDB
:101A300010BDC0464C180020F8B505000E0014007B
:101A4000002804D08369002B01D100F0F1F9224B6A
:101A50009C422ED16C68A369A360A3891B0732D571
:101A60002369002B2FD023682269F7B2981A636983
:101A7000F6B2834205DC2100280000F037F9002887
:101A800027D1A3680130013BA36023685A1C226060
:101A90001F706369834204D0A389DB0707D50A2E30
:101AA00005D12100280000F021F9002811D13000D3
:101AB000F8BD0A4B9C4201D1AC68CCE7084B9C4274
:101AC000C9D1EC68C7E72100280000F00BF8002816
:101AD000C9D001267642EAE76075051080750510C9
:101AE00040750510374B70B51D6806000C00002DC1
:101AF00005D0AB69002B02D1280000F099F9324BD8
:101B00009C420FD16C680C23E25E93B211072DD476
:101B1000D90611D409230120336037331343A3813D
:101B2000404270BD294B9C4201D1AC68EBE7284B89
:101B30009C42E8D1EC68E6E75B0713D5616B0029AE
:101B400008D023004433994202D0300000F080FADC
:101B5000002363632422A3899343A381002363604A
:101B6000236923600823A2891343A3812369002BDF
:101B70000BD1A0218022A389890092000B409342BF
:101B800003D02100300000F01FFA0C22A35E0120D8
:101B90001A0099B2024003420FD00022A26062698B
:101BA0005242A261002022698242BAD10A06B8D507
:101BB00040221343A3810138B3E7880700D4626948
:101BC000A260EFE74C1800206075051080750510C5
:101BD00040750510F7B58B8905000C001A075FD416
:101BE0004A68002A04DC0A6C002A01DC0020FEBDE1
:101BF000E76A002FFAD0002280212E682A601A009E
:101C000049010A400B4234D0606DA3895B0706D5B9
:101C10006368C01A636B002B01D0236CC01A0200EA
:101C2000216A00232800E76AB847A189431C06D12E
:101C30002B681D2B31D82C4ADA40D3072DD5002331
:101C4000636023692360CB0405D5431C02D12B6854
:101C5000002B00D16065616B2E600029C6D0230087
:101C60004433994202D0280000F0F2F9002060636A
:101C7000BDE701232800216AB847431CC5D12B6862
:101C8000002BC2D01D2B01D0162B01D12E60ADE749
:101C90004023A2891343A381A9E740230B43FAE71A
:101CA0000F69002FA2D00A680F60D21B0192002298
:101CB0009B0700D14A69A260019B002B00DC95E7DD
:101CC0003A002800019B216AA66AB047002806DC7A
:101CD00040230120A28940421343A38187E7019B4F
:101CE0003F181B1A0193E7E7010040200B6970B50C
:101CF00005000C00002B02D10025280070BD002833
:101D000004D08369002B01D100F092F8144B9C425F
:101D10001BD16C680C22A35E002BEDD0626ED20743
:101D200004D49B0502D4A06D00F023F92800210003
:101D3000FFF750FF636E0500DB07DED4A3899B0528
:101D4000DBD4A06D00F016F9D7E7064B9C4201D119
:101D5000AC68DFE7044B9C42DCD1EC68DAE7C046B4
:101D6000607505108075051040750510002310B5CD
:101D70000400036043608360818143661900C2816F
:101D800003614361836108225C30FFF7B7FD054BB7
:101D90006362054B2462A362044BE362044B23633A
:101DA00010BDC0468D270410B5270410ED27041080
:101DB0001928041010B5024900F0BAF810BDC04649
:101DC000ED1C041070B568254A1E55430E0029000D
:101DD000743100F087F9041E08D000212A00016048
:101DE00046600C30A0606832FFF788FD200070BDAF
:101DF00010B5024800F0BDF810BDC046EC17002039
:101E000010B5024800F0B6F810BDC046EC1700202F
:101E100010B5024800F0ADF810BDC046E71700202D
:101E200010B5024800F0A6F810BDC046E717002024
:101E300013B50400FFF7ECFFA369002B02D0FFF7F6
:101E4000EFFF13BDA364E3642365134B134A1B68C0
:101E5000A2620193A34201D10123A361200000F0FB
:101E60001FF86060200000F01BF8A060200000F068
:101E700017F800220421E0606068FFF777FF012275
:101E80000921A068FFF772FF02221221E068FFF724
:101E90006DFF0123A361D2E73C750510B51D041049
:101EA000F8B50700FFF7A4FF1F4B1E68B369002BAE
:101EB00002D13000FFF7BCFF4836B4687368013BBD
:101EC00004D53368002B22D03668F6E70C22A55ED5
:101ED000002D1AD12000154B5830E360656600F0E4
:101EE00047F8FFF78DFF2000082229002560A56034
:101EF000656025616561A5615C30FFF7FFFC656386
:101F0000A563A564E5642000F8BD6834D7E7042123
:101F10003800FFF757FF041E3060D5D1FFF770FF80
:101F20000C233B60EFE7C0463C7505100100FFFF46
:101F3000F7B5040006000027019148346368A568DE
:101F40000093009B013B009304D52468002CF5D13D
:101F50003800FEBDAB89012B08D90E22AB5E0133E0
:101F600004D029003000019B984707436835E8E713
:101F7000704770477047000070B50E001D000E23BB
:101F8000C95E140096B0002907DA00232B60B389DC
:101F90001B0611D48023DB000FE06A4600F068FCCA
:101FA0000028F2DBF02301991B021940054BC918E8
:101FB0004B4259412960EDE740230020236016B0D1
:101FC00070BDC04600E0FFFFF7B502268B89050013
:101FD0000C00334206D023004733236023610123E2
:101FE0006361F7BD6A4601ABFFF7C6FF00990700C2
:101FF000280000F077F8002808D10C22A35E9A058B
:10200000EFD4032293431E43A681E4E70F4BAB6258
:102010008023A28920601343A381009B2061636118
:10202000019B002B0DD028000E23E15E00F032FC56
:10203000002806D00322A38993431A0001231343E7
:10204000A381A0890743A781CBE7C046B51D041033
:1020500070B50500002910D00C1F2368002B00DA92
:10206000E418280000F048FC1D4A1368002B05D135
:1020700063601460280000F047FC70BDA34208D9DB
:10208000216860188342F3D118685B6841182160A9
:10209000EEE71A005B68002B01D0A342F9D9116862
:1020A0005018A0420BD120680918501811608342C3
:1020B000E0D118685B68411811605360DAE7A0420C
:1020C00002D90C232B60D5E721686018834203D125
:1020D00018685B684118216063605460CAE7C046B5
:1020E0006C170020F8B50323CD1C9D43083506006E
:1020F0000C2D1FD20C25A9421ED8300000F0FCFB8D
:1021000025490A681400002C1AD1244F3B68002B83
:1021100004D12100300000F027FB38602900300096
:1021200000F022FB431C2BD10C233000336000F065
:10213000EBFB03E0002DDEDA0C2333600020F8BD5A
:1021400023685B1B19D40B2B03D92360E41825608B
:1021500003E06368A2420ED10B60300000F0D4FBB4
:10216000200007220B30231D9043C21A9842E6D06C
:102170001B1AA350E3E75360EFE722006468C2E74D
:102180000323C41C9C43A042E1D0211A300000F07C
:10219000EBFA431CDBD1C7E76C1700207017002057
:1021A000936810B5013B9360002B04DA9469A34255
:1021B00007DB0A2905D01368581C10601970080045
:1021C00010BDFFF739FC0100F9E7F8B506000F0074
:1021D0001400D518AC4201D1002007E021783A0064
:1021E0003000FFF7DDFF0134431CF3D1F8BD0000E0
:1021F000F0B5A1B006000C001F000392002804D027
:102200008369002B01D1FFF713FE8E4B9C421CD13A
:102210007468636EDB0705D4A3899B0502D4A06DA7
:10222000FFF7A7FEA3891B0702D52369002B1DD149
:1022300021003000FFF756FC002817D0636EDB0743
:102240000DD50120404221B0F0BD7F4B9C4201D111
:10225000B468DEE77D4B9C42DBD1F468D9E7A38903
:102260009B05EED4A06DFFF785FEEAE7002308ADDD
:102270006B6120336B761033AB760797039F3B7807
:10228000002B01D0252B4ED1039BFB1A0593039BFA
:102290009F420DD0059B21003000039AFFF795FF68
:1022A000431C00D1B5E06A69059B944663446B61A9
:1022B0003B78002B00D1ACE001227B1C0393002370
:1022C00052426A6004A9543252182B60EB60AB6032
:1022D0001370AB65039B052219785D4800F000FB85
:1022E000039B5F1C002820D12A68D30604D5532302
:1022F00004A95B1820211970130704D5532304A9DE
:102300005B182B211970039B1B782A2B16D00021F8
:10231000EB68039F3A78781C303A8446092A4FD9F3
:10232000002911D117E00137A9E7494B2A68C01AE3
:102330000123834013432B600397CBE7079B191DB1
:102340001B680791002B01DB0B9304E05B42EB6001
:10235000022313432B603B782E2B0AD17B782A2B48
:1023600037D1079B02371A1D1B680792002B2DDB04
:10237000099303223978374800F0B2FA002807D0D1
:10238000344B2A68C01A40238340134301372B6023
:1023900039787B1C062230480393297600F0A0FA96
:1023A000002845D02D4B002B27D10722079B073350
:1023B0009343083307936B69049A9B186B615DE73D
:1023C0000A214B4367469B180939A3E701235B4267
:1023D000CEE700231A0001376B603978781C30395A
:1023E0008446092903D9002BC3D00992C1E70A23E7
:1023F0005A4367465218093BEFE707AB00932200A8
:1024000029003000164B00E000BF0490049B01330C
:10241000D1D1636EDB0705D4A3899B0502D4A06DDF
:10242000FFF7A8FDA3895B0600D50AE70D980AE728
:1024300007AB0093220029003000094B00F082F81E
:10244000E3E7C046607505108075051040750510FE
:10245000A0750510A6750510AA75051000000000EE
:10246000CB210410F7B5150001938A680B690C00A5
:102470000090934200DA130022002B60433212785E
:10248000002A01D001332B6023689B0602D52B68FC
:1024900002332B602268062317001F401A4227D000
:1024A000230043331B785A1E93412268920630D48E
:1024B000220001990098089E4332B047431C25D062
:1024C000062320682A68E16800250340042B03D115
:1024D0008D1AEB43DB171D40A3682269934201DD8F
:1024E0009B1AED180027BD4220D1002010E00137D3
:1024F000E3682A689B1ABB42D2DD220001230199BE
:102500000098089E1932B047431CF0D10120404288
:10251000FEBD3020E1184331087021005A1C4531BE
:102520000978A218433202331170C1E72200012357
:1025300001990098089E1A32B047431CE6D0013733
:10254000D1E70000F0B58BB006920A004332079342
:10255000059004920A7E0C00109B782A06D8622A05
:1025600008D8002A00D1C0E0582A52D026004236AE
:10257000327022E0100063381528F7D8FDF7F0FD1F
:1025800016001F00F6FFF6FFF6FFF6FF1F00F6FF2E
:10259000F6FFF6FFF6FFA80036009A00F6FFF6FFFA
:1025A000B900F6FF3600F6FFF6FF9E0026001A6817
:1025B0004236111D1960136833700123A7E00868C3
:1025C00019680A1D05060BD50D681A60002D03DA7F
:1025D0002D23049A6D421370614B0A27039332E056
:1025E0000D681A604106F1D52DB2EFE70D68196844
:1025F000081D18602E0601D50D6803E06D06FBD599
:102600000D68ADB2564B0A2703936F2A17D10827DE
:1026100015E045310A70524A03921A68216820CAAF
:102620001A60080650D5CB0702D520231943216034
:102630001027002D03D1202322689A432260230013
:10264000002243331A706368A360002B03DB04226B
:10265000216891432160002D02D1049E002B0CD0F3
:10266000049E28003900FDF70BFE039B013E5B5CD6
:1026700033702B0005009F42F3D9082F09D123683E
:10268000DB0706D563682269934202DC3023013EF2
:102690003370049B9B1B2361079B210000930598CB
:1026A000069B09AAFFF7DEFE431C35D101204042FC
:1026B0000BB0F0BD202209680A4322602200782175
:1026C00045321170274AA7E74806ACD5ADB2AAE754
:1026D0001A680D68101D4969186013682E0601D527
:1026E000196002E06D06FBD519800023049E23616A
:1026F000D2E71A68111D196016680021300062685F
:1027000000F0EEF8002801D0801B60606368236150
:102710000023049A1370BFE72369320006990598D5
:10272000079DA847431CC1D023689B0715D4099B6C
:10273000E0689842BCDA1800BAE722000123069943
:102740000598079E1932B047431CAFD00135E368A6
:10275000099A9B1AAB42F0DCE9E70025F7E7C0468F
:10276000B1750510C2750510002370B5064D040043
:1027700008002B60FEF7B4F9431C03D12B68002B33
:1027800000D0236070BDC046E017002070B50C007B
:102790000E25495F00F0C0F8002803DB636D1B18AD
:1027A000636570BDA389024A1340A381F9E7C0465F
:1027B000FFEFFFFFF8B51F008B8905000C00160026
:1027C000DB0505D50E23C95E0022022300F074F854
:1027D000A389054A28001340A38132000E23E15E3D
:1027E0003B0000F01FF8F8BDFFEFFFFF70B50C00D5
:1027F0000E25495F00F060F8A389421C03D1054A09
:102800001340A38170BD802252011343A3816065F0
:10281000F8E7C046FFEFFFFF10B50E23C95E00F0DA
:1028200015F810BD70B50400080011001A0000234F
:10283000054D2B60FEF77CF9431C03D12B68002B60
:1028400000D0236070BDC046E0170020002370B5A3
:10285000064D040008002B60FEF75EF9431C03D10F
:102860002B68002B00D0236070BDC046E01700200D
:10287000002370B5064D0400080011002B60FEF720
:102880004EF9431C03D12B68002B00D0236070BD90
:10289000E0170020002370B5064D040008002B60EF
:1028A000FEF742F9431C03D12B68002B00D02360B4
:1028B00070BDC046E017002070B50400080011008C
:1028C0001A000023054D2B60FEF730F9431C03D19D
:1028D0002B68002B00D0236070BDC046E01700209D
:1028E000C9B28218904201D10020704703788B4210
:1028F000FBD00130F6E7000010B50248FFF739FBC6
:1029000010BDC046E817002010B50248FFF732FBA3
:1029100010BDC046E817002070B504000800110083
:102920001A000023054D2B60FEF70FF9431C03D15D
:102930002B68002B00D0236070BDC046E01700203C
:10294000FFB58DB0144618AAECCA04976F466CC741
:102950000A46014605A8179B03F0D2FE00280AD1BB
:1029600008A84471012C08D0002C06D0022C04D0F9
:10297000032C02D0422011B0F0BD09A8062202307B
:102980001099FDF744FD08A916980873C0B20328F2
:10299000F0D805A800F09EFAEDE77CB5069D079CEF
:1029A000002805D0860705D1460703D4060701D4C1
:1029B00042207CBD002903D0012901D00229F7D192
:1029C0000095019400F0DCFA7CBD10B50BF078F9AD
:1029D00010BD70B51C4613460D46012C03D0022CC9
:1029E00003D0422070BD022200E010221946FDF7FC
:1029F0000EFD2C70002070BD70B586B00D461446DB
:102A000006466946881C0A9AFFF7E3FF002805D1AD
:102A10006B4622462946304600F0A0FD06B070BD48
:102A200010B502F057FB10BDF0B585B084460AA87A
:102A3000F0C868468581C68103A80190029700947A
:102A4000604602F031FE05B0F0BD10B501F0AFF800
:102A500010BD10B501F0B2F810BD10B503F072FB57
:102A600010BD10B503F090FB10BD000010B503F0D1
:102A700077FF1D4C4121206849014118097F002939
:102A80000DD1A0300079C00705D100F0E9FB02F0BC
:102A9000B9F90DF03DFC03F0ABFC10F0C5FC00F003
:102AA00001F92068014640310A78C9798A4319D171
:102AB0003E21095C002915D10C490A88120711D55D
:102AC0000922D2061269497A836AC900591811236A
:102AD000DB01C018806A801A00020012814201DA0C
:102AE0000CF030FC10BD00003C180020C00000209D
:102AF00010B5837F0122002492024168082B03D97C
:102B00004224914202D310E0914201D242240CE0CF
:102B1000014634220648FDF77AFC00F083F80028CD
:102B200001DA482401E000F02DF9204610BD000034
:102B3000DC0200203EB5174D15482968827F084603
:102B4000A0310A7300246030047644768476E12252
:102B5000C2768022027702224277302008704C70C1
:102B600002AA01A96846FDF741FC68460078A22246
:102B700001016846007A891C000201436846007919
:102B80000003014328681152A03004713EBD0000CB
:102B9000DC0200203C18002070B503F0C7FE0BF0EB
:102BA0002BFF0AF057FC11F055FA04F0A3F81A4C69
:102BB0001A4920681A4D4018811013202A68C00154
:102BC0001018C162616889080163A16889084163BE
:102BD0000FF07CF929681F208001228B0818828061
:102BE000628B0F23C280DB01A28BCB18DA87628C49
:102BF000028022462032127882703D22520100204B
:102C00008918087300F0BAFA03F002FC03F088FB9D
:102C100010F090FC70BD0000DC0200200000FCEF12
:102C20003C18002070B50025ED43FEF752F801284E
:102C30002ED0002318490322888BFF24401E104306
:102C40008A7F593462438218088B28246043121803
:102C5000488B3024604312180846203040782C24DA
:102C6000604310180D4A181884184869A0420DD105
:102C70000B4884420AD90D69FEF72BF8C1B22846E9
:102C800009F044F809F07EF9401B251A284670BD6A
:102C9000FF23B533CEE70000DC02002089190000D5
:102CA000B8090000F8B52C4F3C68206E5C34401C1D
:102CB000002814D0002529480023C07B00283ED0DE
:102CC0000926F6062648002D1CD000210A460B4690
:102CD0004169521C994204D1002902D004E0012527
:102CE000E9E7204B9A42F2D32160006960603069C5
:102CF000A1680002090E000A09060143A16000F064
:102D000033F81DE03169A2680902090A150E08D0DE
:102D1000018BC90712D04169216000696060E372CC
:102D200010E0881A00027D2300121B03984205DD83
:102D3000100E00060843A06000F016F8F8BD6360AE
:102D4000002DFBD003CC0CF023FAFA200CF010FA83
:102D500039688862F8BD00003C180020FC020020A1
:102D6000000010488813000004490020086104484E
:102D7000012100686030C1717047000000001048F8
:102D80003C180020F8B50626324840250560324838
:102D900000270780A9050920C00641602F4A9160DD
:102DA000016801602E48032104694269601E0843DE
:102DB0003946401CFDF72FFBFDF78BFFC1B22046C3
:102DC00008F0A4FF09F0DEF809F0E8F8FDF74DFF80
:102DD000244917208881244C2068421901465770E5
:102DE000FA20886228201070FDF704FF012805D121
:102DF000206810224030017811430170FDF77FFFF9
:102E0000012805D1206880224030017811430170EB
:102E10002068014640300278324302700020C043EF
:102E20000866FDF7C6FBFFF785FEFFF7B5FE2068D5
:102E300001212030017707214177012003F082F939
:102E400006F03EFCFFF72EFF0248803805600221A5
:102E50000160F8BD80E100E0C000002040000048B3
:102E6000DC020020000010483C18002038B5184A49
:102E700014682246BA32AE34A378DD0701D00129A6
:102E80000AD05B070CD501290AD0217949070BD557
:102E9000E17A002905D007E0E07880210843E0705E
:102EA00038BD0121E172508020794106090FF7D029
:102EB0007821084069460870002048706A4602215F
:102EC000422000F0ADFA207987210840207138BDFA
:102ED0003C180020F8B505460027684607701548DD
:102EE00046260468AE3420798006800F03D0002186
:102EF000084607F045FFA078400718D520794C21F7
:102F0000084214D10023287E6A4619460AF03EFD85
:102F100000280DD16846007828762F74284607F0DF
:102F2000E1FD060003D1207940210843207130469D
:102F3000F8BD00003C18002038B510480021046896
:102F40000846AE3407F01CFF694648702079C10777
:102F500004D001216A46117088432071C0B28107F4
:102F600005D502216A461170FD2108402071022119
:102F70006A46084600F054FA38BD00003C180020AC
:102F8000FFB50C4678A103C995B0019100900021CE
:102F900008A801730321C90268464186012108A8D7
:102FA000734E017435681746AE3513F0DFF800280C
:102FB00008D17049306840180AF08EFEA8780028C1
:102FC00002D0462019B0F0BD0BA81599FDF745FEBB
:102FD0000028F7D1072010A90871012C05D0022C78
:102FE0000AD0002C0ED04220ECE708A8017B10206C
:102FF000014308A8017305E011A90BA8FDF7F2FD34
:103000000028DFD110A8027901230CA9284601F07D
:10301000D9FD00287ED1022229461898FDF7F7F93C
:103020002988684681811521490201820784012689
:1030300086734E2108A881700024C4700671072190
:103040004171867103A902A801F072FB002861D1C9
:10305000022202A91E98FDF7DAF9082F02D268466B
:10306000478502E008206946488569460C850B467D
:1030700028880AAA098902F0E3FA00286DD13E499E
:10308000684601820227078408A8847103A902A860
:1030900001F04EFB002860D1022202A91F98FDF723
:1030A000B6F968460470694644704F850B46288817
:1030B0000AAA098902F0C4FA00284ED108A8007BA8
:1030C000C00723D02C496846C91C0182082101840D
:1030D00008A88770047103A902A801F029FB002841
:1030E0003BD1FF216846C1718171C170817041700F
:1030F0000170447104716946082048850B46288890
:103100000AAA098902F09CFA002826D108A8007BA7
:10311000800600E021E022D5298868468181164991
:10312000A53101820684867308A88770C470047173
:1031300007214171847103A902A801F0F9FA00285E
:103140000BD169460E700C854E850B4628880AAA5D
:10315000098902F075FA002801D0472032E708A853
:10316000007BA87000202DE7626C75656E72672188
:103170003C18002033070000012A0000034800210A
:103180000068AE30C1708170704700003C180020AC
:1031900070B50D4B1C68AE342379DD0612D45B0785
:1031A00010D533280ED1E07A02280BD104201070FC
:1031B00000205070C9B2022000F032F92079FB21C2
:1031C0000840207170BD00003C18002038B5024650
:1031D000174801240068AE30022A1FD0052A03D008
:1031E000072A07D00B2A20D1084609794088FFF723
:1031F0003DFE1AE000790024020600D50124820772
:1032000003D1C20601D480060FD5084600216A46C4
:103210001170694600F0A6F8044606E08178490777
:1032200003D50179FB2211400171204638BD000011
:103230003C18002010B509480468AE34E0788007D7
:103240000BD500200BF06EFA022000F0C1F8E078F8
:1032500001210843FD210840E07010BD3C1800200A
:103260001FB50E480468AE34E078010612D5A17887
:10327000C9070CD0800708D5042069460873684642
:1032800003F048FC022000F0A3F80020E0704006A4
:10329000400EE070FDF7E5FC1FBD00003C1800206B
:1032A0000949B22209681423525CBA311A4208D083
:1032B000498800050905090D000D814201D1012051
:1032C00070470020704700003C1800200278090772
:1032D000090F0A43027000207047000030B50E4805
:1032E00085B005682C46AE352879BA34400711D52B
:1032F000E87A01280ED11521490268464180012152
:10330000017060886B46054A00F07EF9002801D103
:103310000220E87205B030BD3C180020FFFF00001D
:103320007CB50446E1200D46800005F085FF0BA129
:1033300003C900900191684603F0C2F901200BF027
:10334000FDFF002801D047207CBD207820210843C4
:1033500020700920287000207CBD00001F020000A2
:103360000000000030B5194B047A1B68C268AE3308
:103370001B799D06AD0F04D10078042801D00020F0
:103380000EE0012030BD155C002D0BD0401C80B23A
:10339000155C012D08D01518203DED7F281880B24E
:1033A000A042F0D3087830BD401CDD07012480B274
:1033B000002D02D0105CC00703E09B07F2D5105C23
:1033C00080070028EED00C70ECE700003C180020CD
:1033D00010B50446C1061148006803D51522BF2167
:1033E0000C4006E0392149014118897BC90710D0FA
:1033F00012222107890E08180121C9024018C06C49
:103400000023214610F0E0F8010004D0204610F01F
:10341000C7F8002010BD072010BD00003C18002098
:10342000F8B5891ECDB20646A81C03210843401CEE
:103430008308174817460068F10603D51C22BF21F0
:103440000E4008E0392149014118897B090601D461
:103450000020F8BD19223107890E08180121C90280
:103460004018C06C314610F0AFF804000ED0397827
:10347000217179786171A5712A46B91CE01DFCF7AC
:10348000C6FF2146304610F08BF8E1E70720F8BD73
:103490003C18002000B500F009F8002805D085226E
:1034A00001699201114200D0002000BD10B50D4904
:1034B00000050B68092109025918CA6E0021000D88
:1034C000A0331B7B0AE04C01145B2405240D8442CD
:1034D00002D14801801810BD491CC9B28B42F2D8F4
:1034E000002010BD3C18002004490A683D21490114
:1034F00051180A7B02430A73704700003C180020F1
:10350000FEB58C68CD88267B012E01D00020FEBD43
:103510004126052D01D01E7019E0247C0A2C00D014
:103520001E70002A0DD08968052268460C31FCF710
:103530006EFF6D1E00AAA9B232200132FFF728FEED
:1035400005E000880A460146022000F05DFD4120AA
:10355000FEBD10B5102100F09DF810BDFFB589B07B
:10356000074646261D781022991C05A8FDF7FEFA8D
:10357000012D04D0022D02D042200DB0F0BD3846FE
:10358000FFF788FF040037D020223946002009F0D9
:103590003FFF07002FD0194869460880012004909A
:1035A000394620460B9B0A9A0AF061F9060004D0BE
:1035B0000021384609F088FF1EE00B98A081A06822
:1035C000012D0FD0102205A9FCF721FF2571012143
:1035D00020694903084320610948A061384600F08A
:1035E000C7FF09E010220749FCF711FFA06802227B
:1035F00005A90C30E8E764263046BEE70328000042
:1036000053350410E8770510FFB589B00746462505
:103610001E781022991C05A8FDF7A8FA012E04D0E7
:10362000022E02D042200DB0F0BD3846FFF732FF27
:10363000040024D020223946002009F0E9FE0700CA
:103640001CD005AD04960FCD6D460FC539462046FA
:103650000B9B0A9A0AF00BF9050004D000213846AA
:1036600009F032FF0BE00121206949030843206182
:103670000448A061384600F07BFF00E0642528463E
:10368000D1E700008936041010B5502100F096F9FA
:1036900010BD0000F0B593B00E4604460020694608
:1036A00008760190E0690790002827D0C788002F8E
:1036B0007DD0B006800F03D02088FFF7F1FD019088
:1036C00006AB2046019A0799FFF71AFF412861D0FF
:1036D000B81E80B2009007988068457B002D56D0B8
:1036E000F006F107039000290FD0022F0DD32946D1
:1036F0000098FCF7C5FD002903D006E0412013B077
:10370000F0BD062D17D0142D15D0B00708D5052F04
:1037100006D30321B8078907C84201D1022048E037
:1037200070070ED5022F0CD329460098FCF7A8FD90
:10373000002902D005E001203BE0082D0DD0062D28
:103740000BD00398800F0ED0022F0CD3294600987F
:10375000FCF796FD002902D005E0042029E0072DA2
:1037600008D0152D06D0B00611D5012D04D0022D9C
:1037700004D00CE008201CE0042500E01225022FF4
:1037800005D929460098FCF77BFD002910D041207F
:103790006946087601212069490388432061019820
:1037A00000287DD006AA01213120FFF7F1FCF6E0C8
:1037B0001020810706D57D49B8034018070CB800D2
:1037C000C01C0EE0C0060098294604D5401CFCF73A
:1037D00057FD87B202E0FCF753FD0746781E6843A9
:1037E000801D81B205AB0222079809F0D1FDF006D9
:1037F0004ED56946A089898A884202D92069410646
:103800005BD4002041E0072D0AD068430B3082B220
:103810001023A168079809F051FE002815D031E067
:103820001022634908A8FCF7F2FD02980BABC10017
:10383000081A0B3081B20222079809F0A9FD102264
:1038400008A8A168FCF7EBFDE7E7019800280ED077
:1038500002980CAB6843801D81B22A46079809F094
:1038600097FD0CAA29463320FFF792FC0AE007983F
:10387000009002982B466843801CC2B22188022027
:1038800000F080FB0298401C80B20290B842BAD38C
:103890003820484F064207D06946A089898A00E04F
:1038A00077E0884204D86EE06846808AB8426AD0E1
:1038B0002069410606D5F10604D401218902084396
:1038C00020616CE021882022002009F0A1FD050084
:1038D00011D00521F2070120C902002A0DD06A4645
:1038E00011800490908A3B46401C82B229462046B3
:1038F00009F082FF37E0452001E7B20713D52079B0
:1039000001280ED01020A268029001920091684612
:10391000808A3B46401C82B22946204609F0DDFEE3
:1039200021E00220EFE7710701D5234A04E0039963
:10393000890F0DD0204A521C69460A800490888A5B
:10394000A389401C82B22946204609F090FF0AE074
:10395000B0060AD56846808AA389401C82B22946EF
:10396000204609F0FDFE642808D0284600F000FE3D
:1039700022883046079900F0B8FB10E00021284665
:1039800009F0A2FDB7E722883046079900F0ADFBA9
:1039900000E76846027E2188022000F071FB0121C9
:1039A000E06909F091FD0020E061A8E600C0FFFF9A
:1039B000E8770510FFFF000002280000F0B58BB08B
:1039C0000D4604460020694608710490E669002E01
:1039D00016D0A806800F03D02088FFF761FC049062
:1039E00001AB31462046049AFFF78AFD412865D095
:1039F000E80708D021883246022000F089FA5DE00D
:103A000041200BB0F0BD680705D521883246022061
:103A100000F044FA52E0A80739D5F0886188814265
:103A200005D921883246022000F082F946E020695B
:103A3000410604D5012189020843206180E02188E4
:103A40002022002009F0E4FC05001ED02188324627
:103A5000022000F06DF9A068801C00F041FB618835
:103A6000401E401886B2A06800F03AFB024633467A
:103A70002946204609F09CFE284600F079FDA06802
:103A80003146801C00F028FB54E04520B9E7E806E9
:103A900014D5F088412702280ED9B168801E4D7BCD
:103AA00080B2854201D9012016E0002D04D02946BC
:103AB000FCF7E6FB00290FD0684607710120216959
:103AC000400381432161049800282DD001AA0121DF
:103AD0003120FFF75DFB2DE00290022000270390CC
:103AE0001EE0049800280DD0039805AB001D81B29C
:103AF0002A46304609F04CFC05AA29463320FFF738
:103B000047FB07E003980096C2B22B4621880220AB
:103B100000F038FA0398401980B27F1CBFB20390BE
:103B200002988742DDD3C9E76846027921880220DE
:103B300000F0A6FA0121E06909F0C6FC0020E0616E
:103B400000205EE7FFB581B01F4606464625FFF719
:103B5000A1FC040020D020223146002009F058FCAE
:103B6000060018D0014600972046039B029A09F0F0
:103B7000D2FE050004D00021304609F0A5FC0BE080
:103B8000012120694903084320610548A0613046AE
:103B900000F0EEFC00E06425284605B0F0BD000012
:103BA000A53B041010B56021FFF708FF10BD10B54C
:103BB0001C4613462246FFF7C5FF10BDFFB581B076
:103BC000154606464624FFF771FC070025D00298EB
:103BD000002803D07888C01EA84201D242241CE0ED
:103BE00011483D21006849014018007B000602D5BC
:103BF000642005B0F0BDE81C81B2304600F016F834
:103C000006000CD0014600953846049B029A09F044
:103C100069FE0446304600F0ABFC2046E9E7642428
:103C20008020FFF761FCF8E73C180020091D8AB2EC
:103C300010B50146002009F0EBFB10BDF7B50646B4
:103C400090790321401EC5B2E81C0843401C83083C
:103C5000174817460068F10603D52922BF210E40F8
:103C600008E0392149014118097CC90601D4002026
:103C7000FEBD26223107890E08180121C90240180D
:103C8000C06C31460FF0A0FC04000FD00198A0805A
:103C9000A808A07123462A4605213846083309F0B2
:103CA00077FB214630460FF07BFCE0E70720FEBDA6
:103CB0003C180020F7B5064690790321801EC5B256
:103CC000E81C0843401C8308184817460068F106A2
:103CD00003D52822BF210E4008E0392149014118AF
:103CE000097C090701D40020FEBD25223107890E79
:103CF00008180121C9024018C06C31460FF064FC5D
:103D0000040011D00198A080B8682346407BA071C0
:103D1000E5712A4606213846083309F039FB214669
:103D200030460FF03DFCDEE70720FEBD3C180020CA
:103D3000F7B5064690790321401EC5B2E81C08433A
:103D4000401C8308164817460068F10603D52C224C
:103D5000BF210E4008E0392149014118097C0906BC
:103D600001D40020FEBD29223107890E0818012147
:103D7000C9024018C06C31460FF026FC04000DD07B
:103D80000198A080A5712A4605213846E31D09F057
:103D9000FFFA214630460FF003FCE2E70720FEBDA4
:103DA0003C180020F7B5064690790321801EC5B265
:103DB000E81C0843401C8308184817460068F106B1
:103DC00003D52E22BF210E4008E0392149014118B8
:103DD000497C890701D40020FEBD2B223107890EC2
:103DE00008180121C9024018C06C31460FF0ECFBE5
:103DF000040011D00198A080B8682346407BA071D0
:103E0000E5712A4606213846083309F0C1FA2146F1
:103E100030460FF0C5FBDEE70720FEBD3C18002052
:103E2000F7B5064690790321801EC5B2281D0843C8
:103E3000401C8308184817460068F10603D52A225B
:103E4000BF210E4008E0392149014118097C89064B
:103E500001D40020FEBD27223107890E0818012158
:103E6000C9024018C06C31460FF0AEFB040011D0FF
:103E70000198A080B8682346407BA071E5712A466E
:103E800006213846083309F083FA214630460FF000
:103E900087FBDEE70720FEBD3C180020F7B506468D
:103EA00090790321401EC5B2E81C0843401C8308DA
:103EB000164817460068F10603D52D22BF210E4093
:103EC00006E0392149014118497CC90719D02A2245
:103ED0003107890E08180121C9024018C06C31460B
:103EE0000FF072FB04000ED00198A080A5712A4645
:103EF00005213846E31D09F04BFA214630460FF004
:103F00004FFB0020FEBD0720FEBD00003C18002036
:103F1000F7B5064690790321401EC5B2E81C084358
:103F2000401C8308164817460068F10603D52B226B
:103F3000BF210E4008E0392149014118097C49069A
:103F400001D40020FEBD28223107890E0818012166
:103F5000C9024018C06C31460FF036FB04000DD08A
:103F60000198A080A5712A4605213846E31D09F075
:103F70000FFA214630460FF013FBE2E70720FEBDA3
:103F80003C180020FFB59B1E0646DDB2681D0321CC
:103F90000843401C83081B4881B000681746F1069F
:103FA00003D53622BF210E4009E0392149014118CD
:103FB000897C890702D4002005B0F0BD3322310787
:103FC000890E08180121C9024018C06C31460FF053
:103FD000FBFA040014D00298A0800A982346806857
:103FE0002A460830C0190079E0802572B91D0933CE
:103FF0000A9809F0CDF9214630460FF0D1FADAE7F8
:104000000720D9E73C180020F8B5044690680F4611
:1040100001461546467B0E3102226846FCF7F7F949
:10402000A8680223057C1548E10603D53522BF2187
:104030000C4009E03922016852018918497C0906BF
:1040400001D40020F8BD322221070068890E08182B
:104050000121C9024018C06C21460FF0B5FA0100D9
:1040600009D08F808E716A4612880A818D7220462F
:104070000FF096FAE5E70720F8BD00003C18002095
:1040800070B50E4601230446C10612481546006865
:1040900003D53422BF210C4006E0392149014118E3
:1040A000897CC90711D031222107890E0818012106
:1040B000C9024018C06C21460FF086FA010006D0F4
:1040C0008E808D7120460FF06BFA002070BD0720A6
:1040D00070BD00003C1800200170090A4170704753
:1040E00001784078000208437047134610B5020774
:1040F000920F05D00A4619460220FFF791FE10BD27
:10410000820605D50A4619460220FFF7D3FD10BDE9
:10411000820705D50A4619460220FFF78FFD10BD1C
:10412000C007FCD00A4619460220FFF73BFE10BD2F
:10413000F8B5069C1F4615460646002C13D0A0680D
:1041400002220D30FCF763F9E81E82B23B460721DC
:10415000204609F00DFAE580A068012E05D01D214A
:1041600001730020F8BD4720F8BD1B21F8E70000CF
:10417000F1B5FFB001248BB0600205900027CC4858
:1041800007970168CB48C94D081803908A980AAA76
:104190000005000D05A90BF071FD0690002872D1F5
:1041A00004260AA805994218203AD27F0B2A23D068
:1041B0000026002004900AA88119022201A8029179
:1041C000FCF725F96846818809AB08AA039801F035
:1041D00033FC012817D002287ED0684680888542AB
:1041E00000D30546844200D92046044602988078D0
:1041F000012872D013363CE1491E761E3604059123
:10420000360CCFD1D5E708980090002F66D10099E1
:10421000022228310298FCF702F900281ED10098EA
:104220002030017B02988078814217D1012808D183
:104230000098029902220830C91CFCF7F0F8002807
:1042400015D002988078022808D10098029910228F
:104250000830C91CFCF7E3F8002808D00098008D4E
:10426000A84200D80546A04200D220460446029942
:104270000AA88978012907D013360599B6B28E426B
:1042800004D3012707E006E1761DF6E78119022233
:1042900001A8FCF7BCF80399009808318E462FE07E
:1042A00084466946026A8B8820300DE0918B9942E2
:1042B00003D3012F7ED199427CD9A94200D80D4663
:1042C000A14200D30C4612688242EFD10498002824
:1042D00004D16046006802E015E0BFE08AE0704566
:1042E0000ED0018D994203D3012F09D1994207D9EC
:1042F0008D4200D30D468C4200D80C46012F59D177
:104300007045CDD1BAE008980090002F72D1009985
:1043100002221C310298FCF782F800281ED1009876
:104320002030C17802988078814217D1012808D1C5
:104330000098029902220830C91CFCF770F8002886
:104340001AD002988078022808D100980299102289
:104350000830C91CFCF763F800280DD00098808B4A
:10436000A84200D80546A04200D220460446029842
:104370008078012826D003E002988078012805D0B3
:1043800013360798B6B201281ED021E000984A499A
:104390000089884216D18A98FFF788F8014600986C
:1043A00000F08CF80099098C4843009989694018FD
:1043B000022200E038E00299491DFCF728F80120AC
:1043C0000790D4E7761DDCE7B61C0020B6B2079054
:1043D0000598864201D3012705E00AA88119022227
:1043E00001A8FCF714F8039A0099083209980968A3
:1043F000944630E01AE086466A46938820300DE005
:104400008A8B9A4203D3012F0ED19A420CD9AA4229
:1044100000D81546A24200D3144609688142EFD164
:10442000049800282AD102E00120049026E070467A
:10443000006860450FD0028D016A9A4203D3012FB4
:1044400009D19A4207D9954200D31546944200D823
:104450001446012FE8D16045CDD10FE00298C07815
:10446000022805D102980079292801D1B61CB6B2DC
:10447000761D0598B6B2864200D301270598811BA8
:10448000042902D3864200D293E604980028FBD187
:10449000A54203D906987FB00CB0F0BD224629464C
:1044A0008A9801F00FFB0690F5E70000FFFF00007F
:1044B0003C180020640700000229000030B50246C5
:1044C00023239B5C0020012B1AD112890D4B9A42A9
:1044D00016D10D4A092312681B02D318A032DB6ED5
:1044E000127B0AE045010C885D5B24052D05240D37
:1044F0002D0DAC4204D0401CC0B28242F2D8002044
:1045000030BD0000022900003C18002006490922A5
:104510000968120289188008C96E400108180188CC
:10452000002900D1002070473C18002010B5044637
:10453000022000F033F80D48002102680920000233
:104540001018A032C36E107B05E04A019A5A002A67
:1045500004D0491CC9B28842F7D810BD48011C528A
:10456000C018026904210A43026110BD3C180020F2
:1045700010B504460146042002F0F2FC002808D0E1
:10458000044805490068401821463C300FF07EFE83
:10459000432010BD3C1800206407000004490A684D
:1045A0003D21490151180A7B02430A7370470000FC
:1045B0003C18002000B51138C0B2FFF7A7FF002853
:1045C00004D00122016952051143016100BD0000C0
:1045D000F3B597B00D8848880590081D1DC80DAE2D
:1045E0001DC68C8ACE8A087E1390C869203101903E
:1045F000087800904878049088780390C8780290F2
:104600000F7900F04BFD002817D1012040028442B1
:104610005FD8B4425DD8002F01D1B44259D114A95A
:10462000284601F037FA002806D115AA14990598F2
:1046300001F020FA002802D0602019B0F0BD149DCE
:1046400011A92846183009F09BFB10A88088002883
:1046500010D0284612A9203009F092FB10A88388B8
:1046600000892A8D1818696A10188A8B904203D124
:104670006120E2E74820E0E715982C4B02899A4236
:1046800027D12322125C012A23D1006800681690EA
:10469000139801281FD16846808E29221202801AA1
:1046A000030001F008FD0604180404070A18022C90
:1046B0000FD110E0072C0CD10DE0042C09D3E0073A
:1046C00007D1012F07D1A64203D3042E01D3F0074F
:1046D00001D04220B1E702980B90039B049A0A9301
:1046E00009920098019A0C970890069605940792F3
:1046F0000DA81DC8019002A81CC013980B4600907D
:104700002A461699179800F0B1F9002895D1684605
:104710000649808EFF31884205D017980188002015
:104720000A4601F0CFF9002087E7000003280000C7
:10473000F3B5A5B008881A9088780C46119010221D
:10474000091D13A8FCF712FAA08A1090A17D6846F3
:104750000172E07D0F90207E2090677EA07E1F90EA
:10476000002006460146129020A801810F20BB4C74
:104770002390BB4920684018199000F08FFC002856
:104780000BD101211098490288425FD821A91A98BB
:1047900001F080F9002802D0602027B0F0BD2198F8
:1047A000179009F091FA1A9988420CD102A8019049
:1047B0001698009013AD0ECD119809F049FA002813
:1047C00001D06320E9E76846017A8806800F05D0AA
:1047D000012012902068A030007B4600C80703D05B
:1047E0001298401CB61C1290080603D51298401C63
:1047F000B61C129017980DA918301D9009F0C0FA38
:104800006846129C808EA41CA04237D317980EA92C
:104810002030019009F0B4FA6846018F00290DD0CC
:104820001798179A6B46406A9B8E128D5918808B89
:104830005118081AA04201D26120AEE71798846986
:1048400011982568012803D0022803D04220A4E74C
:10485000052000E01320E0832A4639460F9809F02E
:1048600045FA422899D0199FE28B4037788B398BD3
:10487000411A109810188019814201DA48208CE7FB
:104880000EA9019809F07CFA6846008F0028179855
:1048900002D0406A808B00E0008D2599401C088082
:1048A000259801210088A083259802220088401CB9
:1048B000A8836C482081204620301790C1700021C9
:1048C000817081711998398B406D40186946A061DB
:1048D000097A0170A06929461C31401CFBF797FD3D
:1048E00011980128A0697DD0102213A9C01CFBF7E4
:1048F0008EFD2846102213A90830FBF788FD388B5F
:10490000133038832E4620361198F0701098E883C3
:104910001F98B07010982084109828841998398BAB
:10492000406D4018A8610021109AFBF774FD398B87
:1049300010980818388317990120087117990020DA
:10494000487130716846007A810701D501213171C3
:1049500001070227002902DA317939433171410711
:1049600003D53179042211433171400603D53079E2
:104970000821084330710F9870712098B07121465A
:104980001D9809F026FA2146019809F003FA2946F4
:104990001D9809F01EFA2946019809F0FBF91298B2
:1049A000002841D068461A998181A18BC181078472
:1049B0004784012408A8047122A80A9008A88473D7
:1049C000239941730F993820014008A801730721EA
:1049D000C173002505746846007AC00708D02248D4
:1049E000694600E02BE0088203A924A8FFF7F0FD48
:1049F0006846007A8006800F07D01B486946401E33
:104A0000088203A924A8FFF7E3FD6846007A0006A0
:104A10000AD5292109026846018208A84473057352
:104A200003A924A8FFF7D4FD259801881298401CFB
:104A3000081882B2002001F045F80020ADE60222FD
:104A400013A9C01CFBF7E3FC2846022213A9083077
:104A5000FBF7DDFC388B401D53E700003C180020BD
:104A6000640700000328000003290000FFB5524836
:104A7000524A006887B08218069210AA109B01263D
:104A8000169F9288012B04D14D4B9A4201D1A03040
:104A9000067B069D34464035688B2B8B7C43C31ABE
:104AA000099820300390A34222DA48200BB0F0BDD1
:104AB0002320405C012819D108896C462080984247
:104AC0000CD03F4C641EA04208D0641CA04205D00C
:104AD000641CA04202D0A41CA04207D1384CFF3C69
:104AE000A04201D0904201D16220DFE7096801E0D5
:104AF00029231B0203988142DAD109981B99846902
:104B00001898224609F0F2F84228CFD01C980128C4
:104B100004D11598874201D24220C7E71598E08357
:104B2000204620301C990590817027840A98808B3C
:104B3000401CA0831098012814D02046102211A9EF
:104B40000830FBF764FC05991098C8700698298B0B
:104B5000406D4018A061298B38467043081828839F
:104B600000250FE011A80FC808340FC4183CEAE76D
:104B70002846A16978430818159A1799FBF747FC4E
:104B80006D1CEDB2B542F3D305991898487105999B
:104B90001998087105991A98887109982146183052
:104BA00009F017F92146039809F0F4F80798A18B4A
:104BB000018000207AE700003C1800206407000014
:104BC00002290000FFB58FB014460E78102205A808
:104BD000891CFBF7CBFF4F484F490068451800F090
:104BE0005DFA00281ED1002C57D0012E09D168464D
:104BF000808A4A49884204D12846A96808308142FF
:104C00004BD12846103029690390814209D00AA966
:104C1000284609F0B5F86846018D601E0D90814266
:104C200002D2482013B0F0BD284608300CA90490E9
:104C300009F0A6F86846008E002814D0EF680AA98B
:104C40003846183009F09CF8384620300CA909F095
:104C500097F86846398D008D09186846008E401C0B
:104C6000081887B200E0012701200004C01BA04201
:104C700001D26120D6E72C6928680190129801289A
:104C800002D0022803D008E00520C00200E024483A
:104C90006085012E03D0022E05D04220C2E72046B7
:104CA0000830022202E020460830102205A9FBF756
:104CB000AEFB204631462030064601730F98214650
:104CC00007802785039809F084F82146049809F0A5
:104CD00061F827461837E7616662A76126620D987A
:104CE00084B20BE02846019909F073F8384601991F
:104CF00009F050F82868641EA4B20190002CF1D18C
:104D00000F9801880D98081882B2002000F0DAFE92
:104D1000002087E73C18002064070000011800000D
:104D200001280000024608480849006841188868C0
:104D3000083103E0038D934202D200688842F9D122
:104D4000884200D1002070473C1800206407000012
:104D5000034610B50E480F490068411888680831AD
:104D600003E0148D9C4203D8104602688A42F8D1B1
:104D70008A420CD1018D994209D20146026A203142
:104D80008A4203D0416A898B994200D2002010BD2B
:104D90003C18002064070000024610B50B481205BD
:104DA0000168092000020818C36E0020120DA0310E
:104DB000097B07E044011C5B2405240D944203D0C9
:104DC000401CC0B28142F5D810BD00003C18002044
:104DD000F7B50546174601980FF028FA2E05044648
:104DE000360D0CE0A0882568B04207D12146019815
:104DF0000FF069FA3946204608F066FB2C46002C75
:104E0000F0D1FEBDF0B58BB000206349029063483D
:104E10000A68141872B610464030C57902231D4343
:104E2000C57162B625464035287AC0077DD0092075
:104E3000000210180026C76E49E071017A5A002A54
:104E400043D0C919069109694A021ED48A0226D59F
:104E5000022104910699012309880905090D03918E
:104E6000392149014118097C89070ED5D90208303A
:104E700040182322C06C02210EF0A6FB010004D0D2
:104E8000039A8A8004980EF08BFB069800880090A5
:104E9000069800F085F800980DF056F915E04807DF
:104EA00013D5069800880005000D0DF0DFF80028E6
:104EB00005D1069800880005000DFFF759F90699FD
:104EC00004200969814306980161761CF6B23248D4
:104ED000AC210068095CB142AFD800F01BFF20464E
:104EE000243006460FF0E8F9012802D0012000F036
:104EF00015FE204618300FF0DFF9012802D00020FF
:104F000000F00CFE3C3420460FF0D6F901280FD0FB
:104F100002A920460FF0F9F90420029902F020F8C6
:104F20000028F0D02046029900E032E00FF09BF913
:104F3000287A00062DD530460FF0BEF9012828D179
:104F4000002008F041FAA98B23314909491CC9B254
:104F5000FBF796F900281CD00F4D04462868012362
:104F6000D9020830401842263822C06C31460EF073
:104F70002BFB01000DD000228A80CC8030460EF041
:104F80000FFB3D212A68490151180A7B802082438A
:104F90000A730BB0F0BD00003C180020640700004D
:104FA000F0B504463B483C49006885B04518218A65
:104FB000890419D502210491392149014118897CBC
:104FC000412627880123C9070ED0D902083040188E
:104FD0003122C06C02210EF0F7FA010004D08F805C
:104FE0008E7104980EF0DCFA2946208801221831CF
:104FF000FFF7EEFE2946208801223031FFF7E8FE58
:105000002946208801222431FFF7E2FE2946208824
:1050100000223C31FFF7DCFE20880005000DFFF781
:10502000BBFE8500294611316846017301F072FD0F
:10503000294612316846017301F06CFD294613318F
:105040006846017301F066FD68461435057301F08A
:1050500061FD208800F03CFA208801050D48090D0B
:1050600002681320C0011018028A914201D1002168
:105070000182E069002802D0012108F025FA2022EF
:1050800000212046A568FBF7C6F91720A5606080BF
:1050900005B0F0BD3C1800206407000010B50B48B7
:1050A0000B49006844184034207AC00709D000201A
:1050B00008F08AF9217A890701D5002803D0002059
:1050C00010BD472010BD642010BD00003C1800201A
:1050D00064070000F0B55FA099B000685E491590C4
:1050E0005E4A08688418092212028218D26E254688
:1050F000403514922A7AD20702D0622019B0F0BD4E
:10510000AA8B01235B029A4201D9AB8303E0172AE1
:1051100001D21722AA83149AA0301392067B0DE0C5
:10512000761EF6B2139871010F18B8680F903846C2
:1051300020220021FBF76FF90F98B860002EEFD105
:1051400020460830E0606460A0602460083013905E
:1051500060612061FF22002108300FF07CF82046BA
:10516000FF22002124300FF076F82046AA7F00218C
:1051700030300FF070F82046FF2200213C300FF055
:105180006AF800222A7210461721334B05E0149E5C
:105190004701BE19401C7180C0B21E68A036367B24
:1051A0008642F4D8002028832F8C688C0026149027
:1051B00008E02820E16C70430918204608F0EAFD59
:1051C000761CB6B2BE42F4D3002608E03020216D32
:1051D00070430918139808F0DDFD761CB6B21498D8
:1051E0008642F3D30120FFF7D9F901246846047001
:1051F0001B4941802346042269460CA8FFF7E2FCC4
:10520000002822D16846018E818216490183042636
:1052100006858475202108A881720024C472047355
:1052200007214173847305A90DA8FFF781FA0028AF
:105230000BD1684604874687818E15AB0EAA008E77
:1052400000F0FEF9002800D158E70020287247201E
:1052500054E700000000FFFF3C1800206407000036
:1052600001180000052A0000F8B5044683480E46E0
:105270000068834947184820C05DC0076FD0B088D8
:10528000FEF714F90546012C02D0002C68D0F3E09B
:10529000002D04D02869410703D54520F8BD012120
:1052A000C7E0B268F188147B0029F0D062060AD505
:1052B00068888842F3D3D22C01D0522CEFD13846E3
:1052C0003146183048E0A106890E1E2949D81E2C07
:1052D00020D101071ED50821884328612988012093
:1052E00008F040FD0121304608F0EEF86348012344
:1052F0000068D9020830401842242D883922C06C39
:1053000021460EF061F9010003D08D8020460EF099
:1053100047F9B1E0E1070BD01D2C1AD01B2C18D097
:10532000410533D4012189020843EE612861A3E0DD
:10533000C00606D52B4602220321422000F07EFE45
:10534000ADE72988002008F0FBFC29691020014303
:1053500029613846314624300EF098FF8CE015E084
:1053600016E029882022002008F052F805000DD010
:105370000121304608F0A8F82B46002221460620DD
:105380000FF074FB2846FFF7F3F875E04120F8BDF5
:10539000B068047B1D2C3CD01B2C43D00021304630
:1053A00008F092F8002D67D0032C46D0052C44D08D
:1053B000072C42D0092C40D00B2C3ED00D2C3CD0D9
:1053C0000F2C3AD0112C38D0132C36D0172C34D0C7
:1053D000192C32D0012C30D0022C35D0042C33D0F3
:1053E000062C31D0082C2FD00A2C2DD00C2C2BD0F1
:1053F0000E2C29D0102C27D0122C25D0162C23D0DF
:10540000182C21D0522C1FD0D22C1DD01E2C2FD0C6
:1054100032E0002D03D02988012008F091FC3146AC
:10542000022001E03146012000F052FD002823D087
:105430000021304608F048F81EE029691020814319
:1054400029612988002015E02869402188432861C6
:10545000010511D5FF210131084328612988022067
:1054600008F06EFC01202969C0028143296103E034
:105470002988032008F076FC0020F8BD3C180020A5
:105480006407000010B5104A104B1268D218403261
:10549000127AD20706D002280AD0052804D00B2899
:1054A00010D101E0412010BD4888FFF73FF809E026
:1054B0004888FDF7FBFF002804D00122016992050E
:1054C00011430161002010BD3C180020640700005A
:1054D000F1B5FFB085B047200190002069460880F3
:1054E00053485449006847188498FDF7DFFF02903D
:1054F000002874D0B96808374FE0684600880D4628
:1055000004AC20186B460222283100F0C5FD684625
:105510000088294620186B4601222C3100F0BCFD82
:105520002E462036307B69460128098804A809D018
:1055300040186B4610222946083100F0ADFD01905D
:105540002C6A27E040186B460222F4E76946098876
:1055500004A8401821466B4602221C3100F09CFD35
:105560006946098804A8401821466B460122233168
:1055700000F092FD2320005D69460128098804A8F7
:1055800030D0401821466B461022083100F084FDCF
:1055900001902468B442D9D12968B942ADD10198AB
:1055A00000281CD16846008881070AD0224A011DC4
:1055B00011406A4611800A1A04A908180B21FAF74B
:1055C0002AFF029800880CF051FD002807D184982A
:1055D00069460005000D04AA09880AF087FA7FB021
:1055E00006B0F0BD401821466B460222083100F09B
:1055F00053FD0190208911498842CAD12046029961
:10560000FEF75CFF4000A16903906A460918128802
:1056100004A880186B46022200F03EFD0190A169AB
:105620000398022208180021FAF7F5FEB1E70000FE
:105630003C18002064070000FCFF00000229000065
:10564000F0B5074617480E4600683D21490140184D
:10565000007B85B01D461446C00706D003A9384616
:1056600000F018FA00280AD102E0472005B0F0BD8A
:1056700004AA3046039900F0FDF9002801D060200B
:10568000F4E70499228860880968002A00D0088C11
:1056900032466E4631C603233946002000F004F836
:1056A000E4E700003C180020FFB5002099B0239AE1
:1056B0000B90129005461490064615901C46DB4848
:1056C0000B460068DA49229F411803910021089196
:1056D00009915188069111880A913D21490140188C
:1056E000007BC00706D00FA9184600F0D3F90028A8
:1056F0000AD102E047201DB0F0BD10AA0F991B98F7
:1057000000F0B8F9002801D06020F4E719980028CB
:1057100003D0600701D5012000E000201390A0070E
:10572000800F1C90109817902030C078012840D12D
:105730001798C04B01899942F9D1179806990468C6
:105740000A98228C4118914233D820462030169076
:105750008078012816D0E08B049017988069007833
:105760008006800F7ED0039840301890007A800722
:1057700078D51C980028F5D0AE4F0F99FF3720310F
:10578000206814E0BA4214D3B942DDD80497E4E7A4
:105790000389A84A934203D12322125C012A08D02C
:1057A000BB4203D12322125C012A03D00068884245
:1057B000EED134E105900028FBD09C480921026815
:1057C00009025118C96E0027009162E07801009922
:1057D0000390085A01055AD01999002901D088422E
:1057E00055D105997A008B69511C595C9A5C090264
:1057F000891889B20D91890749D0022205990FF0C5
:10580000B3F9002804D01998002840D0652072E729
:10581000002008A9C8551C98C00718D0179880699F
:105820000078C00613D50D98C00710D00120C855C8
:105830000543009A039880184088159A904206D92B
:105840001590009A0398105A0005000D14901C98AA
:1058500080071CD5179880690078800617D50D98A9
:10586000800700E083E012D50220CA5D05430243B1
:10587000CA5500990398401840881599884206D95E
:10588000159000990398085A0005000D14907F1C8C
:10589000FFB266480068A030037BBB4296D8002D5B
:1058A00065D01898007A00065FD460480168092026
:1058B00000020818C16E00201BE042018E5A360516
:1058C00015D0AE070BD556183669B7070DD408AFFB
:1058D0003F5CBF0703D5360701D546200BE7EE072F
:1058E00005D05218127CD20701D0432003E7401C98
:1058F000C0B28342E1D81598C01E86B20498864291
:1059000000D90646A8070FD520220020149907F0D9
:105910007FFD129000287DD0F01C82B200211298E9
:1059200000F0F4F8002811D1E80720D02022002050
:10593000149907F06DFD0B90002807D0F01C82B27F
:1059400000210B9800F0E2F8002810D08020FEF72C
:1059500025FE1298002802D0002107F0B5FD0B9813
:10596000002802D0002107F0AFFD6420C3E6A16942
:105970000A98069A08182499FAF749FD169880782B
:10598000012801D10498E083002D46D0274B09203F
:10599000196800020818C16E002008AA0CE0430133
:1059A000CF5A3F0506D05F18BC463B69175C3B43A6
:1059B00067463B61401CC0B21C4B1B68A0331B7B7D
:1059C0008342ECD8A8070DD512980090F01C82B243
:1059D00021461C310220A369FEF7AAFB022012997E
:1059E00000F076FAE80718D00B980090F61C2146D4
:1059F000B2B21C310120A369FEF79AFB139800286C
:105A000005D00B988021C07C08430B99C8740120F5
:105A10000B9900E005E000F05BFA00206BE6422005
:105A200069E68020FEF7BAFD9FE700003C180020E1
:105A30006407000003280000F0B58468083015E012
:105A4000258D8D4203D1146018600120F0BD2646DB
:105A50001C602036256A06E0AF8B8F4202D10220FF
:105A60001560F0BD2D68B542F6D124688442E7D1B7
:105A70000020F0BD10B50B6A203106E09C8B8442FB
:105A800002D10020136010BD1B688B42F6D141206B
:105A900010BD000010B5094A094B1268D21893686E
:105AA000083206E01C8D844202D100200B6010BD3C
:105AB0001B689342F6D1412010BD00003C18002025
:105AC0006407000030B50F4B0F4D1B6804465B198F
:105AD00040331B7A412085B09B0710D56B469981D6
