:020000041004E6
:1000000000600020D10B0410470F0410490F0410AA
:10001000AA5555AA45554C420000000000000000BA
:100020000000000000000000000000004B0F041062
:100030000000000000000000270A04104D0F04100B
:10004000550F0410290A04100000000000000000F1
:10005000A90F04102B0A0410B10F0410370A041062
:100060000000000000000000000000000000000090
:1000700000000000390A04103B0A04103D0A041075
:10008000000000002D0A04102F0A0410310A041089
:10009000330A0410350A0410250A04103F0A04101C
:1000A0000000000000000000000000000000000050
:1000B0000000000000000000000000000000000040
:1000C000EFF31482EFF309811C4880F31488BFF327
:1000D0006F8FF0B543464C4655465E466746F8B4CA
:1000E000174CEFF30883236006B4164C2068164CB7
:1000F0002060164C2068164C2060164C2068164C68
:100100002060164C276800202060BFF34F8F30BF5F
:1001100027600B4C246884F3088882B003BCF8BCC9
:100120009846A146AA46B346BC46F0BC04BC80F340
:10013000098881F31488BFF36F8F10470000000017
:100140000800002004ED00E04817002024ED00E046
:100150004417002000E200E04C1700200800204077
:1001600003B47146490840004900095E49008E44C5
:1001700003BC7047002243088B4274D303098B42AF
:100180005FD3030A8B4244D3030B8B4228D3030C67
:100190008B420DD3FF22090212BA030C8B4202D309
:1001A0001212090265D0030B8B4219D300E0090A31
:1001B000C30B8B4201D3CB03C01A5241830B8B423A
:1001C00001D38B03C01A5241430B8B4201D34B0323
:1001D000C01A5241030B8B4201D30B03C01A524188
:1001E000C30A8B4201D3CB02C01A5241830A8B420D
:1001F00001D38B02C01A5241430A8B4201D34B02F6
:10020000C01A5241030A8B4201D30B02C01A524159
:10021000CDD2C3098B4201D3CB01C01A524183090D
:100220008B4201D38B01C01A524143098B4201D347
:100230004B01C01A524103098B4201D30B01C01A72
:100240005241C3088B4201D3CB00C01A52418308EC
:100250008B4201D38B00C01A524143088B4201D319
:100260004B00C01A5241411A00D201465241104679
:100270007047FFE701B5002000F006F802BDC04658
:100280000029F7D076E770477047C0464378027878
:100290001B021A438378C0781B04134300061843DB
:1002A0007047C046030A4B7003021B0E8B70030E8F
:1002B0000870CB707047C04603005A78007812026D
:1002C00002439878197900040243D8780006104355
:1002D0005A7912020A43997909040A43D97909061D
:1002E00011437047030A5370030C9370030ED370CD
:1002F0000B0A53710B021B0E93710B0E10701171D0
:10030000D3717047024A1368013313607047C046C7
:1003100000030020C021074A074B08485360036AC6
:1003200009061B021B0A0B43036200239360073379
:100330001360704710E000E0FE7C000000ED00E07C
:10034000124AD3691B061B0F4370D9B2D369104AF6
:100350001B071B0F83700F4B1B684360934212D126
:100360000D4B1A680D4B9A420BD1042303700029E0
:1003700001D1012343700A4B9B8A01339B008360A8
:1003800070470223F2E70123F0E7C04600009040E7
:1003900041A00002280090401C00001044A000F280
:1003A00000001040F0B5070085B001AC0E00200041
:1003B0001500FFF7C5FF23783B7063783370A3788F
:1003C0002B7005B0F0BD10B501F0A2F810BD10B54E
:1003D00001F0BAF810BD10B501F08CF810BD0000A6
:1003E000024A138ADB07FCD57047C0460000104064
:1003F000084B10B51A68084B9A4209D13F22074BA7
:1004000040061A81000C2E3A98611A80FFF7E8FF27
:1004100010BDC04614000020CCBCECFC0000104015
:10042000084B10B51A68084B9A4209D13F22074B76
:1004300080081A810C3A986119641A80FFF7D0FF7E
:1004400010BDC04614000020CCBCECFC00001040E5
:10045000F7B5037901680193002B2BD18022D205D7
:1004600053688B435360802200240F27D2050B0072
:100470000125E3402B420BD0E6B2A300072C24D881
:100480003D009D40D66AAE43019D9D402E43D662FD
:1004900001341A2CEBD180234279DB05012A3DD1AE
:1004A000DA680A43DA608279012A3AD19A681143FC
:1004B0009960F7BD019B062BD5D18022D2055368E8
:1004C0000B43536000230193CDE708256D42AC46F2
:1004D000B4446546072D09D83D00203B9D40166B6E
:1004E000AE43019D9D402E431663D1E7103E072E7B
:1004F00009D83D00403B9D40566BAE43019D9D4059
:100500002E435663C4E73D00603B9D40168FAE43CB
:10051000019D9D402E43B6B21687B9E7DA688A433B
:10052000C0E79A688A439A60C3E78023DB051B68AB
:100530001840431E9841C0B270478023DB05986283
:1005400070478023DB055B6A1840431E9841C0B2A8
:100550007047C02380211B061A680A431A601A6874
:100560008A431A6070470000044B1A6A012902D1BD
:1005700010431862704782431A62FBE70000904004
:10058000274B284A197A1289CBB292B200293CD162
:1005900009201040093843425841112340011340BB
:1005A000112B01D12F33184321231340212B01D1CB
:1005B0008023184341231340412B02D180235B0049
:1005C000184381231340812B02D180239B001843C1
:1005D00002231100FF331940994202D18023DB002E
:1005E00018431100104B1940994202D180231B017E
:1005F000184305231340052B01D110231843D24380
:10060000930701D10823184370470120022BFBD028
:100610000220042BF8D0083B584258418000F3E7F1
:10062000000090400000104801040000054B01222A
:10063000196B002802D00A431A637047914319636B
:10064000FBE7C04600003040F8B54A4C0500236B7C
:1006500001681B0700D56DE009014748FFF78AFDD7
:10066000C3099AB2A284454ADB0101301340C31A80
:100670005B089BB23F2B02D93F223F3B134003272D
:1006800060263F4ADBB213703E4B2A7918783A4015
:100690005201B0431043187001206979227F39401C
:1006A0004901B2430A432277AA7919780240BA4035
:1006B0000730814311431970217F81430A43227718
:1006C000EA79002A38D102211A788A431A70227FE7
:1006D0008A43012022772A7A216B1600C2402A4FD2
:1006E00006407602394031432163216B274E024098
:1006F000314012020A432263697A226B0E00C14024
:10070000234F06403A40B60332432263226B214E08
:1007100001403240C90311432163AA7A197802408B
:100720000F301201814311431970237F83431A4311
:100730002277F8BDC90090E7022A0CD1042019786D
:1007400011431970197881431970217F0A43227768
:10075000227F8243BDE702211A780A431A700422DD
:10076000187810431870207F01432177217F0A43B6
:10077000AFE7C046000030400000127A80FF7F00E3
:10078000280030402C003040FFFDFFFFFFFEFFFF40
:10079000FFBFFFFFFF7FFFFF024BC005C00D1880AA
:1007A0007047C04600003040014B1888C0B2704707
:1007B00000003040054B002805DA5B681840431EF6
:1007C0009841C0B270471B8BF8E7C046000030402C
:1007D000034B9B8F1840431E9841C0B27047C046E0
:1007E000000030400721044A084013783131C0002E
:1007F0008B430343137070473400304010B5094CED
:10080000002801D0012805D000F006F90138C00009
:10081000205805E000F000F90138C00020184068B9
:1008200010BDC0468C0F051010B504002020FFF746
:10083000C1FF0128FAD0A0B2FFF7AEFF10BD000043
:1008400070B5012186B006000920FFF78DFE00F08B
:10085000E3F81B4B01388000C3580025019300F0DA
:10086000DBF8184B0138800001ACC358200023711D
:10087000A5716571FFF7ECFD00F0CEF8124B013861
:100880008000C358019300F0C7F8104A431E9B0034
:100890009B5820002371FFF7DBFD0D4B6A46049344
:1008A00003230124938203A894750396FFF7CCFEDB
:1008B0002800FFF797FF2000FFF7B8FE06B070BDD5
:1008C000880F0510840F0510800F05107C0F051090
:1008D00003030000034B10B51B68002B00D09847A2
:1008E00010BDC0460403002007B51020FFF770FFBD
:1008F000002809D107BDFFF757FF6B46D8710733B2
:1009000001211800FFF7E6FF1020FFF753FF002832
:10091000F1D0EFE701000A4A0A4810B513680468ED
:1009200001209C4209D00848C05C01330870802136
:100930000020C9008B4201D0136010BD1060FCE79D
:100940000C070020080700200803002010B5040051
:10095000C0B2FFF769FF200010BD0000094A030084
:100960001168002901D10849116010680749C318AE
:100970008B4205D90C220120054B40421A6070477A
:100980001360FCE71017002010070020101700204C
:100990007817002001204042704780239B010020EF
:1009A0004B607047012070470020704770B50E0003
:1009B00014000025A54201DB200070BD705DFFF72B
:1009C00033FF0135F6E770B50E0015000024AC4288
:1009D00008D23019FFF79EFF002801D10134F6E755
:1009E000002CF4D0200070BD10B500F091FD10BDBA
:1009F00010B500F08DFD10BD10B50A00002100F00B
:100A0000A3FD10BD10B5FFF7F7FF10BD0122014B8C
:100A10001A70704714170020014B1878C0B2704745
:100A20001417002070477047704770477047704731
:100A300070477047704770477047704770477047FE
:100A4000002210B5104B995CC8B2002917D11C2A9E
:100A500014D8212402319954511C5C54911C193C26
:100A60005C54D11C58549B18802290219BB2520296
:100A70001343C905CB60CB681342FCD110BD995C10
:100A800001315218D2B2DEE715170020002330B52D
:100A90000E4AD15CCCB2002913D11C2B08D83525C5
:100AA0000231D154591C5554991C03335054D45419
:100AB0000222074B1A7033325A7000229870DA7093
:100AC00030BDD15C01315B18DBB2E2E715170020C5
:100AD0001C00002080220E4B520230B59CB2110047
:100AE0001443002806D09023DB05DC60DA680A4254
:100AF000FCD130BD042598789978C0B2A94399708B
:100B00009021C905CC60CC681442FCD19870F0E704
:100B10001C0000200123274A30B5117A03240B431F
:100B200013720022244B85B01A60FFF729FD6B4633
:100B300058805A880233002A03D1013CE4B2002CC9
:100B4000F3D11A881F2A32D91B885B0510D401A85B
:100B5000FFF7F6FB6B465A799B7912011A43174B44
:100B60001B681B0711D4112A02DD0120FFF7B2FF19
:100B70000122134B1A70FFF7CCFABFF34F8F114BC2
:100B8000114ADA60BFF34F8FFEE790250F4CED0559
:100B900028692368283B1B1A1B02002BE8DD112A59
:100BA00002DD0120FFF796FF23686B60E0E701207C
:100BB00005B030BD0000204014000020C00000201F
:100BC0000C00002000ED00E00400FA0518000020F1
:100BD00010B5FFF79FFF012813D1124A124B13499A
:100BE0008B4214D3124A134B13498B4212D3002168
:100BF000124B134A934210D30021124B124A9342D4
:100C00000DD3124B83F3088800F04EF910BD01CAD2
:100C100001C3E5E701CA01C3E7E702C3EAE702C38C
:100C2000EDE7C046C41505108817002040180020C5
:100C3000981505100800002034000020C000002096
:100C4000CC020020CC020020881700200060002089
:100C500070B58AB003AC05000E001922200043498C
:100C600000F056FC6846FFF76BFB002D60D0442374
:100C70003F4AA373117A433B0B4313724C23E37235
:100C80002C3B237292336374573B2375394B3A4A9A
:100C90001B68190C914208D17020E17D1B01814332
:100CA000E175E17D03400B43E375344B1B68190C80
:100CB000914208D1302061791B01814361716179D2
:100CC00003400B4363712E4B1B68190C914207D1F3
:100CD0000321E27D0B408A43E275E27D1343E37515
:100CE0000422E37A69469343E3726B465B78897822
:100CF00093400B43112B06DDE37D1A43E275E07D43
:100D0000C0B2FFF7C3FE802390222404240C5B02B0
:100D10001C43D205D460D1681942FCD16B466A46A7
:100D20005B7892781B011343112B01DDFFF788FEDE
:100D3000144B1A8B002AFCD001221A8316329A8196
:100D400000221A61964207D090231021DB05186912
:100D50001A6942400A42FBD0002D02D015220A4BEC
:100D60001A700A4B0A4A1A600AB070BD380E051094
:100D700000002040E807001055AA0000E40700101A
:100D8000B0070010000010480000C0401400002010
:100D9000CCBCECFC0822F8B5C027C0213B4B3C4D35
:100DA0009A803C4A3F04136A09062B403B43136276
:100DB000136AFF271B021B0A0B431362C022920017
:100DC0009446C020344B64469A58344EBA4302438A
:100DD000C0201A511A590002324002431A51C1224E
:100DE00092009C58BC433F3F3C439C509C58C027BA
:100DF000344004439C509C583F042C409C509C58C9
:100E00002402240A0C439C500832944664469A58A3
:100E1000324002431A511A592A403A431A511A5978
:100E20001202120A0A431A51C422920094466446DE
:100E30009A58324002431A511A592A403A431A51D9
:100E40001A591202120A0A431A51C52292009C58DA
:100E50002700FF24A7433F3C2743C0249F509F58AF
:100E600024043E4030439850985805402C439C50F1
:100E700098580002000A0143995001210800FFF729
:100E8000E7FE074B074A1A6262B6F8BD0000104041
:100E9000FFFF00FF00ED00E000E100E0FF00FFFFCA
:100EA0000000904066000E0007B5FFF773FFFFF7E4
:100EB000ADFDFFF72FFAE1200003FFF7C1FC10485A
:100EC00001F07CFC011E03D00E4800F045FBFEE75C
:100ED00010230D49172200930C480C3B00F03CFBFB
:100EE00000F012F9011E03D0094800F035FBFEE7BF
:100EF000084800F0BDFB01F01FFC00F0A5F9FAE77F
:100F000058100510940F0510C50F0510CB0F0510D4
:100F1000131005103E100510BFF34F8F024B034A0C
:100F2000DA60BFF34F8FFEE700ED00E00400FA0542
:100F300010B5032806D8537810781B0213211843E4
:100F400001F08BFB10BD7047FEE7704710B5FFF74F
:100F5000D9F910BD10B50020FFF750FCFFF7F1FAEA
:100F60000400012812D10020FFF748FCFFF7E5FA42
:100F70000020FFF743FCFFF7D8FA084B002806D102
:100F80001C7019780648C9B200F0E6FA10BD0022BC
:100F90001A7019780348C9B2F6E7C0463517002021
:100FA0008C100510BE10051010B5FFF79DFC10BD8C
:100FB00010B505F05DF910BDF0B510242D4D93B0BE
:100FC0002900220006A800F0A3FA291922000AA885
:100FD00000F09EFA2900220020310EA800F098FAB5
:100FE000254D2200280006A9FFF7EDF9234F29001F
:100FF000062301220220009701F065FB051E34D173
:101000001F4E22000AA93000FFF7DDF91D4B38887A
:101010000593012302950493019532000221039464
:101020000094133301F030FB051E1ED122000EA9DF
:101030003000FFF7C8F901233888134F0493029357
:101040000B33039400933200022105970195083376
:1010500001F01AFB041E08D10A4B3A8819880B4884
:1010600000F07AFA200013B0F0BD094800F000FB50
:101070004724F7E7510E051066170020621700207D
:10108000501700206017002064170020F110051091
:101090002F110510114B70B51B880E000133140081
:1010A000984208D1002503E0605DFFF74FFC013551
:1010B000AE42F9DC70BD0A4B1B880233984208D15E
:1010C0001378012BF6D1074A033311680B431360E1
:1010D000F0E70100044800F03FFAEBE76417002056
:1010E00060170020D817002050110510FA2110B504
:1010F000C0038900FFF73EF80023834200D110BDF2
:10110000C0460133F9E70000F0B508258BB008AF01
:101110002A002C49380000F0FBF906222A4906A8CB
:1011200000F0F6F90621002006AA01F000FB041EDB
:1011300006D00100254800F00FFA20000BB0F0BDEA
:101140000421012001F0EFFA01F0D8FA041E02D0C8
:1011500001001F48EFE71F4800F08AFA1623122605
:101160006B4401936E4405AB210000932A003300C9
:10117000012001F039FA041E02D001001648DAE716
:10118000164800F075FA6B4631889A8A20002300D1
:10119000019403970295009501F0B4FA041E02D061
:1011A00001000F48C7E70F4800F062FAFFF704FF9D
:1011B000041E02D001000C48BDE70C4800F058FAAC
:1011C000BBE7C046BA120510840E05106C1105105D
:1011D0008D110510B0110510CD110510EE1105107F
:1011E0000A1205103D1205106B120510941205101D
:1011F00030B50E248DB008AD22001049280000F053
:1012000087F90021080004F06DFA00209622C82119
:1012100003000690059004900390029501940090BD
:10122000520001F0F9F9011E04D0054800F094F9CC
:101230000DB030BD034800F01BFAF9E71913051093
:10124000C3120510F1120510F0B50225764CAFB0AF
:1012500023682B4204D0FFF7CBFF2368AB43236006
:101260002368DB075ED523685B075BD56F4B1D7872
:10127000002D57D16E4B0AA81A0001000832C1CACE
:10128000C1C1C1CAC1C1C1CAC1C1C1CAC1C116A8F7
:101290001A0001003832C1CAC1C1C1CAC1C1C1CA24
:1012A000C1C1C1CAC1C122A90A00683343CB43C22C
:1012B00043CB43C243CB43C243CB43C206AFAB0095
:1012C00016AA9A586E1C069222AA9A5835000792BE
:1012D0000AAA9B58089300237B73FB8105333E7356
:1012E0000593544B1888544B80B21A88534B198875
:1012F00010230293002301931033009303970F3BB5
:1013000001F000FA3100002800D06DE04C4800F0F8
:1013100023F9FA20C000FFF7E9FE062ECFD1012302
:10132000424A13702368DB075CD523685B0759D5F5
:10133000444B1B78002B55D1434B0AAD1A002900B2
:10134000183251CA51C151CA51C151CA51C151CAB1
:1013500051C116A90A00483313CB13C213CB13C2D1
:1013600013CB13C213CB13C222A90A000627304B9A
:1013700006AE083313CB13C213CB13C213CB13C265
:1013800013CB13C2BB00EA587C1C069216AA9A58CB
:101390002700079222AA9B58089300237373F381B6
:1013A000053334730593234B1888234B80B21A8876
:1013B000224B1988102302930023019310330093CA
:1013C00003960F3B01F09EF9210000281ED11C4816
:1013D00000F0C2F81D48FFF789FE0C2CD2D1012382
:1013E000184A13702FB0F0BD194800F0B5F819482D
:1013F000FFF77CFE059B013B0593002B00D070E7B7
:1014000005223100144800F0A7F8EBE7104800F07F
:10141000A3F81048FFF76AFE059B013B0593002BDC
:10142000C1D105222100EDE7D81700203817002090
:10143000840E051036170020601700206217002068
:101440002813051039170020040F0510409C0000D8
:1014500038130510204E00005E130510034B044A9C
:101460001980012311680B43136070473617002061
:10147000D81700200121104B1A688A431A600222F3
:1014800019680A4304211A601A688A431A601A68A4
:101490001C318A431A601A6808490A401A601A689F
:1014A00007490A401A601A6806490A401A601A6811
:1014B00005490A401A607047D8170020FFFEFFFF59
:1014C000FFFDFFFFFFFBFFFFFFF7FFFF10B5080069
:1014D000029AD9B2FFF7DEFD10BD00002021024ABA
:1014E00013688B4313607047D817002010B500F0C5
:1014F00018F810BD30B500240139A24201D10020F6
:1015000005E0035D01340D5DAB42F6D0581B30BDE4
:10151000002310B59A4200D110BDCC5CC4540133F5
:10152000F8E710B5884202D98B18984203D30023FC
:1015300007E08B5C8354013AFBD210BDCC5CC454F1
:1015400001339A42FAD1F8E703008218934200D19E
:10155000704719700133F9E70FB40B4B13B51C68D2
:10156000002C05D0A369002B02D1200000F086FAE0
:1015700005AB2000049AA168019300F05FFC16BC43
:1015800008BC04B01847C046DC17002070B5050041
:101590000E00002804D08369002B01D100F06EFA00
:1015A000AB69AC68002B02D1280000F067FA2D4B24
:1015B0009C4222D16C68636EDB0705D4A3899B052E
:1015C00002D4A06D00F0FBFAA3891B0702D52369A2
:1015D000002B29D12100280000F0AAF8002823D0F0
:1015E00001256D42636EDB0705D4A3899B0502D4F8
:1015F000A06D00F0E5FA280070BD1B4B9C4201D1A4
:10160000AC68D8E7194B9C42D5D1EC68D3E70136DA
:10161000A360002B04DAA2699A4216DC0A2914D0CE
:1016200023685A1C22601970A3683178013B002995
:10163000EDD1A360002B0FDA280022000A3100F060
:1016400021F80A25431CCDD1CAE72200280000F06A
:1016500019F8431CE8D1C3E70A2523685A1C226005
:101660001D70BFE7B0130510D013051090130510BF
:1016700010B5034B01001868FFF788FF10BDC04686
:10168000DC170020F8B505000E001400002804D077
:101690008369002B01D100F0F1F9224B9C422ED13D
:1016A0006C68A369A360A3891B0732D52369002B4B
:1016B0002FD023682269F7B2981A6369F6B2834281
:1016C00005DC2100280000F037F9002827D1A368A5
:1016D0000130013BA36023685A1C22601F706369BC
:1016E000834204D0A389DB0707D50A2E05D1210048
:1016F000280000F021F9002811D13000F8BD0A4B74
:101700009C4201D1AC68CCE7084B9C42C9D1EC6843
:10171000C7E72100280000F00BF80028C9D00126F7
:101720007642EAE7B0130510D013051090130510A8
:10173000374B70B51D6806000C00002D05D0AB6955
:10174000002B02D1280000F099F9324B9C420FD1B6
:101750006C680C23E25E93B211072DD4D90611D424
:1017600009230120336037331343A381404270BD06
:10177000294B9C4201D1AC68EBE7284B9C42E8D155
:10178000EC68E6E75B0713D5616B002908D02300FE
:101790004433994202D0300000F080FA00236363A2
:1017A0002422A3899343A3810023636023692360D8
:1017B0000823A2891343A3812369002B0BD1A02105
:1017C0008022A389890092000B40934203D021001C
:1017D000300000F01FFA0C22A35E01201A0099B21B
:1017E000024003420FD00022A26062695242A2610D
:1017F000002022698242BAD10A06B8D5402213439A
:10180000A3810138B3E7880700D46269A260EFE7DB
:10181000DC170020B0130510D0130510901305102D
:10182000F7B58B8905000C001A075FD44A68002AB7
:1018300004DC0A6C002A01DC0020FEBDE76A002FF0
:10184000FAD0002280212E682A601A0049010A403D
:101850000B4234D0606DA3895B0706D56368C01A5C
:10186000636B002B01D0236CC01A0200216A002395
:101870002800E76AB847A189431C06D12B681D2BB5
:1018800031D82C4ADA40D3072DD500236360236971
:101890002360CB0405D5431C02D12B68002B00D15B
:1018A0006065616B2E600029C6D0230044339942E5
:1018B00002D0280000F0F2F900206063BDE70123A8
:1018C0002800216AB847431CC5D12B68002BC2D021
:1018D0001D2B01D0162B01D12E60ADE74023A2892C
:1018E0001343A381A9E740230B43FAE70F69002FB5
:1018F000A2D00A680F60D21B019200229B0700D180
:101900004A69A260019B002B00DC95E73A002800A1
:10191000019B216AA66AB047002806DC402301200B
:10192000A28940421343A38187E7019B3F181B1AFA
:101930000193E7E7010040200B6970B505000C003A
:10194000002B02D10025280070BD002804D0836937
:10195000002B01D100F092F8144B9C421BD16C6813
:101960000C22A35E002BEDD0626ED20704D49B053F
:1019700002D4A06D00F023F928002100FFF750FFEA
:10198000636E0500DB07DED4A3899B05DBD4A06D65
:1019900000F016F9D7E7064B9C4201D1AC68DFE7AF
:1019A000044B9C42DCD1EC68DAE7C046B01305106A
:1019B000D013051090130510002310B50400036028
:1019C00043608360818143661900C2810361436182
:1019D000836108225C30FFF7B7FD054B6362054B5E
:1019E0002462A362044BE362044B236310BDC04630
:1019F000D923041001240410392404106524041090
:101A000010B5024900F0BAF810BDC04639190410EB
:101A100070B568254A1E55430E002900743100F048
:101A200087F9041E08D000212A00016046600C30AE
:101A3000A0606832FFF788FD200070BD10B5024835
:101A400000F0BDF810BDC0468417002010B5024854
:101A500000F0B6F810BDC0468417002010B502484B
:101A600000F0ADF810BDC0467F17002010B5024849
:101A700000F0A6F810BDC0467F17002013B5040083
:101A8000FFF7ECFFA369002B02D0FFF7EFFF13BDB8
:101A9000A364E3642365134B134A1B68A26201939A
:101AA000A34201D10123A361200000F01FF8606070
:101AB000200000F01BF8A060200000F017F80022C2
:101AC0000421E0606068FFF777FF01220921A06828
:101AD000FFF772FF02221221E068FFF76DFF01237A
:101AE000A361D2E78C130510011A0410F8B50700A2
:101AF000FFF7A4FF1F4B1E68B369002B02D1300013
:101B0000FFF7BCFF4836B4687368013B04D53368FF
:101B1000002B22D03668F6E70C22A55E002D1AD1E4
:101B20002000154B5830E360656600F047F8FFF77A
:101B30008DFF2000082229002560A56065602561D1
:101B40006561A5615C30FFF7FFFC6563A563A56473
:101B5000E5642000F8BD6834D7E704213800FFF7BA
:101B600057FF041E3060D5D1FFF770FF0C233B6098
:101B7000EFE7C0468C1305100100FFFFF7B5040026
:101B800006000027019148346368A5680093009B14
:101B9000013B009304D52468002CF5D13800FEBD2C
:101BA000AB89012B08D90E22AB5E013304D029008A
:101BB0003000019B984707436835E8E77047704756
:101BC0007047000070B50E001D000E23C95E1400A2
:101BD00096B0002907DA00232B60B3891B0611D4C5
:101BE0008023DB000FE06A4600F068FC0028F2DB8F
:101BF000F02301991B021940054BC9184B4259416A
:101C00002960EDE740230020236016B070BDC04678
:101C100000E0FFFFF7B502268B8905000C00334278
:101C200006D0230047332360236101236361F7BD9E
:101C30006A4601ABFFF7C6FF00990700280000F0D5
:101C400077F8002808D10C22A35E9A05EFD403226E
:101C500093431E43A681E4E70F4BAB628023A28926
:101C600020601343A381009B20616361019B002BD3
:101C70000DD028000E23E15E00F032FC002806D0D3
:101C80000322A38993431A0001231343A381A0894C
:101C90000743A781CBE7C046011A041070B50500C1
:101CA000002910D00C1F2368002B00DAE41828004C
:101CB00000F048FC1D4A1368002B05D163601460D6
:101CC000280000F047FC70BDA34208D921686018C5
:101CD0008342F3D118685B6841182160EEE71A006F
:101CE0005B68002B01D0A342F9D911685018A042BB
:101CF0000BD120680918501811608342E0D1186890
:101D00005B68411811605360DAE7A04202D90C23E6
:101D10002B60D5E721686018834203D118685B689F
:101D20004118216063605460CAE7C0463C17002038
:101D3000F8B50323CD1C9D43083506000C2D1FD29A
:101D40000C25A9421ED8300000F0FCFB25490A688A
:101D50001400002C1AD1244F3B68002B04D1210021
:101D6000300000F027FB38602900300000F022FB33
:101D7000431C2BD10C233000336000F0EBFB03E05D
:101D8000002DDEDA0C2333600020F8BD23685B1BD6
:101D900019D40B2B03D92360E418256003E0636892
:101DA000A2420ED10B60300000F0D4FB20000722CD
:101DB0000B30231D9043C21A9842E6D01B1AA35041
:101DC000E3E75360EFE722006468C2E70323C41C23
:101DD0009C43A042E1D0211A300000F0EBFA431CF2
:101DE000DBD1C7E73C17002040170020936810B5EF
:101DF000013B9360002B04DA9469A34207DB0A29B4
:101E000005D01368581C10601970080010BDFFF74A
:101E100039FC0100F9E7F8B506000F001400D518E9
:101E2000AC4201D1002007E021783A003000FFF7F2
:101E3000DDFF0134431CF3D1F8BD0000F0B5A1B0C3
:101E400006000C001F000392002804D08369002BB9
:101E500001D1FFF713FE8E4B9C421CD17468636E58
:101E6000DB0705D4A3899B0502D4A06DFFF7A7FE6D
:101E7000A3891B0702D52369002B1DD12100300047
:101E8000FFF756FC002817D0636EDB070DD5012045
:101E9000404221B0F0BD7F4B9C4201D1B468DEE7E7
:101EA0007D4B9C42DBD1F468D9E7A3899B05EED436
:101EB000A06DFFF785FEEAE7002308AD6B612033D4
:101EC0006B761033AB760797039F3B78002B01D0DE
:101ED000252B4ED1039BFB1A0593039B9F420DD0EC
:101EE000059B21003000039AFFF795FF431C00D1AA
:101EF000B5E06A69059B944663446B613B78002BAF
:101F000000D1ACE001227B1C0393002352426A60A3
:101F100004A9543252182B60EB60AB601370AB65B0
:101F2000039B052219785D4800F000FB039B5F1CB2
:101F3000002820D12A68D30604D5532304A95B18AE
:101F400020211970130704D5532304A95B182B21F2
:101F50001970039B1B782A2B16D00021EB68039F76
:101F60003A78781C303A8446092A4FD9002911D191
:101F700017E00137A9E7494B2A68C01A01238340BB
:101F800013432B600397CBE7079B191D1B68079131
:101F9000002B01DB0B9304E05B42EB600223134355
:101FA0002B603B782E2B0AD17B782A2B37D1079BCD
:101FB00002371A1D1B680792002B2DDB09930322A1
:101FC0003978374800F0B2FA002807D0344B2A6835
:101FD000C01A40238340134301372B6039787B1CA0
:101FE000062230480393297600F0A0FA002845D055
:101FF0002D4B002B27D10722079B07339343083330
:1020000007936B69049A9B186B615DE70A214B4348
:1020100067469B180939A3E701235B42CEE70023FB
:102020001A0001376B603978781C303984460929E9
:1020300003D9002BC3D00992C1E70A235A4367464C
:102040005218093BEFE707AB00932200290030004C
:10205000164B00E000BF0490049B0133D1D1636EA6
:10206000DB0705D4A3899B0502D4A06DFFF7A8FD6B
:10207000A3895B0600D50AE70D980AE707AB009332
:10208000220029003000094B00F082F8E3E7C04647
:10209000B0130510D013051090130510F0130510A0
:1020A000F6130510FA13051000000000171E0410A7
:1020B000F7B5150001938A680B690C0000909342F4
:1020C00000DA130022002B6043321278002A01D07C
:1020D00001332B6023689B0602D52B6802332B60EB
:1020E0002268062317001F401A4227D023004333DB
:1020F0001B785A1E93412268920630D4220001991F
:102100000098089E4332B047431C25D00623206820
:102110002A68E16800250340042B03D18D1AEB43A4
:10212000DB171D40A3682269934201DD9B1AED185D
:102130000027BD4220D1002010E00137E3682A6863
:102140009B1ABB42D2DD2200012301990098089E10
:102150001932B047431CF0D101204042FEBD30206F
:10216000E1184331087021005A1C45310978A21842
:10217000433202331170C1E7220001230199009814
:10218000089E1A32B047431CE6D00137D1E7000061
:10219000F0B58BB006920A00433207930590049283
:1021A0000A7E0C00109B782A06D8622A08D8002ADA
:1021B00000D1C0E0582A52D026004236327022E0C8
:1021C000100063381528F7D8FDF7CAFF16001F0066
:1021D000F6FFF6FFF6FFF6FF1F00F6FFF6FFF6FF2D
:1021E000F6FFA80036009A00F6FFF6FFB900F6FFEA
:1021F0003600F6FFF6FF9E0026001A684236111DD3
:102200001960136833700123A7E0086819680A1D74
:1022100005060BD50D681A60002D03DA2D23049AEC
:102220006D421370614B0A27039332E00D681A6008
:102230004106F1D52DB2EFE70D681968081D186049
:102240002E0601D50D6803E06D06FBD50D68ADB215
:10225000564B0A2703936F2A17D1082715E04531FB
:102260000A70524A03921A68216820CA1A60080646
:1022700050D5CB0702D52023194321601027002D0C
:1022800003D1202322689A43226023000022433393
:102290001A706368A360002B03DB0422216891435A
:1022A0002160002D02D1049E002B0CD0049E28003A
:1022B0003900FDF7E5FF039B013E5B5C33702B00AB
:1022C00005009F42F3D9082F09D12368DB0706D503
:1022D00063682269934202DC3023013E3370049B21
:1022E0009B1B2361079B210000930598069B09AA6D
:1022F000FFF7DEFE431C35D1012040420BB0F0BD9C
:10230000202209680A432260220078214532117098
:10231000274AA7E74806ACD5ADB2AAE71A680D6808
:10232000101D4969186013682E0601D5196002E076
:102330006D06FBD519800023049E2361D2E71A683D
:10234000111D1960166800213000626800F0EEF877
:10235000002801D0801B6060636823610023049A19
:102360001370BFE72369320006990598079DA847B7
:10237000431CC1D023689B0715D4099BE068984291
:10238000BCDA1800BAE72200012306990598079ED7
:102390001932B047431CAFD00135E368099A9B1A44
:1023A000AB42F0DCE9E70025F7E7C0460114051071
:1023B00012140510002370B5064D040008002B60B0
:1023C000FEF7CCFA431C03D12B68002B00D023600E
:1023D00070BDC0467817002070B50C000E25495F0F
:1023E00000F0C0F8002803DB636D1B18636570BD47
:1023F000A389024A1340A381F9E7C046FFEFFFFF1C
:10240000F8B51F008B8905000C001600DB0505D50B
:102410000E23C95E0022022300F074F8A389054A46
:1024200028001340A38132000E23E15E3B0000F040
:102430001FF8F8BDFFEFFFFF70B50C000E25495FD8
:1024400000F060F8A389421C03D1054A1340A38120
:1024500070BD802252011343A3816065F8E7C04636
:10246000FFEFFFFF10B50E23C95E00F015F810BD99
:1024700070B50400080011001A000023054D2B6000
:10248000FEF794FA431C03D12B68002B00D0236085
:1024900070BDC04678170020002370B5064D0400BB
:1024A00008002B60FEF776FA431C03D12B68002B43
:1024B00000D0236070BDC04678170020002370B59F
:1024C000064D0400080011002B60FEF766FA431C5D
:1024D00003D12B68002B00D0236070BD781700203B
:1024E000002370B5064D040008002B60FEF75AFA71
:1024F000431C03D12B68002B00D0236070BDC04665
:102500007817002070B50400080011001A0000239D
:10251000054D2B60FEF748FA431C03D12B68002BB6
:1025200000D0236070BDC04678170020C9B2821861
:10253000904201D10020704703788B42FBD00130DC
:10254000F6E7000010B50248FFF739FB10BDC046A2
:102550008017002010B50248FFF732FB10BDC046BF
:102560008017002070B50400080011001A00002335
:10257000054D2B60FEF727FA431C03D12B68002B77
:1025800000D0236070BDC04678170020F0B5054626
:1025900000200F46079E059C174309D0202905D32C
:1025A0000127BF03BA4201D8914201D94220F0BDB0
:1025B000194621430AD09C42F8D309498C4203D0E2
:1025C0000849A41F8C42F1D2062BEFD3002D03D073
:1025D000022D01D0032DE9D1032EE7D8F0BD000074
:1025E000FFFF00007B0C00007CB5069D079C0028C7
:1025F00005D0860705D1460703D4060701D442203B
:102600007CBD002903D0012901D00229F7D1009512
:10261000019400F0C7FA7CBDFFB587B0109D159EF0
:10262000169C01930295009407A807C81F463346DD
:10263000FFF7ACFF00280ED11398149903AA069453
:1026400043C21198129901900095029107A807C8FA
:102650003B4600F019FC0BB0F0BD10B507F02EFAA8
:1026600010BD70B51C4613460D46012C03D0022C3C
:1026700003D0422070BD022200E010221946FDF76F
:10268000A2FE2C70002070BDF0B587B01C460B4632
:10269000054600A9023101A80C9F0D9EFFF7E1FF3E
:1026A00000280ED16846058084828775C6750E990C
:1026B00001760F994176109981766946119801F05B
:1026C00053F907B0F0BD70B586B014461D460A46F2
:1026D00003466946881C0A9EFFF7C3FF002804D101
:1026E000012C04D0022C02D0422006B070BD23463B
:1026F0002A466946304601F081FBF6E710B501F045
:1027000005FE10BDF0B585B084460AA8F0C868463D
:102710008581C68103A8019002970094604602F06B
:10272000DFF805B0F0BD10B502F028FE10BD10B501
:1027300002F046FE10BD000010B503F0DDF81D4CA0
:102740004121206849014118097F00290DD1A0309D
:102750000079C00705D100F077FB01F06FFC09F0AC
:10276000C7FB02F061FF0BF0E3FA00F001F920680B
:10277000014640310A78C9798A4319D13E21095C62
:10278000002915D10C490A88120711D50922D20651
:102790001269497A836AC90059181123DB01C018EC
:1027A000806A801A00020012814201DA08F068FC97
:1027B00010BD0000D0170020C000002010B5837F9E
:1027C0000122002492024168082B03D9422491423D
:1027D00002D310E0914201D242240CE0014634229F
:1027E0000648FDF7F0FD00F083F8002801DA4824E0
:1027F00001E000F02DF9204610BD0000CC020020C1
:102800003EB5174D15482968827F0846A0310A73E6
:1028100000246030047644768476E122C2768022F9
:10282000027702224277302008704C7002AA01A978
:102830006846FDF7B7FD68460078A22201016846A8
:10284000007A891C000201436846007900030143B5
:1028500028681152A03004713EBD0000CC02002057
:10286000D017002070B503F02DF807F04BFF06F0ED
:1028700047FE0CF077F803F009FA1A4C1A49206861
:102880001A4D4018811013202A68C0011018C16227
:10289000616889080163A168890841630AF040FB07
:1028A00029681F208001228B08188280628B0F23E9
:1028B000C280DB01A28BCB18DA87628C02802246B1
:1028C0002032127882703D2252010020891808734C
:1028D00000F066FA02F0B8FE02F03EFE0BF0AEFA2F
:1028E00070BD0000CC0200200000FCEFD0170020DB
:1028F00070B50025ED4302F0E0FE01282ED0002344
:1029000018490322888BFF24401E10438A7F5934C4
:1029100062438218088B282460431218488B3024A5
:10292000604312180846203040782C246043101869
:102930000D4A181884184869A0420DD10B488442EA
:102940000AD90D6902F0B9FEC1B2284605F046FB6E
:1029500005F080FC401B251A284670BDFF23B533C7
:10296000CEE70000CC02002089190000B809000061
:10297000F8B52C4F3C68206E5C34401C002814D005
:10298000002529480023C07B00283ED00926F606F2
:102990002648002D1CD000210A460B464169521CD6
:1029A000994204D1002902D004E00125E9E7204B37
:1029B0009A42F2D32160006960603069A168000228
:1029C000090E000A09060143A16000F033F81DE07A
:1029D0003169A2680902090A150E08D0018BC907DE
:1029E00012D04169216000696060E37210E0881ACA
:1029F00000027D2300121B03984205DD100E000625
:102A00000843A06000F016F8F8BD6360002DFBD00D
:102A100003CC08F05FFAFA2008F04CFA39688862B3
:102A2000F8BD0000D0170020EC0200200000104884
:102A3000881300000449002008610448012100684F
:102A40006030C1717047000000001048D0170020AE
:102A5000F8B5062632484025056032480027078031
:102A6000A9050920C00641602F4A916001680160F4
:102A70002E48032104694269601E08433946401C00
:102A8000FDF7A5FC02F019FEC1B2204605F0A6FA3A
:102A900005F0E0FB05F0EAFB04F0C0FB2449172039
:102AA0008881244C2068421901465770FA208862B8
:102AB0002820107002F0FFFD012805D120681022A7
:102AC00040300178114301700BF018F9012805D14D
:102AD000206880224030017811430170206801464F
:102AE00040300278324302700020C0430866FDF790
:102AF00030FDFFF785FEFFF7B5FE2068012120308D
:102B0000017707214177012002F038FC04F01CFC1A
:102B1000FFF72EFF02488038056002210160F8BDF2
:102B200080E100E0C000002040000048CC0200200E
:102B300000001048D017002038B5184A1468224603
:102B4000BA32AE34A378DD0701D001290AD05B0781
:102B50000CD501290AD0217949070BD5E17A002942
:102B600005D007E0E07880210843E07038BD0121FE
:102B7000E172508020794106090FF7D07821084092
:102B800069460870002048706A460221422000F021
:102B9000C1FA207987210840207138BDD017002064
:102BA00070470000FFB50C4678A103C995B00191AC
:102BB0000090002108A801730321C90268464186DC
:102BC000012108A8734E017435681746AE350DF023
:102BD000F9FE002808D170493068401806F07AFFE5
:102BE000A878002802D0462019B0F0BD0BA815998E
:102BF00000F066F90028F7D1072010A90871012C10
:102C000005D0022C0AD0002C0ED04220ECE708A8F8
:102C1000017B1020014308A8017305E011A90BA84E
:102C200000F05DF90028DFD110A8027901230CA97A
:102C3000284601F0E3F800287ED1022229461898A0
:102C4000FDF7C1FB2988684681811521490201826F
:102C50000784012686734E2108A881700024C47061
:102C6000067107214171867103A902A800F07CFE5C
:102C7000002861D1022202A91E98FDF7A4FB082FAB
:102C800002D26846478502E00820694648856946C1
:102C90000C850B4628880AAA098901F0EDFD002859
:102CA0006DD13E49684601820227078408A88471D5
:102CB00003A902A800F058FE002860D1022202A950
:102CC0001F98FDF780FB68460470694644704F8585
:102CD0000B4628880AAA098901F0CEFD00284ED1AA
:102CE00008A8007BC00723D02C496846C91C018274
:102CF0000821018408A88770047103A902A800F0C4
:102D000033FE00283BD1FF216846C1718171C1703B
:102D100081704170017044710471694608204885D2
:102D20000B4628880AAA098901F0A6FD002826D1A9
:102D300008A8007B800600E021E022D529886846AB
:102D400081811649A53101820684867308A887709F
:102D5000C470047107214171847103A902A800F0B5
:102D600003FE00280BD169460E700C854E850B467C
:102D700028880AAA098901F07FFD002801D0472090
:102D800032E708A8007BA87000202DE7626C75650B
:102D90006E726721D017002033070000012A00005F
:102DA000034800210068AE30C17081707047000098
:102DB000D017002038B50246174801240068AE300D
:102DC000022A1FD0052A03D0072A07D00B2A20D1B8
:102DD000084609794088FFF7AFFE1AE00079002421
:102DE000020600D50124820703D1C20601D4800661
:102DF0000FD5084600216A461170694600F072F846
:102E0000044606E08178490703D50179FB22114089
:102E10000171204638BD0000D017002010B50948C8
:102E20000468AE34E07880070BD5002007F000FB83
:102E3000022000F047F9E07801210843FD21084015
:102E4000E07010BDD01700201FB50E480468AE34E6
:102E5000E078010612D5A178C9070CD0800708D503
:102E6000042069460873684602F020FE022000F044
:102E700029F90020E0704006400EE07000F02EF8C6
:102E80001FBD0000D0170020F0B58DB00C4616A96C
:102E9000E0C90021089109910A910B9115990491BB
:102EA00005A9E0C112A962C9009301911346014628
:102EB000039602952246012000F04AF80DB0F0BDBD
:102EC0000A07920F01D0422070478A07FBD0027890
:102ED0008907890F0A43027000207047704742201B
:102EE0007047000030B5194B047A1B68C268AE33D6
:102EF0001B799D06AD0F04D10078042801D0002075
:102F00000EE0012030BD155C002D0BD0401C80B2BE
:102F1000155C012D08D01518203DED7F281880B2D2
:102F2000A042F0D3087830BD401CDD07012480B2F8
:102F3000002D02D0105CC00703E09B07F2D5105CA7
:102F400080070028EED00C70ECE70000D0170020BE
:102F5000FFB595B00E46054620210CA8FDF752FDA1
:102F600000200490564800270468681EAE340428E8
:102F700002D8A078C0070BD0062D02D0002D0AD0B1
:102F800002E0A078800703D5E0784006800E0AD0E2
:102F9000462019B0F0BDA0788007F9D0E07840064F
:102FA000800EF5D00FE0002D0DD0012D20D0022D88
:102FB00028D0062D33D0032D33D0042D37D0002E4A
:102FC0003BD04220E5E7002007F032FA0028E0D1AC
:102FD000E078800708D5042069460873684602F047
:102FE00065FD022000F06EF80120E0700020D0E7BF
:102FF000012EE6D0042EE4D01F980028E1D1062748
:10300000042008E0012EDCD0042EDAD01F9800281E
:10301000D7D105270220E0700120049010E0402065
:103020000DE0022E01D0032ECBD1082007E0012EA7
:1030300001D0042EC5D1102001E004272020E0702B
:1030400000230BAA19461E9806F09EFB030002D02F
:1030500000F0E0F832E01022002107A8FDF7B7F9F0
:1030600007A86C46279B269A1F990FC42B4630460B
:10307000189A179900F088F80300E9D108A8017B95
:10308000C170259803AC049B289A29990FC422ABE0
:1030900007CB02920091019039460CA8209B219AFF
:1030A00000F0C2F80300D3D107A807F0BFFC03006B
:1030B000CED1012007F0BCF90300C9D1184668E75A
:1030C000D017002010B50446C1061148006803D58A
:1030D0001522BF210C4006E0392149014118897BA6
:1030E000C90710D012222107890E08180121C90230
:1030F0004018C06C002321460AF0EAFE010004D00B
:1031000020460AF0D1FE002010BD072010BD0000AF
:10311000D0170020F8B5891ECDB20646A81C0321A1
:103120000843401C8308174817460068F10603D57A
:103130001C22BF210E4008E0392149014118897B3A
:10314000090601D40020F8BD19223107890E08189C
:103150000121C9024018C06C31460AF0B9FE0400D2
:103160000ED03978217179786171A5712A46B91C20
:10317000E01DFDF728F9214630460AF095FEE1E70B
:103180000720F8BDD0170020F8B5204B204D1B6854
:1031900001265B19069CB6030093002814D004286E
:1031A00012D0022813D0032811D006252B4601285F
:1031B00010D00F4617430DD0914203D8202901D3D8
:1031C000B2420AD94220F8BD30256023EFE7A0259E
:1031D000F023ECE72580638001E02180628020718C
:1031E0000798A071089820720998002805D0014618
:1031F000204606220930FDF7E6F8072060710098A6
:103200002030807B60710020F8BD0000D0170020C6
:1032100058080000034881220068A030417C11401A
:1032200041747047D0170020F8B505463E481E4649
:103230000068079F0024AE301346002905D0022203
:103240002A7001226A70A9700324002E10D08078A1
:103250008006800F0CD13019401C1F2854D82E55E1
:10326000641C281932461946FDF7ADF8A019C4B2FE
:10327000002F0DD03819401C1F2845D82F55641C2D
:10328000E4B228193A460699FDF79DF8E019C4B250
:103290006846008C00281BD06846808C002817D018
:1032A000601D1F2830D805202855641CE0B212216B
:1032B0002954401CC4B228190646022208A9FDF769
:1032C00082F8B01C022209A9FDF77DF8241DE4B2A2
:1032D0000C98002812D0E01C1F2815D80220285571
:1032E000641CE0B20A212954401CC4B2684607F0AD
:1032F000A7FD684600782855641CE4B20B980028A6
:103300000CD000191F2801D94220F8BD28190B9AAA
:103310000A99FDF758F80B982018C4B221462846A0
:1033200007F0E0FAF8BD0000D017002010B50D49F5
:1033300000050B68092109025918CA6E0021000D09
:10334000A0331B7B0AE04C01145B2405240D84424E
:1033500002D14801801810BD491CC9B28B42F2D875
:10336000002010BDD0170020F8B5069C1F4615465A
:103370000646002C13D0A06802220D30FDF723F87A
:10338000E81E82B23B460721204606F047F9E58059
:10339000A068012E05D01D2101730020F8BD472033
:1033A000F8BD1B21F8E70000F1B5FFB001248BB098
:1033B000600205900027CC4807970168CB48C94DAB
:1033C000081803908A980AAA0005000D05A908F0BC
:1033D000F3FA0690002872D104260AA8059942182B
:1033E000203AD27F0B2A23D00026002004900AA87E
:1033F0008119022201A80291FCF7E5FF6846818845
:1034000009AB08AA039801F033FC012817D0022861
:103410007ED068468088854200D30546844200D924
:103420002046044602988078012872D013363CE189
:10343000491E761E36040591360CCFD1D5E7089883
:103440000090002F66D10099022228310298FCF7E3
:10345000C2FF00281ED100982030017B029880789E
:10346000814217D1012808D1009802990222083020
:10347000C91CFCF7B0FF002815D0029880780228FC
:1034800008D10098029910220830C91CFCF7A3FF4C
:10349000002808D00098008DA84200D80546A04218
:1034A00000D22046044602990AA88978012907D04B
:1034B00013360599B6B28E4204D3012707E006E120
:1034C000761DF6E78119022201A8FCF77CFF03991B
:1034D000009808318E462FE084466946026A8B8840
:1034E00020300DE0918B994203D3012F7ED1994278
:1034F0007CD9A94200D80D46A14200D30C461268DF
:103500008242EFD10498002804D16046006802E0AE
:1035100015E0BFE08AE070450ED0018D994203D3DB
:10352000012F09D1994207D98D4200D30D468C4213
:1035300000D80C46012F59D17045CDD1BAE008987A
:103540000090002F72D1009902221C310298FCF7E2
:1035500042FF00281ED100982030C1780298807860
:10356000814217D1012808D100980299022208301F
:10357000C91CFCF730FF00281AD002988078022876
:1035800008D10098029910220830C91CFCF723FFCB
:1035900000280DD00098808BA84200D80546A04294
:1035A00000D22046044602988078012826D003E005
:1035B00002988078012805D013360798B6B2012802
:1035C0001ED021E000984A490089884216D18A9885
:1035D000FFF7ACFE0146009800F08CF80099098CCA
:1035E0004843009989694018022200E038E00299B6
:1035F000491DFCF7E8FE01200790D4E7761DDCE7C3
:10360000B61C0020B6B207900598864201D3012768
:1036100005E00AA88119022201A8FCF7D4FE039A4A
:103620000099083209980968944630E01AE0864605
:103630006A46938820300DE08A8B9A4203D3012F8B
:103640000ED19A420CD9AA4200D81546A24200D304
:10365000144609688142EFD1049800282AD102E07B
:103660000120049026E07046006860450FD0028D6E
:10367000016A9A4203D3012F09D19A4207D9954290
:1036800000D31546944200D81446012FE8D1604576
:10369000CDD10FE00298C078022805D102980079B8
:1036A000292801D1B61CB6B2761D0598B6B286425D
:1036B00000D301270598811B042902D3864200D23A
:1036C00093E604980028FBD1A54203D906987FB061
:1036D0000CB0F0BD224629468A9801F00FFB0690F7
:1036E000F5E70000FFFF0000D0170020640700008E
:1036F0000229000030B5024623239B5C0020012BE9
:103700001AD112890D4B9A4216D10D4A092312681B
:103710001B02D318A032DB6E127B0AE045010C8835
:103720005D5B24052D05240D2D0DAC4204D0401CFD
:10373000C0B28242F2D8002030BD00000229000051
:10374000D01700200649092209681202891880084A
:10375000C96E400108180188002900D10020704777
:10376000D017002010B50446022000F033F80D48B1
:1037700000210268092000021018A032C36E107BDD
:1037800005E04A019A5A002A04D0491CC9B288426D
:10379000F7D810BD48011C52C018026904210A4321
:1037A000026110BDD017002010B504460146042068
:1037B00002F0A2FB002808D0044805490068401820
:1037C00021463C300BF0EAF9432010BDD017002011
:1037D0006407000004490A683D21490151180A7B29
:1037E00002430A7370470000D017002000B511385B
:1037F000C0B2FFF7A7FF002804D0012201695205DB
:103800001143016100BD0000F3B597B00D884888F1
:103810000590081D1DC80DAE1DC68C8ACE8A087E77
:103820001390C8692031019008780090487804907E
:1038300088780390C87802900F7900F04BFD00283B
:1038400017D10120400284425FD8B4425DD8002FD6
:1038500001D1B44259D114A9284601F037FA002801
:1038600006D115AA1499059801F020FA002802D073
:10387000602019B0F0BD149D11A92846183006F03B
:103880007DF910A88088002810D0284612A9203081
:1038900006F074F910A8838800892A8D1818696ABF
:1038A00010188A8B904203D16120E2E74820E0E7BC
:1038B00015982C4B02899A4227D12322125C012AA7
:1038C00023D1006800681690139801281FD168461C
:1038D000808E29221202801A030001F008FD0604DE
:1038E000180404070A18022C0FD110E0072C0CD181
:1038F0000DE0042C09D3E00707D1012F07D1A64220
:1039000003D3042E01D3F00701D04220B1E702987F
:103910000B90039B049A0A9309920098019A0C97C2
:1039200008900696059407920DA81DC8019002A85C
:103930001CC013980B4600902A461699179800F061
:10394000B1F9002895D168460649808EFF3188423A
:1039500005D01798018800200A4601F0CFF9002011
:1039600087E7000003280000F3B5A5B008881A9087
:1039700088780C4611901022091D13A8FDF734F821
:10398000A08A1090A17D68460172E07D0F90207E94
:103990002090677EA07E1F90002006460146129070
:1039A00020A801810F20BB4C2390BB492068401800
:1039B000199000F08FFC00280BD1012110984902CA
:1039C00088425FD821A91A9801F080F9002802D016
:1039D000602027B0F0BD2198179006F073F81A996F
:1039E00088420CD102A801901698009013AD0ECD1C
:1039F000119806F02BF8002801D06320E9E768460B
:103A0000017A8806800F05D0012012902068A0302E
:103A1000007B4600C80703D01298401CB61C1290C9
:103A2000080603D51298401CB61C129017980DA9D1
:103A300018301D9006F0A2F86846129C808EA41CD7
:103A4000A04237D317980EA92030019006F096F8BF
:103A50006846018F00290DD01798179A6B46406A67
:103A60009B8E128D5918808B5118081AA04201D2D2
:103A70006120AEE71798846911982568012803D062
:103A8000022803D04220A4E7052000E01320E083B1
:103A90002A4639460F9806F027F8422899D0199FF0
:103AA000E28B4037788B398B411A109810188019A7
:103AB000814201DA48208CE70EA9019806F05EF8F1
:103AC0006846008F0028179802D0406A808B00E07B
:103AD000008D2599401C0880259801210088A0832D
:103AE000259802220088401CA8836C48208120462B
:103AF00020301790C1700021817081711998398B25
:103B0000406D40186946A061097A0170A069294694
:103B10001C31401CFCF757FC11980128A0697DD08E
:103B2000102213A9C01CFCF74EFC2846102213A932
:103B30000830FCF748FC388B133038832E4620368B
:103B40001198F0701098E8831F98B0701098208436
:103B5000109828841998398B406D4018A86100216D
:103B6000109AFCF734FC398B109808183883179991
:103B70000120087117990020487130716846007A59
:103B8000810701D50121317101070227002902DADD
:103B9000317939433171410703D531790422114319
:103BA0003171400603D530790821084330710F98F0
:103BB00070712098B07121461D9806F008F82146D2
:103BC000019805F0E5FF29461D9806F000F8294602
:103BD000019805F0DDFF1298002841D068461A9937
:103BE0008181A18BC18107844784012408A80471C5
:103BF00022A80A9008A88473239941730F9938204A
:103C0000014008A801730721C173002505746846A7
:103C1000007AC00708D02248694600E02BE00882FD
:103C200003A924A8FFF7F0FD6846007A8006800FFC
:103C300007D01B486946401E088203A924A8FFF745
:103C4000E3FD6846007A00060AD529210902684684
:103C5000018208A84473057303A924A8FFF7D4FDC3
:103C6000259801881298401C081882B2002001F0A3
:103C700045F80020ADE6022213A9C01CFCF7A3FB07
:103C80002846022213A90830FCF79DFB388B401D03
:103C900053E70000D017002064070000032800004D
:103CA00003290000FFB55248524A006887B08218C5
:103CB000069210AA109B0126169F9288012B04D110
:103CC0004D4B9A4201D1A030067B069D34464035CB
:103CD000688B2B8B7C43C31A099820300390A34236
:103CE00022DA48200BB0F0BD2320405C012819D116
:103CF00008896C46208098420CD03F4C641EA0423C
:103D000008D0641CA04205D0641CA04202D0A41CB0
:103D1000A04207D1384CFF3CA04201D0904201D1D3
:103D20006220DFE7096801E029231B020398814232
:103D3000DAD109981B9984691898224605F0D4FEB7
:103D40004228CFD01C98012804D11598874201D26F
:103D50004220C7E71598E083204620301C99059043
:103D6000817027840A98808B401CA08310980128BA
:103D700014D02046102211A90830FCF724FB059925
:103D80001098C8700698298B406D4018A061298B47
:103D9000384670430818288300250FE011A80FC883
:103DA00008340FC4183CEAE72846A169784308188C
:103DB000159A1799FCF707FB6D1CEDB2B542F3D3CA
:103DC00005991898487105991998087105991A98D4
:103DD000887109982146183005F0F9FE21460398AC
:103DE00005F0D6FE0798A18B018000207AE700003D
:103DF000D01700206407000002290000FFB58FB033
:103E000014460E78102205A8891CFCF7EDFD4F48DA
:103E10004F490068451800F05DFA00281ED1002CBB
:103E200057D0012E09D16846808A4A49884204D178
:103E30002846A968083081424BD1284610302969AC
:103E40000390814209D00AA9284605F097FE6846EA
:103E5000018D601E0D90814202D2482013B0F0BD4A
:103E6000284608300CA9049005F088FE6846008EAC
:103E7000002814D0EF680AA93846183005F07EFEF5
:103E8000384620300CA905F079FE6846398D008D42
:103E900009186846008E401C081887B200E0012708
:103EA00001200004C01BA04201D26120D6E72C698A
:103EB000286801901298012802D0022803D008E057
:103EC0000520C00200E024486085012E03D0022EA8
:103ED00005D04220C2E720460830022202E02046F8
:103EE0000830102205A9FCF76EFA20463146203032
:103EF000064601730F98214607802785039805F031
:103F000066FE2146049805F043FE27461837E76110
:103F10006662A76126620D9884B20BE0284601997B
:103F200005F055FE3846019905F032FE2868641EFA
:103F3000A4B20190002CF1D10F9801880D980818B7
:103F400082B2002000F0DAFE002087E7D0170020C0
:103F5000640700000118000001280000024608481C
:103F60000849006841188868083103E0038D9342CE
:103F700002D200688842F9D1884200D100207047FF
:103F8000D017002064070000034610B50E480F4903
:103F9000006841188868083103E0148D9C4203D8FA
:103FA000104602688A42F8D18A420CD1018D9942AA
:103FB00009D20146026A20318A4203D0416A898BC4
:103FC000994200D2002010BDD017002064070000E5
:103FD000024610B50B4812050168092000020818B6
:103FE000C36E0020120DA031097B07E044011C5B69
:103FF0002405240D944203D0401CC0B28142F5D860
:1040000010BD0000D0170020F7B5054617460198EF
:104010000AF094FD2E050446360D0CE0A0882568B4
:10402000B04207D1214601980AF0D5FD3946204615
:1040300005F0A0FA2C46002CF0D1FEBDF0B58BB0F7
:1040400000206349029063480A68141872B610464B
:104050004030C57902231D43C57162B625464035FF
:10406000287AC0077DD00920000210180026C76EEC
:1040700049E071017A5A002A43D0C91906910969A9
:104080004A021ED48A0226D50221049106990123F0
:1040900009880905090D0391392149014118097C55
:1040A00089070ED5D902083040182322C06C02219E
:1040B00009F00EFF010004D0039A8A80049809F0E9
:1040C000F3FE069800880090069800F085F80098A6
:1040D00009F064F815E0480713D506980088000534
:1040E000000D08F0EDFF002805D1069800880005B6
:1040F000000DFFF759F906990420096981430698D4
:104100000161761CF6B23248AC210068095CB1420C
:10411000AFD800F01BFF2046243006460AF054FDBD
:10412000012802D0012000F015FE204618300AF0C8
:104130004BFD012802D0002000F00CFE3C3420464C
:104140000AF042FD01280FD002A920460AF065FDC1
:104150000420029901F0D0FE0028F0D020460299F8
:1041600000E032E00AF007FD287A00062DD530463F
:104170000AF02AFD012828D1002005F07BF9A98B3F
:1041800023314909491CC9B2FCF77AF800281CD030
:104190000F4D044628680123D902083040184226F2
:1041A0003822C06C314609F093FE01000DD0002288
:1041B0008A80CC80304609F077FE3D212A6849018B
:1041C00051180A7B802082430A730BB0F0BD0000B7
:1041D000D017002064070000F0B504463B483C4976
:1041E000006885B04518218A890419D502210491F7
:1041F000392149014118897C412627880123C907B3
:104200000ED0D902083040183122C06C022109F0CA
:104210005FFE010004D08F808E71049809F044FE87
:104220002946208801221831FFF7EEFE2946208812
:1042300001223031FFF7E8FE29462088012224318F
:10424000FFF7E2FE2946208800223C31FFF7DCFE22
:1042500020880005000DFFF7BBFE850029461131BF
:104260006846017301F022FC294612316846017349
:1042700001F01CFC294613316846017301F016FC5D
:1042800068461435057301F011FC208800F03CFAF3
:10429000208801050D48090D02681320C00110187F
:1042A000028A914201D100210182E069002802D0F6
:1042B000012105F05FF9202200212046A568FCF7C6
:1042C00086F81720A560608005B0F0BDD0170020EB
:1042D0006407000010B50B480B49006844184034CF
:1042E000207AC00709D0002005F0C4F8217A890798
:1042F00001D5002803D0002010BD472010BD642048
:1043000010BD0000D017002064070000F0B55FA0CA
:1043100099B000685E4915905E4A086884180922C1
:1043200012028218D26E2546403514922A7AD2079C
:1043300002D0622019B0F0BDAA8B01235B029A4221
:1043400001D9AB8303E0172A01D21722AA83149A5A
:10435000A0301392067B0DE0761EF6B21398710121
:104360000F18B8680F90384620220021FCF72FF86C
:104370000F98B860002EEFD120460830E0606460EE
:10438000A06024600830139060612061FF2200214A
:1043900008300AF0E8FB2046FF22002124300AF012
:1043A000E2FB2046AA7F002130300AF0DCFB2046E9
:1043B000FF2200213C300AF0D6FB00222A72104670
:1043C0001721334B05E0149E4701BE19401C718034
:1043D000C0B21E68A036367B8642F4D800202883FF
:1043E0002F8C688C0026149008E02820E16C704324
:1043F0000918204605F0CCFB761CB6B2BE42F4D3B9
:10440000002608E03020216D70430918139805F04C
:10441000BFFB761CB6B214988642F3D30120FFF797
:10442000D9F90124684604701B49418023460422BF
:1044300069460CA8FFF7E2FC002822D16846018EED
:10444000818216490183042606858475202108A8E7
:1044500081720024C472047307214173847305A917
:104460000DA8FFF781FA00280BD16846048746871C
:10447000818E15AB0EAA008E00F0FEF9002800D147
:1044800058E700202872472054E700000000FFFF93
:10449000D01700206407000001180000052A000062
:1044A000F8B5044683480E460068834947184820FB
:1044B000C05DC0076FD0B088FEF738FF0546012CFD
:1044C00002D0002C68D0F3E0002D04D02869410709
:1044D00003D54520F8BD0121C7E0B268F188147BFF
:1044E0000029F0D062060AD568888842F3D3D22C1E
:1044F00001D0522CEFD138463146183048E0A106A1
:10450000890E1E2949D81E2C20D101071ED508214D
:10451000884328612988012005F022FB01213046CB
:1045200005F028F8634801230068D90208304018D4
:1045300042242D883922C06C214609F0C9FC0100B3
:1045400003D08D80204609F0AFFCB1E0E1070BD02D
:104550001D2C1AD01B2C18D0410533D401218902FF
:104560000843EE612861A3E0C00606D52B4602226F
:104570000321422000F07EFEADE72988002005F0EF
:10458000DDFA29691020014329613846314624307B
:104590000AF004FB8CE015E016E0298820220020B8
:1045A00004F08CFF05000DD00121304604F0E2FF3D
:1045B0002B460022214606200AF084FE2846FFF7FB
:1045C000F3F875E04120F8BDB068047B1D2C3CD0A9
:1045D0001B2C43D00021304604F0CCFF002D67D0C7
:1045E000032C46D0052C44D0072C42D0092C40D0B7
:1045F0000B2C3ED00D2C3CD00F2C3AD0112C38D0A7
:10460000132C36D0172C34D0192C32D0012C30D0AA
:10461000022C35D0042C33D0062C31D0082C2FD0CE
:104620000A2C2DD00C2C2BD00E2C29D0102C27D0BE
:10463000122C25D0162C23D0182C21D0522C1FD070
:10464000D22C1DD01E2C2FD032E0002D03D0298873
:10465000012005F073FA3146022001E031460120C5
:1046600000F052FD002823D00021304604F082FFE4
:104670001EE029691020814329612988002015E066
:104680002869402188432861010511D5FF210131A6
:10469000084328612988022005F050FA0120296981
:1046A000C0028143296103E02988032005F058FAFC
:1046B0000020F8BDD01700206407000010B5104A94
:1046C000104B1268D2184032127AD20706D0022854
:1046D0000AD0052804D00B2810D101E0412010BDDC
:1046E0004888FFF73FF809E04888FEF71FFE0028DA
:1046F00004D001220169920511430161002010BD1F
:10470000D017002064070000F1B5FFB085B0472046
:1047100001900020694608805348544900684718B2
:104720008498FEF703FE0290002874D0B968083719
:104730004FE0684600880D4604AC20186B46022204
:10474000283100F0C5FD68460088294620186B46D0
:1047500001222C3100F0BCFD2E462036307B69460C
:104760000128098804A809D040186B461022294660
:10477000083100F0ADFD01902C6A27E040186B462F
:104780000222F4E76946098804A8401821466B46CE
:1047900002221C3100F09CFD6946098804A84018DB
:1047A00021466B460122233100F092FD2320005D5B
:1047B00069460128098804A830D0401821466B4674
:1047C0001022083100F084FD01902468B442D9D150
:1047D0002968B942ADD1019800281CD168460088EB
:1047E00081070AD0224A011D11406A4611800A1A27
:1047F00004A908180B21FBF7EAFD0298008808F0CD
:104800005FFC002807D1849869460005000D04AAC2
:10481000098807F009F87FB006B0F0BD40182146BE
:104820006B460222083100F053FD019020891149A6
:104830008842CAD120460299FEF75CFF4000A16978
:1048400003906A460918128804A880186B46022251
:1048500000F03EFD0190A169039802220818002192
:10486000FBF7B5FDB1E70000D0170020640700009A
:10487000FCFF000002290000F0B5074617480E466D
:1048800000683D2149014018007B85B01D46144653
:10489000C00706D003A9384600F018FA00280AD14C
:1048A00002E0472005B0F0BD04AA3046039900F0AD
:1048B000FDF9002801D06020F4E70499228860887F
:1048C0000968002A00D0088C32466E4631C60323A0
:1048D0003946002000F004F8E4E70000D01700207B
:1048E000FFB5002099B0239A0B90129005461490C2
:1048F000064615901C46DB480B460068DA49229FA5
:10490000411803910021089109915188069111885D
:104910000A913D2149014018007BC00706D00FA92C
:10492000184600F0D3F900280AD102E047201DB054
:10493000F0BD10AA0F991B9800F0B8F9002801D01B
:104940006020F4E71998002803D0600701D5012002
:1049500000E000201390A007800F1C901098179083
:104960002030C078012840D11798C04B0189994266
:10497000F9D11798069904680A98228C4118914237
:1049800033D82046203016908078012816D0E08B4E
:1049900004901798806900788006800F7ED0039875
:1049A00040301890007A800778D51C980028F5D000
:1049B000AE4F0F99FF372031206814E0BA4214D36C
:1049C000B942DDD80497E4E70389A84A934203D1AA
:1049D0002322125C012A08D0BB4203D12322125C9D
:1049E000012A03D000688842EED134E10590002806
:1049F000FBD09C480921026809025118C96E0027A2
:104A0000009162E0780100990390085A01055AD09C
:104A10001999002901D0884255D105997A008B69EE
:104A2000511C595C9A5C0902891889B20D91890759
:104A300049D0022205990AF0C3FC002804D0199835
:104A4000002840D0652072E7002008A9C8551C98AE
:104A5000C00718D0179880690078C00613D50D9844
:104A6000C00710D00120C8550543009A039880184C
:104A70004088159A904206D91590009A0398105ACA
:104A80000005000D14901C9880071CD517988069AC
:104A90000078800617D50D98800700E083E012D5D6
:104AA0000220CA5D05430243CA5500990398401885
:104AB00040881599884206D9159000990398085A9C
:104AC0000005000D14907F1CFFB266480068A030FE
:104AD000037BBB4296D8002D65D01898007A00065B
:104AE0005FD460480168092000020818C16E0020E8
:104AF0001BE042018E5A360515D0AE070BD556186D
:104B00003669B7070DD408AF3F5CBF0703D536073A
:104B100001D546200BE7EE0705D05218127CD207CC
:104B200001D0432003E7401CC0B28342E1D815986E
:104B3000C01E86B20498864200D90646A8070FD543
:104B400020220020149904F0B9FC129000287DD096
:104B5000F01C82B20021129800F0F4F8002811D164
:104B6000E80720D020220020149904F0A7FC0B9025
:104B7000002807D0F01C82B200210B9800F0E2F868
:104B8000002810D08020FEF725FE1298002802D0C1
:104B9000002104F0EFFC0B98002802D0002104F063
:104BA000E9FC6420C3E6A1690A98069A08182499CA
:104BB000FBF709FC16988078012801D10498E0835E
:104BC000002D46D0274B0920196800020818C16E35
:104BD000002008AA0CE04301CF5A3F0506D05F1819
:104BE000BC463B69175C3B4367463B61401CC0B217
:104BF0001C4B1B68A0331B7B8342ECD8A8070DD548
:104C000012980090F01C82B221461C310220A36948
:104C1000FEF7AAFB0220129900F076FAE80718D0F6
:104C20000B980090F61C2146B2B21C310120A369FA
:104C3000FEF79AFB1398002805D00B988021C07CC2
:104C400008430B99C87401200B9900E005E000F0BF
:104C50005BFA00206BE6422069E68020FEF7BAFD91
:104C60009FE70000D0170020640700000328000021
:104C7000F0B58468083015E0258D8D4203D11460AD
:104C800018600120F0BD26461C602036256A06E02B
:104C9000AF8B8F4202D102201560F0BD2D68B54266
:104CA000F6D124688442E7D10020F0BD10B50B6A2C
:104CB000203106E09C8B844202D10020136010BD9D
:104CC0001B688B42F6D1412010BD000010B5094A87
:104CD000094B1268D2189368083206E01C8D844292
:104CE00002D100200B6010BD1B689342F6D1412019
:104CF00010BD0000D01700206407000030B50F4B36
:104D00000F4D1B6804465B1940331B7A412085B068
:104D10009B0710D56B469981DA8100201882042008
:104D2000588203AA04A96D4607C502231A46012129
:104D30002046FFF7D5FD05B030BD0000D01700209C
:104D40006407000010B5121D806892B204F030FCB8
:104D500010BD0000F0B57B497B4A096885B08E180C
:104D6000012806D030461830009009F0E7FE0446CE
:104D7000E5E030462430039009F0E0FE0546BAE055
:104D8000A8682F68007B0290A888FEF7CFFA04007D
:104D900073D021882022002004F090FB019000288D
:104DA0006CD0E8886188884204D900220420019BE5
:104DB000029920E04620009002980E284ED00ADC8E
:104DC000801E030000F093FA0B1C13221329132FEB
:104DD00013381341130016285AD004DC102846D08B
:104DE000122804D14BE018285BD01D2872D0002275
:104DF0000620019B02990AF065FA002000905CE011
:104E000029462046019A0AF069FB4FE02A462146CE
:104E10003046019B0AF094FD48E029462046019A5D
:104E20000AF096FC42E02069000353D4294620464C
:104E3000019A0BF0CFF839E0206900034AD42946E3
:104E40002046019A0BF0FAFA30E02069000341D4C1
:104E500029462046019A0AF02BFF27E0206900032B
:104E600038D429462046019A0BF01EFA1EE0294646
:104E70002046019A0AF0BCFF18E033E03EE02069CA
:104E8000800327D429462046019A0BF002FC0DE04E
:104E9000206980031ED429462046019A0AF04CFE60
:104EA00004E029462046019A0AF072FB009045284A
:104EB00010D069280ED046280CD00121206909069F
:104EC000884320610198FEF76FFC0098002809D004
:104ED00010E0FFE70021019804F04CFB0098452802
:104EE0000CD0F2E72946039809F075FE0121284607
:104EF00004F040FB3D46002D00D041E705B0F0BD79
:104F0000A0682668077BA088FEF710FA05000DD080
:104F1000522F01D0D22F06D1286940030ED421464A
:104F200028460BF020FB2869400307D4214600984F
:104F300009F051FE0121204604F01CFB3446002CF0
:104F4000DED1DBE7D017002064070000F0B5584839
:104F5000584A016885B08A180492092212028918F9
:104F60000027CD6E95E07E01A85B00287BD07019EC
:104F70000090C06900284BD000990969CA0532D554
:104F80004A0530D580680124A402007BA143009A21
:104F90001D28116139D01B2837D0009A927B82429C
:104FA00002D0012802D030E0012806D10098C06963
:104FB0008068407B401C824269D1C80509D5A95B45
:104FC000022004F0CDFD0098FF22016901329143D7
:104FD0000161009881698847452816D100980169C8
:104FE0002143016111E0012104F0C4FA009800217D
:104FF000C16100980122016992029143016102227C
:1050000011464220009B00F035F9A85B00283ED0F5
:1050100004982430019009F091FD044635E02068A1
:105020000390A068AB5B017BA0881A05120D90422B
:1050300001D11D2904D0904226D11B2932D023E072
:1050400000990969CA040FD4012212030098114380
:105050000161A95B032004F071FDA95B22460220D7
:1050600000F078F808E012E06946088102AB0222FD
:105070000321422000F0FEF82146019809F0ABFD23
:105080000121204604F076FA039C002CC7D17F1C36
:10509000FFB207480068A030007BB84200D962E741
:1050A00005B0F0BD22461946022000F09BF8E3E768
:1050B000D017002064070000F0B5944600220A8053
:1050C0006346104C1A60092322681B028646D218D8
:1050D0004120D26E00230FE05D01AD182F697646A6
:1050E000374207D06F880E88B74203D90F806046D9
:1050F000056000205B1CDBB22568A0352D7B9D423E
:10510000EAD8F0BDD01700207CB50C4605466A46AB
:1051100001A9FFF7D1FF002801D041207CBD6846DE
:10512000E1888088814200D9E08000980088A080D2
:105130002046FEF739FB0098012D07D001690822AF
:10514000114302229143016100207CBD016949089D
:105150004900F8E7F7B5064690799168C01E82B01D
:105160001746C5B2022268460D31FBF72CF9681DBF
:1051700003210843401C83081948F10603D5322255
:10518000BF210E400AE03922016852018918497C8A
:10519000890602D4002005B0F0BD2F223107006837
:1051A000890E08180121C9024018C06C314608F068
:1051B0008FFE040011D00398A08068460088E0802C
:1051C000234625722A4607213846093304F036F96A
:1051D0002146304608F068FEDCE70720DBE70000E8
:1051E000D0170020F7B5064690799168C01E82B0AE
:1051F0001746C5B2022268460D31FBF7E4F8681D78
:1052000003210843401C83081948F10603D53322C3
:10521000BF210E400AE03922016852018918497CF9
:10522000490602D4002005B0F0BD302231070068E5
:10523000890E08180121C9024018C06C314608F0D7
:1052400047FE040011D00398A08068460088E080E3
:10525000234625722A4607213846093304F0EEF822
:105260002146304608F020FEDCE70720DBE700009F
:10527000D0170020FFB50546012381B016460F4622
:10528000C00603D52422BF20054000E021220F499B
:1052900028070968800E40180121C9024018C06C17
:1052A000294608F015FE04000DD0277166713246BC
:1052B000A01D0499FBF787F82146284608F0F4FD65
:1052C000002005B0F0BD0720FBE70000D01700204C
:1052D00010B51C88A418A4B21C8001235B029C4258
:1052E00003D8FBF770F8002010BD412010BD30B48A
:1052F0007446641E2578641CAB4200D21D46635D73
:105300005B00E31830BC1847F7B5164600241CE0D4
:105310000098114900194018810801988900001966
:1053200042780578120215438278C078120400068C
:1053300002430948154340420F1829463846FBF7F7
:105340006FF83868854204D1241DB442E0D30020B0
:10535000FEBDFB20FEBD00000000FCEFF0B50E46D8
:105360000746002407E03D1900F0CEF82870000A37
:105370006870A41CE4B2B442F5D3F0BD10B50128A6
:1053800018D8072916D80C4A126813462033187704
:1053900059778007C906000E090E01430020074B0C
:1053A000A03204E08401E418A172401CC0B2147B56
:1053B0008442F7D8002010BDD01700200001002043
:1053C000F0B54F4F0446386885B078300D46164624
:1053D000002C10D0062C14D0082C0FD0182C0DD077
:1053E000282C0ED02A2C0CD02C2C0DD02E2C0ED0EC
:1053F000D02C47D048E0062D0FD045E0102D0CD022
:1054000042E0022D09D03FE0012D06D03CE0062D00
:105410003AD17179890903296FD100192A46314699
:10542000FAF7D1FF2C2C26D13078002823D000F0B9
:1054300044F9012822D01B201F304009401C4100A4
:105440004118012004F004F800F037F9012817D0C2
:105450001B201F304009410041182A484078401A5B
:10546000C01EC1B2002003F0F3FF3868F9224030BB
:10547000017811400170002005B0F0BDFB20DBE792
:10548000FB20E6E7012D04D000F017F9012804D035
:1054900005E0107808F021FCEEE7D12C02D02F2C8B
:1054A0001ED02AE0082D28D1022231466846FAF79C
:1054B0008AFF0222B11C01A8FAF785FF0222311DE2
:1054C00002A8FAF780FF0222B11D03A8FAF77BFFBA
:1054D0006846838902898188008802F09BF8CBE7BF
:1054E000012D0AD13078002807D0082805D249229A
:1054F0003968520189188876BDE71220BCE70000A0
:10550000D0170020EC02002000210B2000070268C9
:1055100052070DD5026804239A43026002680823EB
:105520001A43026004E0491C052901DD0020704790
:1055300042689207F7D54168C907FCD0806880B2FD
:10554000704710B5FFF7E0FF0446FFF7DDFF0004EA
:10555000201810BD7047000010B50448044B0068C7
:1055600004220021C018FAF732FF10BDD017002026
:105570003907000004E003780B70401C491C521EE0
:10558000002AF8D1704700003EB50B4801AA046814
:10559000694602A8683400F01FF800280BD068465E
:1055A000007AE18801228240114204D069460978DC
:1055B000019AFFF7CFFF3EBDD0170020054800211C
:1055C00000686830017141710268D208D20002603F
:1055D000C1807047D017002070B514460D4A13687B
:1055E00072B668331A79002A01D0012500E000253F
:1055F00000221A715A79027018784007400F08701B
:1056000018684001000A00F07DFA206062B6284662
:1056100070BD0000D017002003E00870000A491C8C
:10562000521E002AF9D1704710B501F055FF00F065
:1056300041F800F042F8012801D101F051FF05F0D6
:10564000EBFB01F04FFF10BD70B5184C072120682F
:105650000902411800260E77154B4E770622FF21CE
:10566000C018FAF7B4FE392520686D01401906719B
:105670002021417100F021F8012814D01F20216859
:105680000B4B491988712068093307220021C01883
:10569000FAF79DFE064B206810330522FF21C01843
:1056A000FAF795FE70BD5F20E9E70000D0170020F3
:1056B0001E0700007047002070470020704710B59B
:1056C000002302F0EDFB10BD0A4610B50146002094
:1056D00002F036FC10BD10B501460022412002F058
:1056E0002FFC10BD10B50A461F2801D9122010BD8D
:1056F0000146104605F0B2FA10BD0000FEB50646A0
:1057000002200190B0880090B5790321681D0843FC
:10571000401C83081348022100688C0208300019DD
:10572000377B1122C06C08F0D3FB040017D000981F
:10573000A0800020A771E0710146234625812A46FA
:1057400030460A3303F07AFE2146019808F0ACFB9C
:1057500000240121304603F00DFF2046FEBD072442
:10576000FBE70000D0170020F8B5074685880E48F3
:1057700010220068D40108300226001901233146A6
:10578000C06C08F0A5FB01000CD08D800122002424
:10579000CA80304608F088FB0021384603F0EAFE54
:1057A0002046F8BD0724FBE7D0170020074A9142A6
:1057B00002DC5242914200DA1146FF2299325143F3
:1057C0000A1251180A14511808187047FFFF4F00A9
:1057D00010B50920C00600690002000A00F092F925
:1057E00010BD704730B5EFF3108172B60922D206B2
:1057F0001269FF25821A120214120C4A913513689D
:10580000AC4208DC0122120690431A464032D47999
:10581000DF252C40D471C2010724D20924021B19B0
:10582000DA65034A906081F3108830BDD0170020FC
:105830004000004810B50300FFF759FD3A332D2D05
:105840002D1E2130332A2A2A2A2A2A2A2A2A2424C7
:105850002424242424242424242424242424242408
:1058600024242424242424242424242424242427F5
:105870002727272727272733FDF7D0FA10BD04F065
:1058800073F810BDFDF7B2FF10BD00F05BFB10BD5B
:1058900007F068FB10BD07F0E1FD10BDFDF780F9D2
:1058A00010BD3A38C0B20428FAD2FFF79AFF10BDF3
:1058B0000348DF2200684030C1791140C171704750
:1058C000D017002070B50B481D21006889014418CD
:1058D0002646646008362460E6600025A6602069DC
:1058E00029014118304604F053F96D1CEDB20B2D1F
:1058F000F5D370BDD0170020F0B5002693B0701E10
:105900000E9042481D210068890144180920C006F4
:105910000069374605022D0A72B6A0692146281A89
:105920000002000A223105F02FFB6169A5614018D1
:105930006061364800684030C1798A0663D420220D
:105940001143C17162B6256814E0A8686169401A04
:1059500000280ADCBA0001A8761C85507F1CF6B22C
:10596000FFB2287BFFF766FF03E00E99884200D262
:105970000E902D68A542E8D12046083000250C90F5
:105980001830129018E0AF0001A8761EC159F6B287
:10599000204604F01CF901A8C1590C9804F0F8F84D
:1059A00001A8C059007B3A2804D2129812990078B5
:1059B000401E08706D1CEDB2002EE4D12068A0429C
:1059C00017D03D256D04284605F0D6FA01460E98FD
:1059D000814201D8284601E005F06CFAA169081857
:1059E00000020121000A09064018FFF7FBFE13B070
:1059F000F0BD72B600200549072209681202891815
:105A0000C8650349886062B6F1E70000D01700203E
:105A10004000004810B504460920C0060069000295
:105A2000000A00F06FF8A168FFF7C0FEA0602046F2
:105A300000F002F810BD0000F8B51B4D06461D2110
:105A4000286889014418317B481E3E2801D3422032
:105A5000F8BD2046A2680830824205D03A2905D216
:105A60002021095D072901D36420F8BD694604F0AF
:105A7000A1F8102231460098FAF7A5FC20460099BB
:105A800004F086F80098007B3A2803D2203420786E
:105A9000401C207072B62868DF224030C179114066
:105AA000C17162B60020F8BDD017002070B5144E49
:105AB0001D22316892018D182C681DE0017B227B2C
:105AC000914218D12146284604F081F82846214603
:105AD000083004F05DF8207B3A2803D2203528787E
